{
	"project/marketplace.sol": {
		"marketplace": {
			"abi": [
				{
					"inputs": [],
					"stateMutability": "nonpayable",
					"type": "constructor"
				},
				{
					"inputs": [],
					"name": "check_address",
					"outputs": [
						{
							"internalType": "bool",
							"name": "",
							"type": "bool"
						}
					],
					"stateMutability": "nonpayable",
					"type": "function"
				},
				{
					"inputs": [
						{
							"internalType": "string",
							"name": "name",
							"type": "string"
						}
					],
					"name": "user_register",
					"outputs": [
						{
							"internalType": "string",
							"name": "",
							"type": "string"
						}
					],
					"stateMutability": "nonpayable",
					"type": "function"
				}
			],
			"devdoc": {
				"kind": "dev",
				"methods": {},
				"version": 1
			},
			"evm": {
				"assembly": "    /* \"project/marketplace.sol\":69:1084  contract marketplace{... */\n  mstore(0x40, 0x80)\n    /* \"project/marketplace.sol\":511:574  constructor(){... */\n  callvalue\n  dup1\n  iszero\n  tag_1\n  jumpi\n  0x00\n  dup1\n  revert\ntag_1:\n  pop\n    /* \"project/marketplace.sol\":556:566  msg.sender */\n  caller\n    /* \"project/marketplace.sol\":534:545  currentUser */\n  0x02\n  0x00\n    /* \"project/marketplace.sol\":534:567  currentUser = payable(msg.sender) */\n  0x0100\n  exp\n  dup2\n  sload\n  dup2\n  0xffffffffffffffffffffffffffffffffffffffff\n  mul\n  not\n  and\n  swap1\n  dup4\n  0xffffffffffffffffffffffffffffffffffffffff\n  and\n  mul\n  or\n  swap1\n  sstore\n  pop\n    /* \"project/marketplace.sol\":69:1084  contract marketplace{... */\n  dataSize(sub_0)\n  dup1\n  dataOffset(sub_0)\n  0x00\n  codecopy\n  0x00\n  return\nstop\n\nsub_0: assembly {\n        /* \"project/marketplace.sol\":69:1084  contract marketplace{... */\n      mstore(0x40, 0x80)\n      callvalue\n      dup1\n      iszero\n      tag_1\n      jumpi\n      0x00\n      dup1\n      revert\n    tag_1:\n      pop\n      jumpi(tag_2, lt(calldatasize, 0x04))\n      shr(0xe0, calldataload(0x00))\n      dup1\n      0x3158776f\n      eq\n      tag_3\n      jumpi\n      dup1\n      0x73e69a18\n      eq\n      tag_4\n      jumpi\n    tag_2:\n      0x00\n      dup1\n      revert\n        /* \"project/marketplace.sol\":580:850  function user_register(string memory name) public onlyOwner returns(string memory) {... */\n    tag_3:\n      tag_5\n      0x04\n      dup1\n      calldatasize\n      sub\n      dup2\n      add\n      swap1\n      tag_6\n      swap2\n      swap1\n      tag_7\n      jump\t// in\n    tag_6:\n      tag_8\n      jump\t// in\n    tag_5:\n      mload(0x40)\n      tag_9\n      swap2\n      swap1\n      tag_10\n      jump\t// in\n    tag_9:\n      mload(0x40)\n      dup1\n      swap2\n      sub\n      swap1\n      return\n        /* \"project/marketplace.sol\":980:1082  function check_address() public onlyOwner returns(bool){... */\n    tag_4:\n      tag_11\n      tag_12\n      jump\t// in\n    tag_11:\n      mload(0x40)\n      tag_13\n      swap2\n      swap1\n      tag_14\n      jump\t// in\n    tag_13:\n      mload(0x40)\n      dup1\n      swap2\n      sub\n      swap1\n      return\n        /* \"project/marketplace.sol\":580:850  function user_register(string memory name) public onlyOwner returns(string memory) {... */\n    tag_8:\n        /* \"project/marketplace.sol\":648:661  string memory */\n      0x60\n        /* \"project/marketplace.sol\":475:486  currentUser */\n      0x02\n      0x00\n      swap1\n      sload\n      swap1\n      0x0100\n      exp\n      swap1\n      div\n      0xffffffffffffffffffffffffffffffffffffffff\n      and\n        /* \"project/marketplace.sol\":461:486  msg.sender == currentUser */\n      0xffffffffffffffffffffffffffffffffffffffff\n      and\n        /* \"project/marketplace.sol\":461:471  msg.sender */\n      caller\n        /* \"project/marketplace.sol\":461:486  msg.sender == currentUser */\n      0xffffffffffffffffffffffffffffffffffffffff\n      and\n      eq\n        /* \"project/marketplace.sol\":453:487  require(msg.sender == currentUser) */\n      tag_16\n      jumpi\n      0x00\n      dup1\n      revert\n    tag_16:\n        /* \"project/marketplace.sol\":678:701  check_user(currentUser) */\n      tag_18\n        /* \"project/marketplace.sol\":689:700  currentUser */\n      0x02\n      0x00\n      swap1\n      sload\n      swap1\n      0x0100\n      exp\n      swap1\n      div\n      0xffffffffffffffffffffffffffffffffffffffff\n      and\n        /* \"project/marketplace.sol\":678:688  check_user */\n      tag_19\n        /* \"project/marketplace.sol\":678:701  check_user(currentUser) */\n      jump\t// in\n    tag_18:\n        /* \"project/marketplace.sol\":673:747  if (!check_user(currentUser)){... */\n      tag_20\n      jumpi\n        /* \"project/marketplace.sol\":716:736  return \"User exist!\" */\n      mload(0x40)\n      dup1\n      0x40\n      add\n      0x40\n      mstore\n      dup1\n      0x0b\n      dup2\n      mstore\n      0x20\n      add\n      0x5573657220657869737421000000000000000000000000000000000000000000\n      dup2\n      mstore\n      pop\n      swap1\n      pop\n      jump(tag_17)\n        /* \"project/marketplace.sol\":673:747  if (!check_user(currentUser)){... */\n    tag_20:\n        /* \"project/marketplace.sol\":782:809  user(name,currentUser,true) */\n      mload(0x40)\n      dup1\n      0x60\n      add\n      0x40\n      mstore\n      dup1\n        /* \"project/marketplace.sol\":787:791  name */\n      dup4\n        /* \"project/marketplace.sol\":782:809  user(name,currentUser,true) */\n      dup2\n      mstore\n      0x20\n      add\n        /* \"project/marketplace.sol\":792:803  currentUser */\n      0x02\n      0x00\n      swap1\n      sload\n      swap1\n      0x0100\n      exp\n      swap1\n      div\n      0xffffffffffffffffffffffffffffffffffffffff\n      and\n        /* \"project/marketplace.sol\":782:809  user(name,currentUser,true) */\n      0xffffffffffffffffffffffffffffffffffffffff\n      and\n      dup2\n      mstore\n      0x20\n      add\n        /* \"project/marketplace.sol\":804:808  true */\n      0x01\n        /* \"project/marketplace.sol\":782:809  user(name,currentUser,true) */\n      iszero\n      iszero\n      dup2\n      mstore\n      pop\n        /* \"project/marketplace.sol\":756:766  list_users */\n      0x01\n        /* \"project/marketplace.sol\":756:779  list_users[currentUser] */\n      0x00\n        /* \"project/marketplace.sol\":767:778  currentUser */\n      0x02\n      0x00\n      swap1\n      sload\n      swap1\n      0x0100\n      exp\n      swap1\n      div\n      0xffffffffffffffffffffffffffffffffffffffff\n      and\n        /* \"project/marketplace.sol\":756:779  list_users[currentUser] */\n      0xffffffffffffffffffffffffffffffffffffffff\n      and\n      0xffffffffffffffffffffffffffffffffffffffff\n      and\n      dup2\n      mstore\n      0x20\n      add\n      swap1\n      dup2\n      mstore\n      0x20\n      add\n      0x00\n      keccak256\n        /* \"project/marketplace.sol\":756:809  list_users[currentUser] = user(name,currentUser,true) */\n      0x00\n      dup3\n      add\n      mload\n      dup2\n      0x00\n      add\n      swap1\n      dup1\n      mload\n      swap1\n      0x20\n      add\n      swap1\n      tag_21\n      swap3\n      swap2\n      swap1\n      tag_22\n      jump\t// in\n    tag_21:\n      pop\n      0x20\n      dup3\n      add\n      mload\n      dup2\n      0x01\n      add\n      exp(0x0100, 0x00)\n      dup2\n      sload\n      dup2\n      0xffffffffffffffffffffffffffffffffffffffff\n      mul\n      not\n      and\n      swap1\n      dup4\n      0xffffffffffffffffffffffffffffffffffffffff\n      and\n      mul\n      or\n      swap1\n      sstore\n      pop\n      0x40\n      dup3\n      add\n      mload\n      dup2\n      0x01\n      add\n      exp(0x0100, 0x14)\n      dup2\n      sload\n      dup2\n      0xff\n      mul\n      not\n      and\n      swap1\n      dup4\n      iszero\n      iszero\n      mul\n      or\n      swap1\n      sstore\n      pop\n      swap1\n      pop\n      pop\n        /* \"project/marketplace.sol\":819:843  return \"User registered\" */\n      mload(0x40)\n      dup1\n      0x40\n      add\n      0x40\n      mstore\n      dup1\n      0x0f\n      dup2\n      mstore\n      0x20\n      add\n      0x5573657220726567697374657265640000000000000000000000000000000000\n      dup2\n      mstore\n      pop\n      swap1\n      pop\n        /* \"project/marketplace.sol\":497:498  _ */\n    tag_17:\n        /* \"project/marketplace.sol\":580:850  function user_register(string memory name) public onlyOwner returns(string memory) {... */\n      swap2\n      swap1\n      pop\n      jump\t// out\n        /* \"project/marketplace.sol\":980:1082  function check_address() public onlyOwner returns(bool){... */\n    tag_12:\n        /* \"project/marketplace.sol\":1030:1034  bool */\n      0x00\n        /* \"project/marketplace.sol\":475:486  currentUser */\n      0x02\n      0x00\n      swap1\n      sload\n      swap1\n      0x0100\n      exp\n      swap1\n      div\n      0xffffffffffffffffffffffffffffffffffffffff\n      and\n        /* \"project/marketplace.sol\":461:486  msg.sender == currentUser */\n      0xffffffffffffffffffffffffffffffffffffffff\n      and\n        /* \"project/marketplace.sol\":461:471  msg.sender */\n      caller\n        /* \"project/marketplace.sol\":461:486  msg.sender == currentUser */\n      0xffffffffffffffffffffffffffffffffffffffff\n      and\n      eq\n        /* \"project/marketplace.sol\":453:487  require(msg.sender == currentUser) */\n      tag_24\n      jumpi\n      0x00\n      dup1\n      revert\n    tag_24:\n        /* \"project/marketplace.sol\":1052:1075  check_user(currentUser) */\n      tag_26\n        /* \"project/marketplace.sol\":1063:1074  currentUser */\n      0x02\n      0x00\n      swap1\n      sload\n      swap1\n      0x0100\n      exp\n      swap1\n      div\n      0xffffffffffffffffffffffffffffffffffffffff\n      and\n        /* \"project/marketplace.sol\":1052:1062  check_user */\n      tag_19\n        /* \"project/marketplace.sol\":1052:1075  check_user(currentUser) */\n      jump\t// in\n    tag_26:\n        /* \"project/marketplace.sol\":1045:1075  return check_user(currentUser) */\n      swap1\n      pop\n        /* \"project/marketplace.sol\":980:1082  function check_address() public onlyOwner returns(bool){... */\n      swap1\n      jump\t// out\n        /* \"project/marketplace.sol\":856:974  function check_user(address payable user_address) private returns(bool){... */\n    tag_19:\n        /* \"project/marketplace.sol\":922:926  bool */\n      0x00\n        /* \"project/marketplace.sol\":937:947  list_users */\n      0x01\n        /* \"project/marketplace.sol\":937:961  list_users[user_address] */\n      0x00\n        /* \"project/marketplace.sol\":948:960  user_address */\n      dup4\n        /* \"project/marketplace.sol\":937:961  list_users[user_address] */\n      0xffffffffffffffffffffffffffffffffffffffff\n      and\n      0xffffffffffffffffffffffffffffffffffffffff\n      and\n      dup2\n      mstore\n      0x20\n      add\n      swap1\n      dup2\n      mstore\n      0x20\n      add\n      0x00\n      keccak256\n        /* \"project/marketplace.sol\":937:967  list_users[user_address].exist */\n      0x01\n      add\n      0x14\n      swap1\n      sload\n      swap1\n      0x0100\n      exp\n      swap1\n      pop\n      pop\n        /* \"project/marketplace.sol\":856:974  function check_user(address payable user_address) private returns(bool){... */\n      swap2\n      swap1\n      pop\n      jump\t// out\n    tag_22:\n      dup3\n      dup1\n      sload\n      tag_28\n      swap1\n      tag_29\n      jump\t// in\n    tag_28:\n      swap1\n      0x00\n      mstore\n      keccak256(0x00, 0x20)\n      swap1\n      0x1f\n      add\n      0x20\n      swap1\n      div\n      dup2\n      add\n      swap3\n      dup3\n      tag_31\n      jumpi\n      0x00\n      dup6\n      sstore\n      jump(tag_30)\n    tag_31:\n      dup3\n      0x1f\n      lt\n      tag_32\n      jumpi\n      dup1\n      mload\n      not(0xff)\n      and\n      dup4\n      dup1\n      add\n      or\n      dup6\n      sstore\n      jump(tag_30)\n    tag_32:\n      dup3\n      dup1\n      add\n      0x01\n      add\n      dup6\n      sstore\n      dup3\n      iszero\n      tag_30\n      jumpi\n      swap2\n      dup3\n      add\n    tag_33:\n      dup3\n      dup2\n      gt\n      iszero\n      tag_34\n      jumpi\n      dup3\n      mload\n      dup3\n      sstore\n      swap2\n      0x20\n      add\n      swap2\n      swap1\n      0x01\n      add\n      swap1\n      jump(tag_33)\n    tag_34:\n    tag_30:\n      pop\n      swap1\n      pop\n      tag_35\n      swap2\n      swap1\n      tag_36\n      jump\t// in\n    tag_35:\n      pop\n      swap1\n      jump\t// out\n    tag_36:\n    tag_37:\n      dup1\n      dup3\n      gt\n      iszero\n      tag_38\n      jumpi\n      0x00\n      dup2\n      0x00\n      swap1\n      sstore\n      pop\n      0x01\n      add\n      jump(tag_37)\n    tag_38:\n      pop\n      swap1\n      jump\t// out\n        /* \"#utility.yul\":7:419   */\n    tag_40:\n        /* \"#utility.yul\":85:90   */\n      0x00\n        /* \"#utility.yul\":110:176   */\n      tag_42\n        /* \"#utility.yul\":126:175   */\n      tag_43\n        /* \"#utility.yul\":168:174   */\n      dup5\n        /* \"#utility.yul\":126:175   */\n      tag_44\n      jump\t// in\n    tag_43:\n        /* \"#utility.yul\":110:176   */\n      tag_45\n      jump\t// in\n    tag_42:\n        /* \"#utility.yul\":101:176   */\n      swap1\n      pop\n        /* \"#utility.yul\":199:205   */\n      dup3\n        /* \"#utility.yul\":192:197   */\n      dup2\n        /* \"#utility.yul\":185:206   */\n      mstore\n        /* \"#utility.yul\":237:241   */\n      0x20\n        /* \"#utility.yul\":230:235   */\n      dup2\n        /* \"#utility.yul\":226:242   */\n      add\n        /* \"#utility.yul\":275:278   */\n      dup5\n        /* \"#utility.yul\":266:272   */\n      dup5\n        /* \"#utility.yul\":261:264   */\n      dup5\n        /* \"#utility.yul\":257:273   */\n      add\n        /* \"#utility.yul\":254:279   */\n      gt\n        /* \"#utility.yul\":251:363   */\n      iszero\n      tag_46\n      jumpi\n        /* \"#utility.yul\":282:361   */\n      tag_47\n      tag_48\n      jump\t// in\n    tag_47:\n        /* \"#utility.yul\":251:363   */\n    tag_46:\n        /* \"#utility.yul\":372:413   */\n      tag_49\n        /* \"#utility.yul\":406:412   */\n      dup5\n        /* \"#utility.yul\":401:404   */\n      dup3\n        /* \"#utility.yul\":396:399   */\n      dup6\n        /* \"#utility.yul\":372:413   */\n      tag_50\n      jump\t// in\n    tag_49:\n        /* \"#utility.yul\":91:419   */\n      pop\n        /* \"#utility.yul\":7:419   */\n      swap4\n      swap3\n      pop\n      pop\n      pop\n      jump\t// out\n        /* \"#utility.yul\":439:779   */\n    tag_51:\n        /* \"#utility.yul\":495:500   */\n      0x00\n        /* \"#utility.yul\":544:547   */\n      dup3\n        /* \"#utility.yul\":537:541   */\n      0x1f\n        /* \"#utility.yul\":529:535   */\n      dup4\n        /* \"#utility.yul\":525:542   */\n      add\n        /* \"#utility.yul\":521:548   */\n      slt\n        /* \"#utility.yul\":511:633   */\n      tag_53\n      jumpi\n        /* \"#utility.yul\":552:631   */\n      tag_54\n      tag_55\n      jump\t// in\n    tag_54:\n        /* \"#utility.yul\":511:633   */\n    tag_53:\n        /* \"#utility.yul\":669:675   */\n      dup2\n        /* \"#utility.yul\":656:676   */\n      calldataload\n        /* \"#utility.yul\":694:773   */\n      tag_56\n        /* \"#utility.yul\":769:772   */\n      dup5\n        /* \"#utility.yul\":761:767   */\n      dup3\n        /* \"#utility.yul\":754:758   */\n      0x20\n        /* \"#utility.yul\":746:752   */\n      dup7\n        /* \"#utility.yul\":742:759   */\n      add\n        /* \"#utility.yul\":694:773   */\n      tag_40\n      jump\t// in\n    tag_56:\n        /* \"#utility.yul\":685:773   */\n      swap2\n      pop\n        /* \"#utility.yul\":501:779   */\n      pop\n        /* \"#utility.yul\":439:779   */\n      swap3\n      swap2\n      pop\n      pop\n      jump\t// out\n        /* \"#utility.yul\":785:1294   */\n    tag_7:\n        /* \"#utility.yul\":854:860   */\n      0x00\n        /* \"#utility.yul\":903:905   */\n      0x20\n        /* \"#utility.yul\":891:900   */\n      dup3\n        /* \"#utility.yul\":882:889   */\n      dup5\n        /* \"#utility.yul\":878:901   */\n      sub\n        /* \"#utility.yul\":874:906   */\n      slt\n        /* \"#utility.yul\":871:990   */\n      iszero\n      tag_58\n      jumpi\n        /* \"#utility.yul\":909:988   */\n      tag_59\n      tag_60\n      jump\t// in\n    tag_59:\n        /* \"#utility.yul\":871:990   */\n    tag_58:\n        /* \"#utility.yul\":1057:1058   */\n      0x00\n        /* \"#utility.yul\":1046:1055   */\n      dup3\n        /* \"#utility.yul\":1042:1059   */\n      add\n        /* \"#utility.yul\":1029:1060   */\n      calldataload\n        /* \"#utility.yul\":1087:1105   */\n      0xffffffffffffffff\n        /* \"#utility.yul\":1079:1085   */\n      dup2\n        /* \"#utility.yul\":1076:1106   */\n      gt\n        /* \"#utility.yul\":1073:1190   */\n      iszero\n      tag_61\n      jumpi\n        /* \"#utility.yul\":1109:1188   */\n      tag_62\n      tag_63\n      jump\t// in\n    tag_62:\n        /* \"#utility.yul\":1073:1190   */\n    tag_61:\n        /* \"#utility.yul\":1214:1277   */\n      tag_64\n        /* \"#utility.yul\":1269:1276   */\n      dup5\n        /* \"#utility.yul\":1260:1266   */\n      dup3\n        /* \"#utility.yul\":1249:1258   */\n      dup6\n        /* \"#utility.yul\":1245:1267   */\n      add\n        /* \"#utility.yul\":1214:1277   */\n      tag_51\n      jump\t// in\n    tag_64:\n        /* \"#utility.yul\":1204:1277   */\n      swap2\n      pop\n        /* \"#utility.yul\":1000:1287   */\n      pop\n        /* \"#utility.yul\":785:1294   */\n      swap3\n      swap2\n      pop\n      pop\n      jump\t// out\n        /* \"#utility.yul\":1300:1409   */\n    tag_65:\n        /* \"#utility.yul\":1381:1402   */\n      tag_67\n        /* \"#utility.yul\":1396:1401   */\n      dup2\n        /* \"#utility.yul\":1381:1402   */\n      tag_68\n      jump\t// in\n    tag_67:\n        /* \"#utility.yul\":1376:1379   */\n      dup3\n        /* \"#utility.yul\":1369:1403   */\n      mstore\n        /* \"#utility.yul\":1300:1409   */\n      pop\n      pop\n      jump\t// out\n        /* \"#utility.yul\":1415:1779   */\n    tag_69:\n        /* \"#utility.yul\":1503:1506   */\n      0x00\n        /* \"#utility.yul\":1531:1570   */\n      tag_71\n        /* \"#utility.yul\":1564:1569   */\n      dup3\n        /* \"#utility.yul\":1531:1570   */\n      tag_72\n      jump\t// in\n    tag_71:\n        /* \"#utility.yul\":1586:1657   */\n      tag_73\n        /* \"#utility.yul\":1650:1656   */\n      dup2\n        /* \"#utility.yul\":1645:1648   */\n      dup6\n        /* \"#utility.yul\":1586:1657   */\n      tag_74\n      jump\t// in\n    tag_73:\n        /* \"#utility.yul\":1579:1657   */\n      swap4\n      pop\n        /* \"#utility.yul\":1666:1718   */\n      tag_75\n        /* \"#utility.yul\":1711:1717   */\n      dup2\n        /* \"#utility.yul\":1706:1709   */\n      dup6\n        /* \"#utility.yul\":1699:1703   */\n      0x20\n        /* \"#utility.yul\":1692:1697   */\n      dup7\n        /* \"#utility.yul\":1688:1704   */\n      add\n        /* \"#utility.yul\":1666:1718   */\n      tag_76\n      jump\t// in\n    tag_75:\n        /* \"#utility.yul\":1743:1772   */\n      tag_77\n        /* \"#utility.yul\":1765:1771   */\n      dup2\n        /* \"#utility.yul\":1743:1772   */\n      tag_78\n      jump\t// in\n    tag_77:\n        /* \"#utility.yul\":1738:1741   */\n      dup5\n        /* \"#utility.yul\":1734:1773   */\n      add\n        /* \"#utility.yul\":1727:1773   */\n      swap2\n      pop\n        /* \"#utility.yul\":1507:1779   */\n      pop\n        /* \"#utility.yul\":1415:1779   */\n      swap3\n      swap2\n      pop\n      pop\n      jump\t// out\n        /* \"#utility.yul\":1785:1995   */\n    tag_14:\n        /* \"#utility.yul\":1872:1876   */\n      0x00\n        /* \"#utility.yul\":1910:1912   */\n      0x20\n        /* \"#utility.yul\":1899:1908   */\n      dup3\n        /* \"#utility.yul\":1895:1913   */\n      add\n        /* \"#utility.yul\":1887:1913   */\n      swap1\n      pop\n        /* \"#utility.yul\":1923:1988   */\n      tag_80\n        /* \"#utility.yul\":1985:1986   */\n      0x00\n        /* \"#utility.yul\":1974:1983   */\n      dup4\n        /* \"#utility.yul\":1970:1987   */\n      add\n        /* \"#utility.yul\":1961:1967   */\n      dup5\n        /* \"#utility.yul\":1923:1988   */\n      tag_65\n      jump\t// in\n    tag_80:\n        /* \"#utility.yul\":1785:1995   */\n      swap3\n      swap2\n      pop\n      pop\n      jump\t// out\n        /* \"#utility.yul\":2001:2314   */\n    tag_10:\n        /* \"#utility.yul\":2114:2118   */\n      0x00\n        /* \"#utility.yul\":2152:2154   */\n      0x20\n        /* \"#utility.yul\":2141:2150   */\n      dup3\n        /* \"#utility.yul\":2137:2155   */\n      add\n        /* \"#utility.yul\":2129:2155   */\n      swap1\n      pop\n        /* \"#utility.yul\":2201:2210   */\n      dup2\n        /* \"#utility.yul\":2195:2199   */\n      dup2\n        /* \"#utility.yul\":2191:2211   */\n      sub\n        /* \"#utility.yul\":2187:2188   */\n      0x00\n        /* \"#utility.yul\":2176:2185   */\n      dup4\n        /* \"#utility.yul\":2172:2189   */\n      add\n        /* \"#utility.yul\":2165:2212   */\n      mstore\n        /* \"#utility.yul\":2229:2307   */\n      tag_82\n        /* \"#utility.yul\":2302:2306   */\n      dup2\n        /* \"#utility.yul\":2293:2299   */\n      dup5\n        /* \"#utility.yul\":2229:2307   */\n      tag_69\n      jump\t// in\n    tag_82:\n        /* \"#utility.yul\":2221:2307   */\n      swap1\n      pop\n        /* \"#utility.yul\":2001:2314   */\n      swap3\n      swap2\n      pop\n      pop\n      jump\t// out\n        /* \"#utility.yul\":2320:2449   */\n    tag_45:\n        /* \"#utility.yul\":2354:2360   */\n      0x00\n        /* \"#utility.yul\":2381:2401   */\n      tag_84\n      tag_85\n      jump\t// in\n    tag_84:\n        /* \"#utility.yul\":2371:2401   */\n      swap1\n      pop\n        /* \"#utility.yul\":2410:2443   */\n      tag_86\n        /* \"#utility.yul\":2438:2442   */\n      dup3\n        /* \"#utility.yul\":2430:2436   */\n      dup3\n        /* \"#utility.yul\":2410:2443   */\n      tag_87\n      jump\t// in\n    tag_86:\n        /* \"#utility.yul\":2320:2449   */\n      swap2\n      swap1\n      pop\n      jump\t// out\n        /* \"#utility.yul\":2455:2530   */\n    tag_85:\n        /* \"#utility.yul\":2488:2494   */\n      0x00\n        /* \"#utility.yul\":2521:2523   */\n      0x40\n        /* \"#utility.yul\":2515:2524   */\n      mload\n        /* \"#utility.yul\":2505:2524   */\n      swap1\n      pop\n        /* \"#utility.yul\":2455:2530   */\n      swap1\n      jump\t// out\n        /* \"#utility.yul\":2536:2844   */\n    tag_44:\n        /* \"#utility.yul\":2598:2602   */\n      0x00\n        /* \"#utility.yul\":2688:2706   */\n      0xffffffffffffffff\n        /* \"#utility.yul\":2680:2686   */\n      dup3\n        /* \"#utility.yul\":2677:2707   */\n      gt\n        /* \"#utility.yul\":2674:2730   */\n      iszero\n      tag_90\n      jumpi\n        /* \"#utility.yul\":2710:2728   */\n      tag_91\n      tag_92\n      jump\t// in\n    tag_91:\n        /* \"#utility.yul\":2674:2730   */\n    tag_90:\n        /* \"#utility.yul\":2748:2777   */\n      tag_93\n        /* \"#utility.yul\":2770:2776   */\n      dup3\n        /* \"#utility.yul\":2748:2777   */\n      tag_78\n      jump\t// in\n    tag_93:\n        /* \"#utility.yul\":2740:2777   */\n      swap1\n      pop\n        /* \"#utility.yul\":2832:2836   */\n      0x20\n        /* \"#utility.yul\":2826:2830   */\n      dup2\n        /* \"#utility.yul\":2822:2837   */\n      add\n        /* \"#utility.yul\":2814:2837   */\n      swap1\n      pop\n        /* \"#utility.yul\":2536:2844   */\n      swap2\n      swap1\n      pop\n      jump\t// out\n        /* \"#utility.yul\":2850:2949   */\n    tag_72:\n        /* \"#utility.yul\":2902:2908   */\n      0x00\n        /* \"#utility.yul\":2936:2941   */\n      dup2\n        /* \"#utility.yul\":2930:2942   */\n      mload\n        /* \"#utility.yul\":2920:2942   */\n      swap1\n      pop\n        /* \"#utility.yul\":2850:2949   */\n      swap2\n      swap1\n      pop\n      jump\t// out\n        /* \"#utility.yul\":2955:3124   */\n    tag_74:\n        /* \"#utility.yul\":3039:3050   */\n      0x00\n        /* \"#utility.yul\":3073:3079   */\n      dup3\n        /* \"#utility.yul\":3068:3071   */\n      dup3\n        /* \"#utility.yul\":3061:3080   */\n      mstore\n        /* \"#utility.yul\":3113:3117   */\n      0x20\n        /* \"#utility.yul\":3108:3111   */\n      dup3\n        /* \"#utility.yul\":3104:3118   */\n      add\n        /* \"#utility.yul\":3089:3118   */\n      swap1\n      pop\n        /* \"#utility.yul\":2955:3124   */\n      swap3\n      swap2\n      pop\n      pop\n      jump\t// out\n        /* \"#utility.yul\":3130:3220   */\n    tag_68:\n        /* \"#utility.yul\":3164:3171   */\n      0x00\n        /* \"#utility.yul\":3207:3212   */\n      dup2\n        /* \"#utility.yul\":3200:3213   */\n      iszero\n        /* \"#utility.yul\":3193:3214   */\n      iszero\n        /* \"#utility.yul\":3182:3214   */\n      swap1\n      pop\n        /* \"#utility.yul\":3130:3220   */\n      swap2\n      swap1\n      pop\n      jump\t// out\n        /* \"#utility.yul\":3226:3380   */\n    tag_50:\n        /* \"#utility.yul\":3310:3316   */\n      dup3\n        /* \"#utility.yul\":3305:3308   */\n      dup2\n        /* \"#utility.yul\":3300:3303   */\n      dup4\n        /* \"#utility.yul\":3287:3317   */\n      calldatacopy\n        /* \"#utility.yul\":3372:3373   */\n      0x00\n        /* \"#utility.yul\":3363:3369   */\n      dup4\n        /* \"#utility.yul\":3358:3361   */\n      dup4\n        /* \"#utility.yul\":3354:3370   */\n      add\n        /* \"#utility.yul\":3347:3374   */\n      mstore\n        /* \"#utility.yul\":3226:3380   */\n      pop\n      pop\n      pop\n      jump\t// out\n        /* \"#utility.yul\":3386:3693   */\n    tag_76:\n        /* \"#utility.yul\":3454:3455   */\n      0x00\n        /* \"#utility.yul\":3464:3577   */\n    tag_99:\n        /* \"#utility.yul\":3478:3484   */\n      dup4\n        /* \"#utility.yul\":3475:3476   */\n      dup2\n        /* \"#utility.yul\":3472:3485   */\n      lt\n        /* \"#utility.yul\":3464:3577   */\n      iszero\n      tag_101\n      jumpi\n        /* \"#utility.yul\":3563:3564   */\n      dup1\n        /* \"#utility.yul\":3558:3561   */\n      dup3\n        /* \"#utility.yul\":3554:3565   */\n      add\n        /* \"#utility.yul\":3548:3566   */\n      mload\n        /* \"#utility.yul\":3544:3545   */\n      dup2\n        /* \"#utility.yul\":3539:3542   */\n      dup5\n        /* \"#utility.yul\":3535:3546   */\n      add\n        /* \"#utility.yul\":3528:3567   */\n      mstore\n        /* \"#utility.yul\":3500:3502   */\n      0x20\n        /* \"#utility.yul\":3497:3498   */\n      dup2\n        /* \"#utility.yul\":3493:3503   */\n      add\n        /* \"#utility.yul\":3488:3503   */\n      swap1\n      pop\n        /* \"#utility.yul\":3464:3577   */\n      jump(tag_99)\n    tag_101:\n        /* \"#utility.yul\":3595:3601   */\n      dup4\n        /* \"#utility.yul\":3592:3593   */\n      dup2\n        /* \"#utility.yul\":3589:3602   */\n      gt\n        /* \"#utility.yul\":3586:3687   */\n      iszero\n      tag_102\n      jumpi\n        /* \"#utility.yul\":3675:3676   */\n      0x00\n        /* \"#utility.yul\":3666:3672   */\n      dup5\n        /* \"#utility.yul\":3661:3664   */\n      dup5\n        /* \"#utility.yul\":3657:3673   */\n      add\n        /* \"#utility.yul\":3650:3677   */\n      mstore\n        /* \"#utility.yul\":3586:3687   */\n    tag_102:\n        /* \"#utility.yul\":3435:3693   */\n      pop\n        /* \"#utility.yul\":3386:3693   */\n      pop\n      pop\n      pop\n      jump\t// out\n        /* \"#utility.yul\":3699:4019   */\n    tag_29:\n        /* \"#utility.yul\":3743:3749   */\n      0x00\n        /* \"#utility.yul\":3780:3781   */\n      0x02\n        /* \"#utility.yul\":3774:3778   */\n      dup3\n        /* \"#utility.yul\":3770:3782   */\n      div\n        /* \"#utility.yul\":3760:3782   */\n      swap1\n      pop\n        /* \"#utility.yul\":3827:3828   */\n      0x01\n        /* \"#utility.yul\":3821:3825   */\n      dup3\n        /* \"#utility.yul\":3817:3829   */\n      and\n        /* \"#utility.yul\":3848:3866   */\n      dup1\n        /* \"#utility.yul\":3838:3919   */\n      tag_104\n      jumpi\n        /* \"#utility.yul\":3904:3908   */\n      0x7f\n        /* \"#utility.yul\":3896:3902   */\n      dup3\n        /* \"#utility.yul\":3892:3909   */\n      and\n        /* \"#utility.yul\":3882:3909   */\n      swap2\n      pop\n        /* \"#utility.yul\":3838:3919   */\n    tag_104:\n        /* \"#utility.yul\":3966:3968   */\n      0x20\n        /* \"#utility.yul\":3958:3964   */\n      dup3\n        /* \"#utility.yul\":3955:3969   */\n      lt\n        /* \"#utility.yul\":3935:3953   */\n      dup2\n        /* \"#utility.yul\":3932:3970   */\n      eq\n        /* \"#utility.yul\":3929:4013   */\n      iszero\n      tag_105\n      jumpi\n        /* \"#utility.yul\":3985:4003   */\n      tag_106\n      tag_107\n      jump\t// in\n    tag_106:\n        /* \"#utility.yul\":3929:4013   */\n    tag_105:\n        /* \"#utility.yul\":3750:4019   */\n      pop\n        /* \"#utility.yul\":3699:4019   */\n      swap2\n      swap1\n      pop\n      jump\t// out\n        /* \"#utility.yul\":4025:4306   */\n    tag_87:\n        /* \"#utility.yul\":4108:4135   */\n      tag_109\n        /* \"#utility.yul\":4130:4134   */\n      dup3\n        /* \"#utility.yul\":4108:4135   */\n      tag_78\n      jump\t// in\n    tag_109:\n        /* \"#utility.yul\":4100:4106   */\n      dup2\n        /* \"#utility.yul\":4096:4136   */\n      add\n        /* \"#utility.yul\":4238:4244   */\n      dup2\n        /* \"#utility.yul\":4226:4236   */\n      dup2\n        /* \"#utility.yul\":4223:4245   */\n      lt\n        /* \"#utility.yul\":4202:4220   */\n      0xffffffffffffffff\n        /* \"#utility.yul\":4190:4200   */\n      dup3\n        /* \"#utility.yul\":4187:4221   */\n      gt\n        /* \"#utility.yul\":4184:4246   */\n      or\n        /* \"#utility.yul\":4181:4269   */\n      iszero\n      tag_110\n      jumpi\n        /* \"#utility.yul\":4249:4267   */\n      tag_111\n      tag_92\n      jump\t// in\n    tag_111:\n        /* \"#utility.yul\":4181:4269   */\n    tag_110:\n        /* \"#utility.yul\":4289:4299   */\n      dup1\n        /* \"#utility.yul\":4285:4287   */\n      0x40\n        /* \"#utility.yul\":4278:4300   */\n      mstore\n        /* \"#utility.yul\":4068:4306   */\n      pop\n        /* \"#utility.yul\":4025:4306   */\n      pop\n      pop\n      jump\t// out\n        /* \"#utility.yul\":4312:4492   */\n    tag_107:\n        /* \"#utility.yul\":4360:4437   */\n      0x4e487b7100000000000000000000000000000000000000000000000000000000\n        /* \"#utility.yul\":4357:4358   */\n      0x00\n        /* \"#utility.yul\":4350:4438   */\n      mstore\n        /* \"#utility.yul\":4457:4461   */\n      0x22\n        /* \"#utility.yul\":4454:4455   */\n      0x04\n        /* \"#utility.yul\":4447:4462   */\n      mstore\n        /* \"#utility.yul\":4481:4485   */\n      0x24\n        /* \"#utility.yul\":4478:4479   */\n      0x00\n        /* \"#utility.yul\":4471:4486   */\n      revert\n        /* \"#utility.yul\":4498:4678   */\n    tag_92:\n        /* \"#utility.yul\":4546:4623   */\n      0x4e487b7100000000000000000000000000000000000000000000000000000000\n        /* \"#utility.yul\":4543:4544   */\n      0x00\n        /* \"#utility.yul\":4536:4624   */\n      mstore\n        /* \"#utility.yul\":4643:4647   */\n      0x41\n        /* \"#utility.yul\":4640:4641   */\n      0x04\n        /* \"#utility.yul\":4633:4648   */\n      mstore\n        /* \"#utility.yul\":4667:4671   */\n      0x24\n        /* \"#utility.yul\":4664:4665   */\n      0x00\n        /* \"#utility.yul\":4657:4672   */\n      revert\n        /* \"#utility.yul\":4684:4801   */\n    tag_55:\n        /* \"#utility.yul\":4793:4794   */\n      0x00\n        /* \"#utility.yul\":4790:4791   */\n      dup1\n        /* \"#utility.yul\":4783:4795   */\n      revert\n        /* \"#utility.yul\":4807:4924   */\n    tag_48:\n        /* \"#utility.yul\":4916:4917   */\n      0x00\n        /* \"#utility.yul\":4913:4914   */\n      dup1\n        /* \"#utility.yul\":4906:4918   */\n      revert\n        /* \"#utility.yul\":4930:5047   */\n    tag_63:\n        /* \"#utility.yul\":5039:5040   */\n      0x00\n        /* \"#utility.yul\":5036:5037   */\n      dup1\n        /* \"#utility.yul\":5029:5041   */\n      revert\n        /* \"#utility.yul\":5053:5170   */\n    tag_60:\n        /* \"#utility.yul\":5162:5163   */\n      0x00\n        /* \"#utility.yul\":5159:5160   */\n      dup1\n        /* \"#utility.yul\":5152:5164   */\n      revert\n        /* \"#utility.yul\":5176:5278   */\n    tag_78:\n        /* \"#utility.yul\":5217:5223   */\n      0x00\n        /* \"#utility.yul\":5268:5270   */\n      0x1f\n        /* \"#utility.yul\":5264:5271   */\n      not\n        /* \"#utility.yul\":5259:5261   */\n      0x1f\n        /* \"#utility.yul\":5252:5257   */\n      dup4\n        /* \"#utility.yul\":5248:5262   */\n      add\n        /* \"#utility.yul\":5244:5272   */\n      and\n        /* \"#utility.yul\":5234:5272   */\n      swap1\n      pop\n        /* \"#utility.yul\":5176:5278   */\n      swap2\n      swap1\n      pop\n      jump\t// out\n\n    auxdata: 0xa2646970667358221220630d91f0fbd247aeb9af522e3fbb9b7a46bc393150f0bb854bb9f0064609619b64736f6c63430008070033\n}\n",
				"bytecode": {
					"linkReferences": {},
					"object": "608060405234801561001057600080fd5b5033600260006101000a81548173ffffffffffffffffffffffffffffffffffffffff021916908373ffffffffffffffffffffffffffffffffffffffff16021790555061076b806100616000396000f3fe608060405234801561001057600080fd5b50600436106100365760003560e01c80633158776f1461003b57806373e69a181461006b575b600080fd5b610055600480360381019061005091906104c1565b610089565b604051610062919061056d565b60405180910390f35b6100736102cd565b6040516100809190610552565b60405180910390f35b6060600260009054906101000a900473ffffffffffffffffffffffffffffffffffffffff1673ffffffffffffffffffffffffffffffffffffffff163373ffffffffffffffffffffffffffffffffffffffff16146100e557600080fd5b610110600260009054906101000a900473ffffffffffffffffffffffffffffffffffffffff16610359565b610151576040518060400160405280600b81526020017f557365722065786973742100000000000000000000000000000000000000000081525090506102c8565b6040518060600160405280838152602001600260009054906101000a900473ffffffffffffffffffffffffffffffffffffffff1673ffffffffffffffffffffffffffffffffffffffff1681526020016001151581525060016000600260009054906101000a900473ffffffffffffffffffffffffffffffffffffffff1673ffffffffffffffffffffffffffffffffffffffff1673ffffffffffffffffffffffffffffffffffffffff16815260200190815260200160002060008201518160000190805190602001906102249291906103ae565b5060208201518160010160006101000a81548173ffffffffffffffffffffffffffffffffffffffff021916908373ffffffffffffffffffffffffffffffffffffffff16021790555060408201518160010160146101000a81548160ff0219169083151502179055509050506040518060400160405280600f81526020017f557365722072656769737465726564000000000000000000000000000000000081525090505b919050565b6000600260009054906101000a900473ffffffffffffffffffffffffffffffffffffffff1673ffffffffffffffffffffffffffffffffffffffff163373ffffffffffffffffffffffffffffffffffffffff161461032957600080fd5b610354600260009054906101000a900473ffffffffffffffffffffffffffffffffffffffff16610359565b905090565b6000600160008373ffffffffffffffffffffffffffffffffffffffff1673ffffffffffffffffffffffffffffffffffffffff16815260200190815260200160002060010160149054906101000a905050919050565b8280546103ba9061064f565b90600052602060002090601f0160209004810192826103dc5760008555610423565b82601f106103f557805160ff1916838001178555610423565b82800160010185558215610423579182015b82811115610422578251825591602001919060010190610407565b5b5090506104309190610434565b5090565b5b8082111561044d576000816000905550600101610435565b5090565b600061046461045f846105b4565b61058f565b9050828152602081018484840111156104805761047f610715565b5b61048b84828561060d565b509392505050565b600082601f8301126104a8576104a7610710565b5b81356104b8848260208601610451565b91505092915050565b6000602082840312156104d7576104d661071f565b5b600082013567ffffffffffffffff8111156104f5576104f461071a565b5b61050184828501610493565b91505092915050565b61051381610601565b82525050565b6000610524826105e5565b61052e81856105f0565b935061053e81856020860161061c565b61054781610724565b840191505092915050565b6000602082019050610567600083018461050a565b92915050565b600060208201905081810360008301526105878184610519565b905092915050565b60006105996105aa565b90506105a58282610681565b919050565b6000604051905090565b600067ffffffffffffffff8211156105cf576105ce6106e1565b5b6105d882610724565b9050602081019050919050565b600081519050919050565b600082825260208201905092915050565b60008115159050919050565b82818337600083830152505050565b60005b8381101561063a57808201518184015260208101905061061f565b83811115610649576000848401525b50505050565b6000600282049050600182168061066757607f821691505b6020821081141561067b5761067a6106b2565b5b50919050565b61068a82610724565b810181811067ffffffffffffffff821117156106a9576106a86106e1565b5b80604052505050565b7f4e487b7100000000000000000000000000000000000000000000000000000000600052602260045260246000fd5b7f4e487b7100000000000000000000000000000000000000000000000000000000600052604160045260246000fd5b600080fd5b600080fd5b600080fd5b600080fd5b6000601f19601f830116905091905056fea2646970667358221220630d91f0fbd247aeb9af522e3fbb9b7a46bc393150f0bb854bb9f0064609619b64736f6c63430008070033",
					"opcodes": "PUSH1 0x80 PUSH1 0x40 MSTORE CALLVALUE DUP1 ISZERO PUSH2 0x10 JUMPI PUSH1 0x0 DUP1 REVERT JUMPDEST POP CALLER PUSH1 0x2 PUSH1 0x0 PUSH2 0x100 EXP DUP2 SLOAD DUP2 PUSH20 0xFFFFFFFFFFFFFFFFFFFFFFFFFFFFFFFFFFFFFFFF MUL NOT AND SWAP1 DUP4 PUSH20 0xFFFFFFFFFFFFFFFFFFFFFFFFFFFFFFFFFFFFFFFF AND MUL OR SWAP1 SSTORE POP PUSH2 0x76B DUP1 PUSH2 0x61 PUSH1 0x0 CODECOPY PUSH1 0x0 RETURN INVALID PUSH1 0x80 PUSH1 0x40 MSTORE CALLVALUE DUP1 ISZERO PUSH2 0x10 JUMPI PUSH1 0x0 DUP1 REVERT JUMPDEST POP PUSH1 0x4 CALLDATASIZE LT PUSH2 0x36 JUMPI PUSH1 0x0 CALLDATALOAD PUSH1 0xE0 SHR DUP1 PUSH4 0x3158776F EQ PUSH2 0x3B JUMPI DUP1 PUSH4 0x73E69A18 EQ PUSH2 0x6B JUMPI JUMPDEST PUSH1 0x0 DUP1 REVERT JUMPDEST PUSH2 0x55 PUSH1 0x4 DUP1 CALLDATASIZE SUB DUP2 ADD SWAP1 PUSH2 0x50 SWAP2 SWAP1 PUSH2 0x4C1 JUMP JUMPDEST PUSH2 0x89 JUMP JUMPDEST PUSH1 0x40 MLOAD PUSH2 0x62 SWAP2 SWAP1 PUSH2 0x56D JUMP JUMPDEST PUSH1 0x40 MLOAD DUP1 SWAP2 SUB SWAP1 RETURN JUMPDEST PUSH2 0x73 PUSH2 0x2CD JUMP JUMPDEST PUSH1 0x40 MLOAD PUSH2 0x80 SWAP2 SWAP1 PUSH2 0x552 JUMP JUMPDEST PUSH1 0x40 MLOAD DUP1 SWAP2 SUB SWAP1 RETURN JUMPDEST PUSH1 0x60 PUSH1 0x2 PUSH1 0x0 SWAP1 SLOAD SWAP1 PUSH2 0x100 EXP SWAP1 DIV PUSH20 0xFFFFFFFFFFFFFFFFFFFFFFFFFFFFFFFFFFFFFFFF AND PUSH20 0xFFFFFFFFFFFFFFFFFFFFFFFFFFFFFFFFFFFFFFFF AND CALLER PUSH20 0xFFFFFFFFFFFFFFFFFFFFFFFFFFFFFFFFFFFFFFFF AND EQ PUSH2 0xE5 JUMPI PUSH1 0x0 DUP1 REVERT JUMPDEST PUSH2 0x110 PUSH1 0x2 PUSH1 0x0 SWAP1 SLOAD SWAP1 PUSH2 0x100 EXP SWAP1 DIV PUSH20 0xFFFFFFFFFFFFFFFFFFFFFFFFFFFFFFFFFFFFFFFF AND PUSH2 0x359 JUMP JUMPDEST PUSH2 0x151 JUMPI PUSH1 0x40 MLOAD DUP1 PUSH1 0x40 ADD PUSH1 0x40 MSTORE DUP1 PUSH1 0xB DUP2 MSTORE PUSH1 0x20 ADD PUSH32 0x5573657220657869737421000000000000000000000000000000000000000000 DUP2 MSTORE POP SWAP1 POP PUSH2 0x2C8 JUMP JUMPDEST PUSH1 0x40 MLOAD DUP1 PUSH1 0x60 ADD PUSH1 0x40 MSTORE DUP1 DUP4 DUP2 MSTORE PUSH1 0x20 ADD PUSH1 0x2 PUSH1 0x0 SWAP1 SLOAD SWAP1 PUSH2 0x100 EXP SWAP1 DIV PUSH20 0xFFFFFFFFFFFFFFFFFFFFFFFFFFFFFFFFFFFFFFFF AND PUSH20 0xFFFFFFFFFFFFFFFFFFFFFFFFFFFFFFFFFFFFFFFF AND DUP2 MSTORE PUSH1 0x20 ADD PUSH1 0x1 ISZERO ISZERO DUP2 MSTORE POP PUSH1 0x1 PUSH1 0x0 PUSH1 0x2 PUSH1 0x0 SWAP1 SLOAD SWAP1 PUSH2 0x100 EXP SWAP1 DIV PUSH20 0xFFFFFFFFFFFFFFFFFFFFFFFFFFFFFFFFFFFFFFFF AND PUSH20 0xFFFFFFFFFFFFFFFFFFFFFFFFFFFFFFFFFFFFFFFF AND PUSH20 0xFFFFFFFFFFFFFFFFFFFFFFFFFFFFFFFFFFFFFFFF AND DUP2 MSTORE PUSH1 0x20 ADD SWAP1 DUP2 MSTORE PUSH1 0x20 ADD PUSH1 0x0 KECCAK256 PUSH1 0x0 DUP3 ADD MLOAD DUP2 PUSH1 0x0 ADD SWAP1 DUP1 MLOAD SWAP1 PUSH1 0x20 ADD SWAP1 PUSH2 0x224 SWAP3 SWAP2 SWAP1 PUSH2 0x3AE JUMP JUMPDEST POP PUSH1 0x20 DUP3 ADD MLOAD DUP2 PUSH1 0x1 ADD PUSH1 0x0 PUSH2 0x100 EXP DUP2 SLOAD DUP2 PUSH20 0xFFFFFFFFFFFFFFFFFFFFFFFFFFFFFFFFFFFFFFFF MUL NOT AND SWAP1 DUP4 PUSH20 0xFFFFFFFFFFFFFFFFFFFFFFFFFFFFFFFFFFFFFFFF AND MUL OR SWAP1 SSTORE POP PUSH1 0x40 DUP3 ADD MLOAD DUP2 PUSH1 0x1 ADD PUSH1 0x14 PUSH2 0x100 EXP DUP2 SLOAD DUP2 PUSH1 0xFF MUL NOT AND SWAP1 DUP4 ISZERO ISZERO MUL OR SWAP1 SSTORE POP SWAP1 POP POP PUSH1 0x40 MLOAD DUP1 PUSH1 0x40 ADD PUSH1 0x40 MSTORE DUP1 PUSH1 0xF DUP2 MSTORE PUSH1 0x20 ADD PUSH32 0x5573657220726567697374657265640000000000000000000000000000000000 DUP2 MSTORE POP SWAP1 POP JUMPDEST SWAP2 SWAP1 POP JUMP JUMPDEST PUSH1 0x0 PUSH1 0x2 PUSH1 0x0 SWAP1 SLOAD SWAP1 PUSH2 0x100 EXP SWAP1 DIV PUSH20 0xFFFFFFFFFFFFFFFFFFFFFFFFFFFFFFFFFFFFFFFF AND PUSH20 0xFFFFFFFFFFFFFFFFFFFFFFFFFFFFFFFFFFFFFFFF AND CALLER PUSH20 0xFFFFFFFFFFFFFFFFFFFFFFFFFFFFFFFFFFFFFFFF AND EQ PUSH2 0x329 JUMPI PUSH1 0x0 DUP1 REVERT JUMPDEST PUSH2 0x354 PUSH1 0x2 PUSH1 0x0 SWAP1 SLOAD SWAP1 PUSH2 0x100 EXP SWAP1 DIV PUSH20 0xFFFFFFFFFFFFFFFFFFFFFFFFFFFFFFFFFFFFFFFF AND PUSH2 0x359 JUMP JUMPDEST SWAP1 POP SWAP1 JUMP JUMPDEST PUSH1 0x0 PUSH1 0x1 PUSH1 0x0 DUP4 PUSH20 0xFFFFFFFFFFFFFFFFFFFFFFFFFFFFFFFFFFFFFFFF AND PUSH20 0xFFFFFFFFFFFFFFFFFFFFFFFFFFFFFFFFFFFFFFFF AND DUP2 MSTORE PUSH1 0x20 ADD SWAP1 DUP2 MSTORE PUSH1 0x20 ADD PUSH1 0x0 KECCAK256 PUSH1 0x1 ADD PUSH1 0x14 SWAP1 SLOAD SWAP1 PUSH2 0x100 EXP SWAP1 POP POP SWAP2 SWAP1 POP JUMP JUMPDEST DUP3 DUP1 SLOAD PUSH2 0x3BA SWAP1 PUSH2 0x64F JUMP JUMPDEST SWAP1 PUSH1 0x0 MSTORE PUSH1 0x20 PUSH1 0x0 KECCAK256 SWAP1 PUSH1 0x1F ADD PUSH1 0x20 SWAP1 DIV DUP2 ADD SWAP3 DUP3 PUSH2 0x3DC JUMPI PUSH1 0x0 DUP6 SSTORE PUSH2 0x423 JUMP JUMPDEST DUP3 PUSH1 0x1F LT PUSH2 0x3F5 JUMPI DUP1 MLOAD PUSH1 0xFF NOT AND DUP4 DUP1 ADD OR DUP6 SSTORE PUSH2 0x423 JUMP JUMPDEST DUP3 DUP1 ADD PUSH1 0x1 ADD DUP6 SSTORE DUP3 ISZERO PUSH2 0x423 JUMPI SWAP2 DUP3 ADD JUMPDEST DUP3 DUP2 GT ISZERO PUSH2 0x422 JUMPI DUP3 MLOAD DUP3 SSTORE SWAP2 PUSH1 0x20 ADD SWAP2 SWAP1 PUSH1 0x1 ADD SWAP1 PUSH2 0x407 JUMP JUMPDEST JUMPDEST POP SWAP1 POP PUSH2 0x430 SWAP2 SWAP1 PUSH2 0x434 JUMP JUMPDEST POP SWAP1 JUMP JUMPDEST JUMPDEST DUP1 DUP3 GT ISZERO PUSH2 0x44D JUMPI PUSH1 0x0 DUP2 PUSH1 0x0 SWAP1 SSTORE POP PUSH1 0x1 ADD PUSH2 0x435 JUMP JUMPDEST POP SWAP1 JUMP JUMPDEST PUSH1 0x0 PUSH2 0x464 PUSH2 0x45F DUP5 PUSH2 0x5B4 JUMP JUMPDEST PUSH2 0x58F JUMP JUMPDEST SWAP1 POP DUP3 DUP2 MSTORE PUSH1 0x20 DUP2 ADD DUP5 DUP5 DUP5 ADD GT ISZERO PUSH2 0x480 JUMPI PUSH2 0x47F PUSH2 0x715 JUMP JUMPDEST JUMPDEST PUSH2 0x48B DUP5 DUP3 DUP6 PUSH2 0x60D JUMP JUMPDEST POP SWAP4 SWAP3 POP POP POP JUMP JUMPDEST PUSH1 0x0 DUP3 PUSH1 0x1F DUP4 ADD SLT PUSH2 0x4A8 JUMPI PUSH2 0x4A7 PUSH2 0x710 JUMP JUMPDEST JUMPDEST DUP2 CALLDATALOAD PUSH2 0x4B8 DUP5 DUP3 PUSH1 0x20 DUP7 ADD PUSH2 0x451 JUMP JUMPDEST SWAP2 POP POP SWAP3 SWAP2 POP POP JUMP JUMPDEST PUSH1 0x0 PUSH1 0x20 DUP3 DUP5 SUB SLT ISZERO PUSH2 0x4D7 JUMPI PUSH2 0x4D6 PUSH2 0x71F JUMP JUMPDEST JUMPDEST PUSH1 0x0 DUP3 ADD CALLDATALOAD PUSH8 0xFFFFFFFFFFFFFFFF DUP2 GT ISZERO PUSH2 0x4F5 JUMPI PUSH2 0x4F4 PUSH2 0x71A JUMP JUMPDEST JUMPDEST PUSH2 0x501 DUP5 DUP3 DUP6 ADD PUSH2 0x493 JUMP JUMPDEST SWAP2 POP POP SWAP3 SWAP2 POP POP JUMP JUMPDEST PUSH2 0x513 DUP2 PUSH2 0x601 JUMP JUMPDEST DUP3 MSTORE POP POP JUMP JUMPDEST PUSH1 0x0 PUSH2 0x524 DUP3 PUSH2 0x5E5 JUMP JUMPDEST PUSH2 0x52E DUP2 DUP6 PUSH2 0x5F0 JUMP JUMPDEST SWAP4 POP PUSH2 0x53E DUP2 DUP6 PUSH1 0x20 DUP7 ADD PUSH2 0x61C JUMP JUMPDEST PUSH2 0x547 DUP2 PUSH2 0x724 JUMP JUMPDEST DUP5 ADD SWAP2 POP POP SWAP3 SWAP2 POP POP JUMP JUMPDEST PUSH1 0x0 PUSH1 0x20 DUP3 ADD SWAP1 POP PUSH2 0x567 PUSH1 0x0 DUP4 ADD DUP5 PUSH2 0x50A JUMP JUMPDEST SWAP3 SWAP2 POP POP JUMP JUMPDEST PUSH1 0x0 PUSH1 0x20 DUP3 ADD SWAP1 POP DUP2 DUP2 SUB PUSH1 0x0 DUP4 ADD MSTORE PUSH2 0x587 DUP2 DUP5 PUSH2 0x519 JUMP JUMPDEST SWAP1 POP SWAP3 SWAP2 POP POP JUMP JUMPDEST PUSH1 0x0 PUSH2 0x599 PUSH2 0x5AA JUMP JUMPDEST SWAP1 POP PUSH2 0x5A5 DUP3 DUP3 PUSH2 0x681 JUMP JUMPDEST SWAP2 SWAP1 POP JUMP JUMPDEST PUSH1 0x0 PUSH1 0x40 MLOAD SWAP1 POP SWAP1 JUMP JUMPDEST PUSH1 0x0 PUSH8 0xFFFFFFFFFFFFFFFF DUP3 GT ISZERO PUSH2 0x5CF JUMPI PUSH2 0x5CE PUSH2 0x6E1 JUMP JUMPDEST JUMPDEST PUSH2 0x5D8 DUP3 PUSH2 0x724 JUMP JUMPDEST SWAP1 POP PUSH1 0x20 DUP2 ADD SWAP1 POP SWAP2 SWAP1 POP JUMP JUMPDEST PUSH1 0x0 DUP2 MLOAD SWAP1 POP SWAP2 SWAP1 POP JUMP JUMPDEST PUSH1 0x0 DUP3 DUP3 MSTORE PUSH1 0x20 DUP3 ADD SWAP1 POP SWAP3 SWAP2 POP POP JUMP JUMPDEST PUSH1 0x0 DUP2 ISZERO ISZERO SWAP1 POP SWAP2 SWAP1 POP JUMP JUMPDEST DUP3 DUP2 DUP4 CALLDATACOPY PUSH1 0x0 DUP4 DUP4 ADD MSTORE POP POP POP JUMP JUMPDEST PUSH1 0x0 JUMPDEST DUP4 DUP2 LT ISZERO PUSH2 0x63A JUMPI DUP1 DUP3 ADD MLOAD DUP2 DUP5 ADD MSTORE PUSH1 0x20 DUP2 ADD SWAP1 POP PUSH2 0x61F JUMP JUMPDEST DUP4 DUP2 GT ISZERO PUSH2 0x649 JUMPI PUSH1 0x0 DUP5 DUP5 ADD MSTORE JUMPDEST POP POP POP POP JUMP JUMPDEST PUSH1 0x0 PUSH1 0x2 DUP3 DIV SWAP1 POP PUSH1 0x1 DUP3 AND DUP1 PUSH2 0x667 JUMPI PUSH1 0x7F DUP3 AND SWAP2 POP JUMPDEST PUSH1 0x20 DUP3 LT DUP2 EQ ISZERO PUSH2 0x67B JUMPI PUSH2 0x67A PUSH2 0x6B2 JUMP JUMPDEST JUMPDEST POP SWAP2 SWAP1 POP JUMP JUMPDEST PUSH2 0x68A DUP3 PUSH2 0x724 JUMP JUMPDEST DUP2 ADD DUP2 DUP2 LT PUSH8 0xFFFFFFFFFFFFFFFF DUP3 GT OR ISZERO PUSH2 0x6A9 JUMPI PUSH2 0x6A8 PUSH2 0x6E1 JUMP JUMPDEST JUMPDEST DUP1 PUSH1 0x40 MSTORE POP POP POP JUMP JUMPDEST PUSH32 0x4E487B7100000000000000000000000000000000000000000000000000000000 PUSH1 0x0 MSTORE PUSH1 0x22 PUSH1 0x4 MSTORE PUSH1 0x24 PUSH1 0x0 REVERT JUMPDEST PUSH32 0x4E487B7100000000000000000000000000000000000000000000000000000000 PUSH1 0x0 MSTORE PUSH1 0x41 PUSH1 0x4 MSTORE PUSH1 0x24 PUSH1 0x0 REVERT JUMPDEST PUSH1 0x0 DUP1 REVERT JUMPDEST PUSH1 0x0 DUP1 REVERT JUMPDEST PUSH1 0x0 DUP1 REVERT JUMPDEST PUSH1 0x0 DUP1 REVERT JUMPDEST PUSH1 0x0 PUSH1 0x1F NOT PUSH1 0x1F DUP4 ADD AND SWAP1 POP SWAP2 SWAP1 POP JUMP INVALID LOG2 PUSH5 0x6970667358 0x22 SLT KECCAK256 PUSH4 0xD91F0FB 0xD2 SELFBALANCE 0xAE 0xB9 0xAF MSTORE 0x2E EXTCODEHASH 0xBB SWAP12 PUSH27 0x46BC393150F0BB854BB9F0064609619B64736F6C63430008070033 "
				},
				"gasEstimates": {
					"creation": {
						"codeDepositCost": "379800",
						"executionCost": "24684",
						"totalCost": "404484"
					},
					"external": {
						"check_address()": "6962",
						"user_register(string)": "infinite"
					},
					"internal": {
						"check_user(address payable)": "2304"
					}
				},
				"methodIdentifiers": {
					"check_address()": "73e69a18",
					"user_register(string)": "3158776f"
				}
			},
			"storageLayout": {
				"storage": [
					{
						"astId": 22,
						"contract": "project/marketplace.sol:marketplace",
						"label": "list_goods",
						"offset": 0,
						"slot": "0",
						"type": "t_mapping(t_string_memory_ptr,t_struct(goods)10_storage)"
					},
					{
						"astId": 27,
						"contract": "project/marketplace.sol:marketplace",
						"label": "list_users",
						"offset": 0,
						"slot": "1",
						"type": "t_mapping(t_address,t_struct(user)17_storage)"
					},
					{
						"astId": 29,
						"contract": "project/marketplace.sol:marketplace",
						"label": "currentUser",
						"offset": 0,
						"slot": "2",
						"type": "t_address_payable"
					}
				],
				"types": {
					"t_address": {
						"encoding": "inplace",
						"label": "address",
						"numberOfBytes": "20"
					},
					"t_address_payable": {
						"encoding": "inplace",
						"label": "address payable",
						"numberOfBytes": "20"
					},
					"t_bool": {
						"encoding": "inplace",
						"label": "bool",
						"numberOfBytes": "1"
					},
					"t_mapping(t_address,t_struct(user)17_storage)": {
						"encoding": "mapping",
						"key": "t_address",
						"label": "mapping(address => struct marketplace.user)",
						"numberOfBytes": "32",
						"value": "t_struct(user)17_storage"
					},
					"t_mapping(t_string_memory_ptr,t_struct(goods)10_storage)": {
						"encoding": "mapping",
						"key": "t_string_memory_ptr",
						"label": "mapping(string => struct marketplace.goods)",
						"numberOfBytes": "32",
						"value": "t_struct(goods)10_storage"
					},
					"t_string_memory_ptr": {
						"encoding": "bytes",
						"label": "string",
						"numberOfBytes": "32"
					},
					"t_string_storage": {
						"encoding": "bytes",
						"label": "string",
						"numberOfBytes": "32"
					},
					"t_struct(goods)10_storage": {
						"encoding": "inplace",
						"label": "struct marketplace.goods",
						"members": [
							{
								"astId": 3,
								"contract": "project/marketplace.sol:marketplace",
								"label": "title",
								"offset": 0,
								"slot": "0",
								"type": "t_string_storage"
							},
							{
								"astId": 5,
								"contract": "project/marketplace.sol:marketplace",
								"label": "description",
								"offset": 0,
								"slot": "1",
								"type": "t_string_storage"
							},
							{
								"astId": 7,
								"contract": "project/marketplace.sol:marketplace",
								"label": "price",
								"offset": 0,
								"slot": "2",
								"type": "t_uint256"
							},
							{
								"astId": 9,
								"contract": "project/marketplace.sol:marketplace",
								"label": "owner",
								"offset": 0,
								"slot": "3",
								"type": "t_address"
							}
						],
						"numberOfBytes": "128"
					},
					"t_struct(user)17_storage": {
						"encoding": "inplace",
						"label": "struct marketplace.user",
						"members": [
							{
								"astId": 12,
								"contract": "project/marketplace.sol:marketplace",
								"label": "name",
								"offset": 0,
								"slot": "0",
								"type": "t_string_storage"
							},
							{
								"astId": 14,
								"contract": "project/marketplace.sol:marketplace",
								"label": "user_address",
								"offset": 0,
								"slot": "1",
								"type": "t_address"
							},
							{
								"astId": 16,
								"contract": "project/marketplace.sol:marketplace",
								"label": "exist",
								"offset": 20,
								"slot": "1",
								"type": "t_bool"
							}
						],
						"numberOfBytes": "64"
					},
					"t_uint256": {
						"encoding": "inplace",
						"label": "uint256",
						"numberOfBytes": "32"
					}
				}
			},
			"userdoc": {
				"kind": "user",
				"methods": {},
				"version": 1
			}
		}
	}
}