{
	"project/marketplace.sol": {
		"marketplace": {
			"abi": [
				{
					"inputs": [],
					"stateMutability": "nonpayable",
					"type": "constructor"
				},
				{
					"inputs": [],
					"name": "check_address",
					"outputs": [
						{
							"internalType": "bool",
							"name": "",
							"type": "bool"
						}
					],
					"stateMutability": "nonpayable",
					"type": "function"
				},
				{
					"inputs": [
						{
							"internalType": "address payable",
							"name": "user_address",
							"type": "address"
						}
					],
					"name": "check_user",
					"outputs": [
						{
							"internalType": "bool",
							"name": "",
							"type": "bool"
						}
					],
					"stateMutability": "nonpayable",
					"type": "function"
				},
				{
					"inputs": [
						{
							"internalType": "string",
							"name": "name",
							"type": "string"
						}
					],
					"name": "user_register",
					"outputs": [
						{
							"internalType": "string",
							"name": "",
							"type": "string"
						}
					],
					"stateMutability": "nonpayable",
					"type": "function"
				}
			],
			"devdoc": {
				"kind": "dev",
				"methods": {},
				"version": 1
			},
			"evm": {
				"assembly": "    /* \"project/marketplace.sol\":69:1083  contract marketplace{... */\n  mstore(0x40, 0x80)\n    /* \"project/marketplace.sol\":511:574  constructor(){... */\n  callvalue\n  dup1\n  iszero\n  tag_1\n  jumpi\n  0x00\n  dup1\n  revert\ntag_1:\n  pop\n    /* \"project/marketplace.sol\":556:566  msg.sender */\n  caller\n    /* \"project/marketplace.sol\":534:545  currentUser */\n  0x02\n  0x00\n    /* \"project/marketplace.sol\":534:567  currentUser = payable(msg.sender) */\n  0x0100\n  exp\n  dup2\n  sload\n  dup2\n  0xffffffffffffffffffffffffffffffffffffffff\n  mul\n  not\n  and\n  swap1\n  dup4\n  0xffffffffffffffffffffffffffffffffffffffff\n  and\n  mul\n  or\n  swap1\n  sstore\n  pop\n    /* \"project/marketplace.sol\":69:1083  contract marketplace{... */\n  dataSize(sub_0)\n  dup1\n  dataOffset(sub_0)\n  0x00\n  codecopy\n  0x00\n  return\nstop\n\nsub_0: assembly {\n        /* \"project/marketplace.sol\":69:1083  contract marketplace{... */\n      mstore(0x40, 0x80)\n      callvalue\n      dup1\n      iszero\n      tag_1\n      jumpi\n      0x00\n      dup1\n      revert\n    tag_1:\n      pop\n      jumpi(tag_2, lt(calldatasize, 0x04))\n      shr(0xe0, calldataload(0x00))\n      dup1\n      0x3158776f\n      eq\n      tag_3\n      jumpi\n      dup1\n      0x73e69a18\n      eq\n      tag_4\n      jumpi\n      dup1\n      0xfc4433b1\n      eq\n      tag_5\n      jumpi\n    tag_2:\n      0x00\n      dup1\n      revert\n        /* \"project/marketplace.sol\":580:850  function user_register(string memory name) public onlyOwner returns(string memory) {... */\n    tag_3:\n      tag_6\n      0x04\n      dup1\n      calldatasize\n      sub\n      dup2\n      add\n      swap1\n      tag_7\n      swap2\n      swap1\n      tag_8\n      jump\t// in\n    tag_7:\n      tag_9\n      jump\t// in\n    tag_6:\n      mload(0x40)\n      tag_10\n      swap2\n      swap1\n      tag_11\n      jump\t// in\n    tag_10:\n      mload(0x40)\n      dup1\n      swap2\n      sub\n      swap1\n      return\n        /* \"project/marketplace.sol\":979:1081  function check_address() public onlyOwner returns(bool){... */\n    tag_4:\n      tag_12\n      tag_13\n      jump\t// in\n    tag_12:\n      mload(0x40)\n      tag_14\n      swap2\n      swap1\n      tag_15\n      jump\t// in\n    tag_14:\n      mload(0x40)\n      dup1\n      swap2\n      sub\n      swap1\n      return\n        /* \"project/marketplace.sol\":856:973  function check_user(address payable user_address) public returns(bool){... */\n    tag_5:\n      tag_16\n      0x04\n      dup1\n      calldatasize\n      sub\n      dup2\n      add\n      swap1\n      tag_17\n      swap2\n      swap1\n      tag_18\n      jump\t// in\n    tag_17:\n      tag_19\n      jump\t// in\n    tag_16:\n      mload(0x40)\n      tag_20\n      swap2\n      swap1\n      tag_15\n      jump\t// in\n    tag_20:\n      mload(0x40)\n      dup1\n      swap2\n      sub\n      swap1\n      return\n        /* \"project/marketplace.sol\":580:850  function user_register(string memory name) public onlyOwner returns(string memory) {... */\n    tag_9:\n        /* \"project/marketplace.sol\":648:661  string memory */\n      0x60\n        /* \"project/marketplace.sol\":475:486  currentUser */\n      0x02\n      0x00\n      swap1\n      sload\n      swap1\n      0x0100\n      exp\n      swap1\n      div\n      0xffffffffffffffffffffffffffffffffffffffff\n      and\n        /* \"project/marketplace.sol\":461:486  msg.sender == currentUser */\n      0xffffffffffffffffffffffffffffffffffffffff\n      and\n        /* \"project/marketplace.sol\":461:471  msg.sender */\n      caller\n        /* \"project/marketplace.sol\":461:486  msg.sender == currentUser */\n      0xffffffffffffffffffffffffffffffffffffffff\n      and\n      eq\n        /* \"project/marketplace.sol\":453:487  require(msg.sender == currentUser) */\n      tag_22\n      jumpi\n      0x00\n      dup1\n      revert\n    tag_22:\n        /* \"project/marketplace.sol\":678:701  check_user(currentUser) */\n      tag_24\n        /* \"project/marketplace.sol\":689:700  currentUser */\n      0x02\n      0x00\n      swap1\n      sload\n      swap1\n      0x0100\n      exp\n      swap1\n      div\n      0xffffffffffffffffffffffffffffffffffffffff\n      and\n        /* \"project/marketplace.sol\":678:688  check_user */\n      tag_19\n        /* \"project/marketplace.sol\":678:701  check_user(currentUser) */\n      jump\t// in\n    tag_24:\n        /* \"project/marketplace.sol\":673:747  if (!check_user(currentUser)){... */\n      tag_25\n      jumpi\n        /* \"project/marketplace.sol\":716:736  return \"User exist!\" */\n      mload(0x40)\n      dup1\n      0x40\n      add\n      0x40\n      mstore\n      dup1\n      0x0b\n      dup2\n      mstore\n      0x20\n      add\n      0x5573657220657869737421000000000000000000000000000000000000000000\n      dup2\n      mstore\n      pop\n      swap1\n      pop\n      jump(tag_23)\n        /* \"project/marketplace.sol\":673:747  if (!check_user(currentUser)){... */\n    tag_25:\n        /* \"project/marketplace.sol\":782:809  user(name,currentUser,true) */\n      mload(0x40)\n      dup1\n      0x60\n      add\n      0x40\n      mstore\n      dup1\n        /* \"project/marketplace.sol\":787:791  name */\n      dup4\n        /* \"project/marketplace.sol\":782:809  user(name,currentUser,true) */\n      dup2\n      mstore\n      0x20\n      add\n        /* \"project/marketplace.sol\":792:803  currentUser */\n      0x02\n      0x00\n      swap1\n      sload\n      swap1\n      0x0100\n      exp\n      swap1\n      div\n      0xffffffffffffffffffffffffffffffffffffffff\n      and\n        /* \"project/marketplace.sol\":782:809  user(name,currentUser,true) */\n      0xffffffffffffffffffffffffffffffffffffffff\n      and\n      dup2\n      mstore\n      0x20\n      add\n        /* \"project/marketplace.sol\":804:808  true */\n      0x01\n        /* \"project/marketplace.sol\":782:809  user(name,currentUser,true) */\n      iszero\n      iszero\n      dup2\n      mstore\n      pop\n        /* \"project/marketplace.sol\":756:766  list_users */\n      0x01\n        /* \"project/marketplace.sol\":756:779  list_users[currentUser] */\n      0x00\n        /* \"project/marketplace.sol\":767:778  currentUser */\n      0x02\n      0x00\n      swap1\n      sload\n      swap1\n      0x0100\n      exp\n      swap1\n      div\n      0xffffffffffffffffffffffffffffffffffffffff\n      and\n        /* \"project/marketplace.sol\":756:779  list_users[currentUser] */\n      0xffffffffffffffffffffffffffffffffffffffff\n      and\n      0xffffffffffffffffffffffffffffffffffffffff\n      and\n      dup2\n      mstore\n      0x20\n      add\n      swap1\n      dup2\n      mstore\n      0x20\n      add\n      0x00\n      keccak256\n        /* \"project/marketplace.sol\":756:809  list_users[currentUser] = user(name,currentUser,true) */\n      0x00\n      dup3\n      add\n      mload\n      dup2\n      0x00\n      add\n      swap1\n      dup1\n      mload\n      swap1\n      0x20\n      add\n      swap1\n      tag_26\n      swap3\n      swap2\n      swap1\n      tag_27\n      jump\t// in\n    tag_26:\n      pop\n      0x20\n      dup3\n      add\n      mload\n      dup2\n      0x01\n      add\n      exp(0x0100, 0x00)\n      dup2\n      sload\n      dup2\n      0xffffffffffffffffffffffffffffffffffffffff\n      mul\n      not\n      and\n      swap1\n      dup4\n      0xffffffffffffffffffffffffffffffffffffffff\n      and\n      mul\n      or\n      swap1\n      sstore\n      pop\n      0x40\n      dup3\n      add\n      mload\n      dup2\n      0x01\n      add\n      exp(0x0100, 0x14)\n      dup2\n      sload\n      dup2\n      0xff\n      mul\n      not\n      and\n      swap1\n      dup4\n      iszero\n      iszero\n      mul\n      or\n      swap1\n      sstore\n      pop\n      swap1\n      pop\n      pop\n        /* \"project/marketplace.sol\":819:843  return \"User registered\" */\n      mload(0x40)\n      dup1\n      0x40\n      add\n      0x40\n      mstore\n      dup1\n      0x0f\n      dup2\n      mstore\n      0x20\n      add\n      0x5573657220726567697374657265640000000000000000000000000000000000\n      dup2\n      mstore\n      pop\n      swap1\n      pop\n        /* \"project/marketplace.sol\":497:498  _ */\n    tag_23:\n        /* \"project/marketplace.sol\":580:850  function user_register(string memory name) public onlyOwner returns(string memory) {... */\n      swap2\n      swap1\n      pop\n      jump\t// out\n        /* \"project/marketplace.sol\":979:1081  function check_address() public onlyOwner returns(bool){... */\n    tag_13:\n        /* \"project/marketplace.sol\":1029:1033  bool */\n      0x00\n        /* \"project/marketplace.sol\":475:486  currentUser */\n      0x02\n      0x00\n      swap1\n      sload\n      swap1\n      0x0100\n      exp\n      swap1\n      div\n      0xffffffffffffffffffffffffffffffffffffffff\n      and\n        /* \"project/marketplace.sol\":461:486  msg.sender == currentUser */\n      0xffffffffffffffffffffffffffffffffffffffff\n      and\n        /* \"project/marketplace.sol\":461:471  msg.sender */\n      caller\n        /* \"project/marketplace.sol\":461:486  msg.sender == currentUser */\n      0xffffffffffffffffffffffffffffffffffffffff\n      and\n      eq\n        /* \"project/marketplace.sol\":453:487  require(msg.sender == currentUser) */\n      tag_29\n      jumpi\n      0x00\n      dup1\n      revert\n    tag_29:\n        /* \"project/marketplace.sol\":1051:1074  check_user(currentUser) */\n      tag_31\n        /* \"project/marketplace.sol\":1062:1073  currentUser */\n      0x02\n      0x00\n      swap1\n      sload\n      swap1\n      0x0100\n      exp\n      swap1\n      div\n      0xffffffffffffffffffffffffffffffffffffffff\n      and\n        /* \"project/marketplace.sol\":1051:1061  check_user */\n      tag_19\n        /* \"project/marketplace.sol\":1051:1074  check_user(currentUser) */\n      jump\t// in\n    tag_31:\n        /* \"project/marketplace.sol\":1044:1074  return check_user(currentUser) */\n      swap1\n      pop\n        /* \"project/marketplace.sol\":979:1081  function check_address() public onlyOwner returns(bool){... */\n      swap1\n      jump\t// out\n        /* \"project/marketplace.sol\":856:973  function check_user(address payable user_address) public returns(bool){... */\n    tag_19:\n        /* \"project/marketplace.sol\":921:925  bool */\n      0x00\n        /* \"project/marketplace.sol\":936:946  list_users */\n      0x01\n        /* \"project/marketplace.sol\":936:960  list_users[user_address] */\n      0x00\n        /* \"project/marketplace.sol\":947:959  user_address */\n      dup4\n        /* \"project/marketplace.sol\":936:960  list_users[user_address] */\n      0xffffffffffffffffffffffffffffffffffffffff\n      and\n      0xffffffffffffffffffffffffffffffffffffffff\n      and\n      dup2\n      mstore\n      0x20\n      add\n      swap1\n      dup2\n      mstore\n      0x20\n      add\n      0x00\n      keccak256\n        /* \"project/marketplace.sol\":936:966  list_users[user_address].exist */\n      0x01\n      add\n      0x14\n      swap1\n      sload\n      swap1\n      0x0100\n      exp\n      swap1\n      pop\n      pop\n        /* \"project/marketplace.sol\":856:973  function check_user(address payable user_address) public returns(bool){... */\n      swap2\n      swap1\n      pop\n      jump\t// out\n    tag_27:\n      dup3\n      dup1\n      sload\n      tag_33\n      swap1\n      tag_34\n      jump\t// in\n    tag_33:\n      swap1\n      0x00\n      mstore\n      keccak256(0x00, 0x20)\n      swap1\n      0x1f\n      add\n      0x20\n      swap1\n      div\n      dup2\n      add\n      swap3\n      dup3\n      tag_36\n      jumpi\n      0x00\n      dup6\n      sstore\n      jump(tag_35)\n    tag_36:\n      dup3\n      0x1f\n      lt\n      tag_37\n      jumpi\n      dup1\n      mload\n      not(0xff)\n      and\n      dup4\n      dup1\n      add\n      or\n      dup6\n      sstore\n      jump(tag_35)\n    tag_37:\n      dup3\n      dup1\n      add\n      0x01\n      add\n      dup6\n      sstore\n      dup3\n      iszero\n      tag_35\n      jumpi\n      swap2\n      dup3\n      add\n    tag_38:\n      dup3\n      dup2\n      gt\n      iszero\n      tag_39\n      jumpi\n      dup3\n      mload\n      dup3\n      sstore\n      swap2\n      0x20\n      add\n      swap2\n      swap1\n      0x01\n      add\n      swap1\n      jump(tag_38)\n    tag_39:\n    tag_35:\n      pop\n      swap1\n      pop\n      tag_40\n      swap2\n      swap1\n      tag_41\n      jump\t// in\n    tag_40:\n      pop\n      swap1\n      jump\t// out\n    tag_41:\n    tag_42:\n      dup1\n      dup3\n      gt\n      iszero\n      tag_43\n      jumpi\n      0x00\n      dup2\n      0x00\n      swap1\n      sstore\n      pop\n      0x01\n      add\n      jump(tag_42)\n    tag_43:\n      pop\n      swap1\n      jump\t// out\n        /* \"#utility.yul\":7:419   */\n    tag_45:\n        /* \"#utility.yul\":85:90   */\n      0x00\n        /* \"#utility.yul\":110:176   */\n      tag_47\n        /* \"#utility.yul\":126:175   */\n      tag_48\n        /* \"#utility.yul\":168:174   */\n      dup5\n        /* \"#utility.yul\":126:175   */\n      tag_49\n      jump\t// in\n    tag_48:\n        /* \"#utility.yul\":110:176   */\n      tag_50\n      jump\t// in\n    tag_47:\n        /* \"#utility.yul\":101:176   */\n      swap1\n      pop\n        /* \"#utility.yul\":199:205   */\n      dup3\n        /* \"#utility.yul\":192:197   */\n      dup2\n        /* \"#utility.yul\":185:206   */\n      mstore\n        /* \"#utility.yul\":237:241   */\n      0x20\n        /* \"#utility.yul\":230:235   */\n      dup2\n        /* \"#utility.yul\":226:242   */\n      add\n        /* \"#utility.yul\":275:278   */\n      dup5\n        /* \"#utility.yul\":266:272   */\n      dup5\n        /* \"#utility.yul\":261:264   */\n      dup5\n        /* \"#utility.yul\":257:273   */\n      add\n        /* \"#utility.yul\":254:279   */\n      gt\n        /* \"#utility.yul\":251:363   */\n      iszero\n      tag_51\n      jumpi\n        /* \"#utility.yul\":282:361   */\n      tag_52\n      tag_53\n      jump\t// in\n    tag_52:\n        /* \"#utility.yul\":251:363   */\n    tag_51:\n        /* \"#utility.yul\":372:413   */\n      tag_54\n        /* \"#utility.yul\":406:412   */\n      dup5\n        /* \"#utility.yul\":401:404   */\n      dup3\n        /* \"#utility.yul\":396:399   */\n      dup6\n        /* \"#utility.yul\":372:413   */\n      tag_55\n      jump\t// in\n    tag_54:\n        /* \"#utility.yul\":91:419   */\n      pop\n        /* \"#utility.yul\":7:419   */\n      swap4\n      swap3\n      pop\n      pop\n      pop\n      jump\t// out\n        /* \"#utility.yul\":425:580   */\n    tag_56:\n        /* \"#utility.yul\":479:484   */\n      0x00\n        /* \"#utility.yul\":517:523   */\n      dup2\n        /* \"#utility.yul\":504:524   */\n      calldataload\n        /* \"#utility.yul\":495:524   */\n      swap1\n      pop\n        /* \"#utility.yul\":533:574   */\n      tag_58\n        /* \"#utility.yul\":568:573   */\n      dup2\n        /* \"#utility.yul\":533:574   */\n      tag_59\n      jump\t// in\n    tag_58:\n        /* \"#utility.yul\":425:580   */\n      swap3\n      swap2\n      pop\n      pop\n      jump\t// out\n        /* \"#utility.yul\":600:940   */\n    tag_60:\n        /* \"#utility.yul\":656:661   */\n      0x00\n        /* \"#utility.yul\":705:708   */\n      dup3\n        /* \"#utility.yul\":698:702   */\n      0x1f\n        /* \"#utility.yul\":690:696   */\n      dup4\n        /* \"#utility.yul\":686:703   */\n      add\n        /* \"#utility.yul\":682:709   */\n      slt\n        /* \"#utility.yul\":672:794   */\n      tag_62\n      jumpi\n        /* \"#utility.yul\":713:792   */\n      tag_63\n      tag_64\n      jump\t// in\n    tag_63:\n        /* \"#utility.yul\":672:794   */\n    tag_62:\n        /* \"#utility.yul\":830:836   */\n      dup2\n        /* \"#utility.yul\":817:837   */\n      calldataload\n        /* \"#utility.yul\":855:934   */\n      tag_65\n        /* \"#utility.yul\":930:933   */\n      dup5\n        /* \"#utility.yul\":922:928   */\n      dup3\n        /* \"#utility.yul\":915:919   */\n      0x20\n        /* \"#utility.yul\":907:913   */\n      dup7\n        /* \"#utility.yul\":903:920   */\n      add\n        /* \"#utility.yul\":855:934   */\n      tag_45\n      jump\t// in\n    tag_65:\n        /* \"#utility.yul\":846:934   */\n      swap2\n      pop\n        /* \"#utility.yul\":662:940   */\n      pop\n        /* \"#utility.yul\":600:940   */\n      swap3\n      swap2\n      pop\n      pop\n      jump\t// out\n        /* \"#utility.yul\":946:1291   */\n    tag_18:\n        /* \"#utility.yul\":1013:1019   */\n      0x00\n        /* \"#utility.yul\":1062:1064   */\n      0x20\n        /* \"#utility.yul\":1050:1059   */\n      dup3\n        /* \"#utility.yul\":1041:1048   */\n      dup5\n        /* \"#utility.yul\":1037:1060   */\n      sub\n        /* \"#utility.yul\":1033:1065   */\n      slt\n        /* \"#utility.yul\":1030:1149   */\n      iszero\n      tag_67\n      jumpi\n        /* \"#utility.yul\":1068:1147   */\n      tag_68\n      tag_69\n      jump\t// in\n    tag_68:\n        /* \"#utility.yul\":1030:1149   */\n    tag_67:\n        /* \"#utility.yul\":1188:1189   */\n      0x00\n        /* \"#utility.yul\":1213:1274   */\n      tag_70\n        /* \"#utility.yul\":1266:1273   */\n      dup5\n        /* \"#utility.yul\":1257:1263   */\n      dup3\n        /* \"#utility.yul\":1246:1255   */\n      dup6\n        /* \"#utility.yul\":1242:1264   */\n      add\n        /* \"#utility.yul\":1213:1274   */\n      tag_56\n      jump\t// in\n    tag_70:\n        /* \"#utility.yul\":1203:1274   */\n      swap2\n      pop\n        /* \"#utility.yul\":1159:1284   */\n      pop\n        /* \"#utility.yul\":946:1291   */\n      swap3\n      swap2\n      pop\n      pop\n      jump\t// out\n        /* \"#utility.yul\":1297:1806   */\n    tag_8:\n        /* \"#utility.yul\":1366:1372   */\n      0x00\n        /* \"#utility.yul\":1415:1417   */\n      0x20\n        /* \"#utility.yul\":1403:1412   */\n      dup3\n        /* \"#utility.yul\":1394:1401   */\n      dup5\n        /* \"#utility.yul\":1390:1413   */\n      sub\n        /* \"#utility.yul\":1386:1418   */\n      slt\n        /* \"#utility.yul\":1383:1502   */\n      iszero\n      tag_72\n      jumpi\n        /* \"#utility.yul\":1421:1500   */\n      tag_73\n      tag_69\n      jump\t// in\n    tag_73:\n        /* \"#utility.yul\":1383:1502   */\n    tag_72:\n        /* \"#utility.yul\":1569:1570   */\n      0x00\n        /* \"#utility.yul\":1558:1567   */\n      dup3\n        /* \"#utility.yul\":1554:1571   */\n      add\n        /* \"#utility.yul\":1541:1572   */\n      calldataload\n        /* \"#utility.yul\":1599:1617   */\n      0xffffffffffffffff\n        /* \"#utility.yul\":1591:1597   */\n      dup2\n        /* \"#utility.yul\":1588:1618   */\n      gt\n        /* \"#utility.yul\":1585:1702   */\n      iszero\n      tag_74\n      jumpi\n        /* \"#utility.yul\":1621:1700   */\n      tag_75\n      tag_76\n      jump\t// in\n    tag_75:\n        /* \"#utility.yul\":1585:1702   */\n    tag_74:\n        /* \"#utility.yul\":1726:1789   */\n      tag_77\n        /* \"#utility.yul\":1781:1788   */\n      dup5\n        /* \"#utility.yul\":1772:1778   */\n      dup3\n        /* \"#utility.yul\":1761:1770   */\n      dup6\n        /* \"#utility.yul\":1757:1779   */\n      add\n        /* \"#utility.yul\":1726:1789   */\n      tag_60\n      jump\t// in\n    tag_77:\n        /* \"#utility.yul\":1716:1789   */\n      swap2\n      pop\n        /* \"#utility.yul\":1512:1799   */\n      pop\n        /* \"#utility.yul\":1297:1806   */\n      swap3\n      swap2\n      pop\n      pop\n      jump\t// out\n        /* \"#utility.yul\":1812:1921   */\n    tag_78:\n        /* \"#utility.yul\":1893:1914   */\n      tag_80\n        /* \"#utility.yul\":1908:1913   */\n      dup2\n        /* \"#utility.yul\":1893:1914   */\n      tag_81\n      jump\t// in\n    tag_80:\n        /* \"#utility.yul\":1888:1891   */\n      dup3\n        /* \"#utility.yul\":1881:1915   */\n      mstore\n        /* \"#utility.yul\":1812:1921   */\n      pop\n      pop\n      jump\t// out\n        /* \"#utility.yul\":1927:2291   */\n    tag_82:\n        /* \"#utility.yul\":2015:2018   */\n      0x00\n        /* \"#utility.yul\":2043:2082   */\n      tag_84\n        /* \"#utility.yul\":2076:2081   */\n      dup3\n        /* \"#utility.yul\":2043:2082   */\n      tag_85\n      jump\t// in\n    tag_84:\n        /* \"#utility.yul\":2098:2169   */\n      tag_86\n        /* \"#utility.yul\":2162:2168   */\n      dup2\n        /* \"#utility.yul\":2157:2160   */\n      dup6\n        /* \"#utility.yul\":2098:2169   */\n      tag_87\n      jump\t// in\n    tag_86:\n        /* \"#utility.yul\":2091:2169   */\n      swap4\n      pop\n        /* \"#utility.yul\":2178:2230   */\n      tag_88\n        /* \"#utility.yul\":2223:2229   */\n      dup2\n        /* \"#utility.yul\":2218:2221   */\n      dup6\n        /* \"#utility.yul\":2211:2215   */\n      0x20\n        /* \"#utility.yul\":2204:2209   */\n      dup7\n        /* \"#utility.yul\":2200:2216   */\n      add\n        /* \"#utility.yul\":2178:2230   */\n      tag_89\n      jump\t// in\n    tag_88:\n        /* \"#utility.yul\":2255:2284   */\n      tag_90\n        /* \"#utility.yul\":2277:2283   */\n      dup2\n        /* \"#utility.yul\":2255:2284   */\n      tag_91\n      jump\t// in\n    tag_90:\n        /* \"#utility.yul\":2250:2253   */\n      dup5\n        /* \"#utility.yul\":2246:2285   */\n      add\n        /* \"#utility.yul\":2239:2285   */\n      swap2\n      pop\n        /* \"#utility.yul\":2019:2291   */\n      pop\n        /* \"#utility.yul\":1927:2291   */\n      swap3\n      swap2\n      pop\n      pop\n      jump\t// out\n        /* \"#utility.yul\":2297:2507   */\n    tag_15:\n        /* \"#utility.yul\":2384:2388   */\n      0x00\n        /* \"#utility.yul\":2422:2424   */\n      0x20\n        /* \"#utility.yul\":2411:2420   */\n      dup3\n        /* \"#utility.yul\":2407:2425   */\n      add\n        /* \"#utility.yul\":2399:2425   */\n      swap1\n      pop\n        /* \"#utility.yul\":2435:2500   */\n      tag_93\n        /* \"#utility.yul\":2497:2498   */\n      0x00\n        /* \"#utility.yul\":2486:2495   */\n      dup4\n        /* \"#utility.yul\":2482:2499   */\n      add\n        /* \"#utility.yul\":2473:2479   */\n      dup5\n        /* \"#utility.yul\":2435:2500   */\n      tag_78\n      jump\t// in\n    tag_93:\n        /* \"#utility.yul\":2297:2507   */\n      swap3\n      swap2\n      pop\n      pop\n      jump\t// out\n        /* \"#utility.yul\":2513:2826   */\n    tag_11:\n        /* \"#utility.yul\":2626:2630   */\n      0x00\n        /* \"#utility.yul\":2664:2666   */\n      0x20\n        /* \"#utility.yul\":2653:2662   */\n      dup3\n        /* \"#utility.yul\":2649:2667   */\n      add\n        /* \"#utility.yul\":2641:2667   */\n      swap1\n      pop\n        /* \"#utility.yul\":2713:2722   */\n      dup2\n        /* \"#utility.yul\":2707:2711   */\n      dup2\n        /* \"#utility.yul\":2703:2723   */\n      sub\n        /* \"#utility.yul\":2699:2700   */\n      0x00\n        /* \"#utility.yul\":2688:2697   */\n      dup4\n        /* \"#utility.yul\":2684:2701   */\n      add\n        /* \"#utility.yul\":2677:2724   */\n      mstore\n        /* \"#utility.yul\":2741:2819   */\n      tag_95\n        /* \"#utility.yul\":2814:2818   */\n      dup2\n        /* \"#utility.yul\":2805:2811   */\n      dup5\n        /* \"#utility.yul\":2741:2819   */\n      tag_82\n      jump\t// in\n    tag_95:\n        /* \"#utility.yul\":2733:2819   */\n      swap1\n      pop\n        /* \"#utility.yul\":2513:2826   */\n      swap3\n      swap2\n      pop\n      pop\n      jump\t// out\n        /* \"#utility.yul\":2832:2961   */\n    tag_50:\n        /* \"#utility.yul\":2866:2872   */\n      0x00\n        /* \"#utility.yul\":2893:2913   */\n      tag_97\n      tag_98\n      jump\t// in\n    tag_97:\n        /* \"#utility.yul\":2883:2913   */\n      swap1\n      pop\n        /* \"#utility.yul\":2922:2955   */\n      tag_99\n        /* \"#utility.yul\":2950:2954   */\n      dup3\n        /* \"#utility.yul\":2942:2948   */\n      dup3\n        /* \"#utility.yul\":2922:2955   */\n      tag_100\n      jump\t// in\n    tag_99:\n        /* \"#utility.yul\":2832:2961   */\n      swap2\n      swap1\n      pop\n      jump\t// out\n        /* \"#utility.yul\":2967:3042   */\n    tag_98:\n        /* \"#utility.yul\":3000:3006   */\n      0x00\n        /* \"#utility.yul\":3033:3035   */\n      0x40\n        /* \"#utility.yul\":3027:3036   */\n      mload\n        /* \"#utility.yul\":3017:3036   */\n      swap1\n      pop\n        /* \"#utility.yul\":2967:3042   */\n      swap1\n      jump\t// out\n        /* \"#utility.yul\":3048:3356   */\n    tag_49:\n        /* \"#utility.yul\":3110:3114   */\n      0x00\n        /* \"#utility.yul\":3200:3218   */\n      0xffffffffffffffff\n        /* \"#utility.yul\":3192:3198   */\n      dup3\n        /* \"#utility.yul\":3189:3219   */\n      gt\n        /* \"#utility.yul\":3186:3242   */\n      iszero\n      tag_103\n      jumpi\n        /* \"#utility.yul\":3222:3240   */\n      tag_104\n      tag_105\n      jump\t// in\n    tag_104:\n        /* \"#utility.yul\":3186:3242   */\n    tag_103:\n        /* \"#utility.yul\":3260:3289   */\n      tag_106\n        /* \"#utility.yul\":3282:3288   */\n      dup3\n        /* \"#utility.yul\":3260:3289   */\n      tag_91\n      jump\t// in\n    tag_106:\n        /* \"#utility.yul\":3252:3289   */\n      swap1\n      pop\n        /* \"#utility.yul\":3344:3348   */\n      0x20\n        /* \"#utility.yul\":3338:3342   */\n      dup2\n        /* \"#utility.yul\":3334:3349   */\n      add\n        /* \"#utility.yul\":3326:3349   */\n      swap1\n      pop\n        /* \"#utility.yul\":3048:3356   */\n      swap2\n      swap1\n      pop\n      jump\t// out\n        /* \"#utility.yul\":3362:3461   */\n    tag_85:\n        /* \"#utility.yul\":3414:3420   */\n      0x00\n        /* \"#utility.yul\":3448:3453   */\n      dup2\n        /* \"#utility.yul\":3442:3454   */\n      mload\n        /* \"#utility.yul\":3432:3454   */\n      swap1\n      pop\n        /* \"#utility.yul\":3362:3461   */\n      swap2\n      swap1\n      pop\n      jump\t// out\n        /* \"#utility.yul\":3467:3636   */\n    tag_87:\n        /* \"#utility.yul\":3551:3562   */\n      0x00\n        /* \"#utility.yul\":3585:3591   */\n      dup3\n        /* \"#utility.yul\":3580:3583   */\n      dup3\n        /* \"#utility.yul\":3573:3592   */\n      mstore\n        /* \"#utility.yul\":3625:3629   */\n      0x20\n        /* \"#utility.yul\":3620:3623   */\n      dup3\n        /* \"#utility.yul\":3616:3630   */\n      add\n        /* \"#utility.yul\":3601:3630   */\n      swap1\n      pop\n        /* \"#utility.yul\":3467:3636   */\n      swap3\n      swap2\n      pop\n      pop\n      jump\t// out\n        /* \"#utility.yul\":3642:3746   */\n    tag_109:\n        /* \"#utility.yul\":3687:3694   */\n      0x00\n        /* \"#utility.yul\":3716:3740   */\n      tag_111\n        /* \"#utility.yul\":3734:3739   */\n      dup3\n        /* \"#utility.yul\":3716:3740   */\n      tag_112\n      jump\t// in\n    tag_111:\n        /* \"#utility.yul\":3705:3740   */\n      swap1\n      pop\n        /* \"#utility.yul\":3642:3746   */\n      swap2\n      swap1\n      pop\n      jump\t// out\n        /* \"#utility.yul\":3752:3842   */\n    tag_81:\n        /* \"#utility.yul\":3786:3793   */\n      0x00\n        /* \"#utility.yul\":3829:3834   */\n      dup2\n        /* \"#utility.yul\":3822:3835   */\n      iszero\n        /* \"#utility.yul\":3815:3836   */\n      iszero\n        /* \"#utility.yul\":3804:3836   */\n      swap1\n      pop\n        /* \"#utility.yul\":3752:3842   */\n      swap2\n      swap1\n      pop\n      jump\t// out\n        /* \"#utility.yul\":3848:3974   */\n    tag_112:\n        /* \"#utility.yul\":3885:3892   */\n      0x00\n        /* \"#utility.yul\":3925:3967   */\n      0xffffffffffffffffffffffffffffffffffffffff\n        /* \"#utility.yul\":3918:3923   */\n      dup3\n        /* \"#utility.yul\":3914:3968   */\n      and\n        /* \"#utility.yul\":3903:3968   */\n      swap1\n      pop\n        /* \"#utility.yul\":3848:3974   */\n      swap2\n      swap1\n      pop\n      jump\t// out\n        /* \"#utility.yul\":3980:4134   */\n    tag_55:\n        /* \"#utility.yul\":4064:4070   */\n      dup3\n        /* \"#utility.yul\":4059:4062   */\n      dup2\n        /* \"#utility.yul\":4054:4057   */\n      dup4\n        /* \"#utility.yul\":4041:4071   */\n      calldatacopy\n        /* \"#utility.yul\":4126:4127   */\n      0x00\n        /* \"#utility.yul\":4117:4123   */\n      dup4\n        /* \"#utility.yul\":4112:4115   */\n      dup4\n        /* \"#utility.yul\":4108:4124   */\n      add\n        /* \"#utility.yul\":4101:4128   */\n      mstore\n        /* \"#utility.yul\":3980:4134   */\n      pop\n      pop\n      pop\n      jump\t// out\n        /* \"#utility.yul\":4140:4447   */\n    tag_89:\n        /* \"#utility.yul\":4208:4209   */\n      0x00\n        /* \"#utility.yul\":4218:4331   */\n    tag_117:\n        /* \"#utility.yul\":4232:4238   */\n      dup4\n        /* \"#utility.yul\":4229:4230   */\n      dup2\n        /* \"#utility.yul\":4226:4239   */\n      lt\n        /* \"#utility.yul\":4218:4331   */\n      iszero\n      tag_119\n      jumpi\n        /* \"#utility.yul\":4317:4318   */\n      dup1\n        /* \"#utility.yul\":4312:4315   */\n      dup3\n        /* \"#utility.yul\":4308:4319   */\n      add\n        /* \"#utility.yul\":4302:4320   */\n      mload\n        /* \"#utility.yul\":4298:4299   */\n      dup2\n        /* \"#utility.yul\":4293:4296   */\n      dup5\n        /* \"#utility.yul\":4289:4300   */\n      add\n        /* \"#utility.yul\":4282:4321   */\n      mstore\n        /* \"#utility.yul\":4254:4256   */\n      0x20\n        /* \"#utility.yul\":4251:4252   */\n      dup2\n        /* \"#utility.yul\":4247:4257   */\n      add\n        /* \"#utility.yul\":4242:4257   */\n      swap1\n      pop\n        /* \"#utility.yul\":4218:4331   */\n      jump(tag_117)\n    tag_119:\n        /* \"#utility.yul\":4349:4355   */\n      dup4\n        /* \"#utility.yul\":4346:4347   */\n      dup2\n        /* \"#utility.yul\":4343:4356   */\n      gt\n        /* \"#utility.yul\":4340:4441   */\n      iszero\n      tag_120\n      jumpi\n        /* \"#utility.yul\":4429:4430   */\n      0x00\n        /* \"#utility.yul\":4420:4426   */\n      dup5\n        /* \"#utility.yul\":4415:4418   */\n      dup5\n        /* \"#utility.yul\":4411:4427   */\n      add\n        /* \"#utility.yul\":4404:4431   */\n      mstore\n        /* \"#utility.yul\":4340:4441   */\n    tag_120:\n        /* \"#utility.yul\":4189:4447   */\n      pop\n        /* \"#utility.yul\":4140:4447   */\n      pop\n      pop\n      pop\n      jump\t// out\n        /* \"#utility.yul\":4453:4773   */\n    tag_34:\n        /* \"#utility.yul\":4497:4503   */\n      0x00\n        /* \"#utility.yul\":4534:4535   */\n      0x02\n        /* \"#utility.yul\":4528:4532   */\n      dup3\n        /* \"#utility.yul\":4524:4536   */\n      div\n        /* \"#utility.yul\":4514:4536   */\n      swap1\n      pop\n        /* \"#utility.yul\":4581:4582   */\n      0x01\n        /* \"#utility.yul\":4575:4579   */\n      dup3\n        /* \"#utility.yul\":4571:4583   */\n      and\n        /* \"#utility.yul\":4602:4620   */\n      dup1\n        /* \"#utility.yul\":4592:4673   */\n      tag_122\n      jumpi\n        /* \"#utility.yul\":4658:4662   */\n      0x7f\n        /* \"#utility.yul\":4650:4656   */\n      dup3\n        /* \"#utility.yul\":4646:4663   */\n      and\n        /* \"#utility.yul\":4636:4663   */\n      swap2\n      pop\n        /* \"#utility.yul\":4592:4673   */\n    tag_122:\n        /* \"#utility.yul\":4720:4722   */\n      0x20\n        /* \"#utility.yul\":4712:4718   */\n      dup3\n        /* \"#utility.yul\":4709:4723   */\n      lt\n        /* \"#utility.yul\":4689:4707   */\n      dup2\n        /* \"#utility.yul\":4686:4724   */\n      eq\n        /* \"#utility.yul\":4683:4767   */\n      iszero\n      tag_123\n      jumpi\n        /* \"#utility.yul\":4739:4757   */\n      tag_124\n      tag_125\n      jump\t// in\n    tag_124:\n        /* \"#utility.yul\":4683:4767   */\n    tag_123:\n        /* \"#utility.yul\":4504:4773   */\n      pop\n        /* \"#utility.yul\":4453:4773   */\n      swap2\n      swap1\n      pop\n      jump\t// out\n        /* \"#utility.yul\":4779:5060   */\n    tag_100:\n        /* \"#utility.yul\":4862:4889   */\n      tag_127\n        /* \"#utility.yul\":4884:4888   */\n      dup3\n        /* \"#utility.yul\":4862:4889   */\n      tag_91\n      jump\t// in\n    tag_127:\n        /* \"#utility.yul\":4854:4860   */\n      dup2\n        /* \"#utility.yul\":4850:4890   */\n      add\n        /* \"#utility.yul\":4992:4998   */\n      dup2\n        /* \"#utility.yul\":4980:4990   */\n      dup2\n        /* \"#utility.yul\":4977:4999   */\n      lt\n        /* \"#utility.yul\":4956:4974   */\n      0xffffffffffffffff\n        /* \"#utility.yul\":4944:4954   */\n      dup3\n        /* \"#utility.yul\":4941:4975   */\n      gt\n        /* \"#utility.yul\":4938:5000   */\n      or\n        /* \"#utility.yul\":4935:5023   */\n      iszero\n      tag_128\n      jumpi\n        /* \"#utility.yul\":5003:5021   */\n      tag_129\n      tag_105\n      jump\t// in\n    tag_129:\n        /* \"#utility.yul\":4935:5023   */\n    tag_128:\n        /* \"#utility.yul\":5043:5053   */\n      dup1\n        /* \"#utility.yul\":5039:5041   */\n      0x40\n        /* \"#utility.yul\":5032:5054   */\n      mstore\n        /* \"#utility.yul\":4822:5060   */\n      pop\n        /* \"#utility.yul\":4779:5060   */\n      pop\n      pop\n      jump\t// out\n        /* \"#utility.yul\":5066:5246   */\n    tag_125:\n        /* \"#utility.yul\":5114:5191   */\n      0x4e487b7100000000000000000000000000000000000000000000000000000000\n        /* \"#utility.yul\":5111:5112   */\n      0x00\n        /* \"#utility.yul\":5104:5192   */\n      mstore\n        /* \"#utility.yul\":5211:5215   */\n      0x22\n        /* \"#utility.yul\":5208:5209   */\n      0x04\n        /* \"#utility.yul\":5201:5216   */\n      mstore\n        /* \"#utility.yul\":5235:5239   */\n      0x24\n        /* \"#utility.yul\":5232:5233   */\n      0x00\n        /* \"#utility.yul\":5225:5240   */\n      revert\n        /* \"#utility.yul\":5252:5432   */\n    tag_105:\n        /* \"#utility.yul\":5300:5377   */\n      0x4e487b7100000000000000000000000000000000000000000000000000000000\n        /* \"#utility.yul\":5297:5298   */\n      0x00\n        /* \"#utility.yul\":5290:5378   */\n      mstore\n        /* \"#utility.yul\":5397:5401   */\n      0x41\n        /* \"#utility.yul\":5394:5395   */\n      0x04\n        /* \"#utility.yul\":5387:5402   */\n      mstore\n        /* \"#utility.yul\":5421:5425   */\n      0x24\n        /* \"#utility.yul\":5418:5419   */\n      0x00\n        /* \"#utility.yul\":5411:5426   */\n      revert\n        /* \"#utility.yul\":5438:5555   */\n    tag_64:\n        /* \"#utility.yul\":5547:5548   */\n      0x00\n        /* \"#utility.yul\":5544:5545   */\n      dup1\n        /* \"#utility.yul\":5537:5549   */\n      revert\n        /* \"#utility.yul\":5561:5678   */\n    tag_53:\n        /* \"#utility.yul\":5670:5671   */\n      0x00\n        /* \"#utility.yul\":5667:5668   */\n      dup1\n        /* \"#utility.yul\":5660:5672   */\n      revert\n        /* \"#utility.yul\":5684:5801   */\n    tag_76:\n        /* \"#utility.yul\":5793:5794   */\n      0x00\n        /* \"#utility.yul\":5790:5791   */\n      dup1\n        /* \"#utility.yul\":5783:5795   */\n      revert\n        /* \"#utility.yul\":5807:5924   */\n    tag_69:\n        /* \"#utility.yul\":5916:5917   */\n      0x00\n        /* \"#utility.yul\":5913:5914   */\n      dup1\n        /* \"#utility.yul\":5906:5918   */\n      revert\n        /* \"#utility.yul\":5930:6032   */\n    tag_91:\n        /* \"#utility.yul\":5971:5977   */\n      0x00\n        /* \"#utility.yul\":6022:6024   */\n      0x1f\n        /* \"#utility.yul\":6018:6025   */\n      not\n        /* \"#utility.yul\":6013:6015   */\n      0x1f\n        /* \"#utility.yul\":6006:6011   */\n      dup4\n        /* \"#utility.yul\":6002:6016   */\n      add\n        /* \"#utility.yul\":5998:6026   */\n      and\n        /* \"#utility.yul\":5988:6026   */\n      swap1\n      pop\n        /* \"#utility.yul\":5930:6032   */\n      swap2\n      swap1\n      pop\n      jump\t// out\n        /* \"#utility.yul\":6038:6176   */\n    tag_59:\n        /* \"#utility.yul\":6119:6151   */\n      tag_138\n        /* \"#utility.yul\":6145:6150   */\n      dup2\n        /* \"#utility.yul\":6119:6151   */\n      tag_109\n      jump\t// in\n    tag_138:\n        /* \"#utility.yul\":6112:6117   */\n      dup2\n        /* \"#utility.yul\":6109:6152   */\n      eq\n        /* \"#utility.yul\":6099:6170   */\n      tag_139\n      jumpi\n        /* \"#utility.yul\":6166:6167   */\n      0x00\n        /* \"#utility.yul\":6163:6164   */\n      dup1\n        /* \"#utility.yul\":6156:6168   */\n      revert\n        /* \"#utility.yul\":6099:6170   */\n    tag_139:\n        /* \"#utility.yul\":6038:6176   */\n      pop\n      jump\t// out\n\n    auxdata: 0xa2646970667358221220311fee56401e7fb3e79d06b3fbea9edd5a89672f1c605d62f0a1e0516a24cff264736f6c63430008070033\n}\n",
				"bytecode": {
					"linkReferences": {},
					"object": "608060405234801561001057600080fd5b5033600260006101000a81548173ffffffffffffffffffffffffffffffffffffffff021916908373ffffffffffffffffffffffffffffffffffffffff160217905550610831806100616000396000f3fe608060405234801561001057600080fd5b50600436106100415760003560e01c80633158776f1461004657806373e69a1814610076578063fc4433b114610094575b600080fd5b610060600480360381019061005b919061053e565b6100c4565b60405161006d91906105ea565b60405180910390f35b61007e610308565b60405161008b91906105cf565b60405180910390f35b6100ae60048036038101906100a99190610511565b610394565b6040516100bb91906105cf565b60405180910390f35b6060600260009054906101000a900473ffffffffffffffffffffffffffffffffffffffff1673ffffffffffffffffffffffffffffffffffffffff163373ffffffffffffffffffffffffffffffffffffffff161461012057600080fd5b61014b600260009054906101000a900473ffffffffffffffffffffffffffffffffffffffff16610394565b61018c576040518060400160405280600b81526020017f55736572206578697374210000000000000000000000000000000000000000008152509050610303565b6040518060600160405280838152602001600260009054906101000a900473ffffffffffffffffffffffffffffffffffffffff1673ffffffffffffffffffffffffffffffffffffffff1681526020016001151581525060016000600260009054906101000a900473ffffffffffffffffffffffffffffffffffffffff1673ffffffffffffffffffffffffffffffffffffffff1673ffffffffffffffffffffffffffffffffffffffff168152602001908152602001600020600082015181600001908051906020019061025f9291906103e9565b5060208201518160010160006101000a81548173ffffffffffffffffffffffffffffffffffffffff021916908373ffffffffffffffffffffffffffffffffffffffff16021790555060408201518160010160146101000a81548160ff0219169083151502179055509050506040518060400160405280600f81526020017f557365722072656769737465726564000000000000000000000000000000000081525090505b919050565b6000600260009054906101000a900473ffffffffffffffffffffffffffffffffffffffff1673ffffffffffffffffffffffffffffffffffffffff163373ffffffffffffffffffffffffffffffffffffffff161461036457600080fd5b61038f600260009054906101000a900473ffffffffffffffffffffffffffffffffffffffff16610394565b905090565b6000600160008373ffffffffffffffffffffffffffffffffffffffff1673ffffffffffffffffffffffffffffffffffffffff16815260200190815260200160002060010160149054906101000a905050919050565b8280546103f5906106fe565b90600052602060002090601f016020900481019282610417576000855561045e565b82601f1061043057805160ff191683800117855561045e565b8280016001018555821561045e579182015b8281111561045d578251825591602001919060010190610442565b5b50905061046b919061046f565b5090565b5b80821115610488576000816000905550600101610470565b5090565b600061049f61049a84610631565b61060c565b9050828152602081018484840111156104bb576104ba6107c4565b5b6104c68482856106bc565b509392505050565b6000813590506104dd816107e4565b92915050565b600082601f8301126104f8576104f76107bf565b5b813561050884826020860161048c565b91505092915050565b600060208284031215610527576105266107ce565b5b6000610535848285016104ce565b91505092915050565b600060208284031215610554576105536107ce565b5b600082013567ffffffffffffffff811115610572576105716107c9565b5b61057e848285016104e3565b91505092915050565b61059081610690565b82525050565b60006105a182610662565b6105ab818561066d565b93506105bb8185602086016106cb565b6105c4816107d3565b840191505092915050565b60006020820190506105e46000830184610587565b92915050565b600060208201905081810360008301526106048184610596565b905092915050565b6000610616610627565b90506106228282610730565b919050565b6000604051905090565b600067ffffffffffffffff82111561064c5761064b610790565b5b610655826107d3565b9050602081019050919050565b600081519050919050565b600082825260208201905092915050565b60006106898261069c565b9050919050565b60008115159050919050565b600073ffffffffffffffffffffffffffffffffffffffff82169050919050565b82818337600083830152505050565b60005b838110156106e95780820151818401526020810190506106ce565b838111156106f8576000848401525b50505050565b6000600282049050600182168061071657607f821691505b6020821081141561072a57610729610761565b5b50919050565b610739826107d3565b810181811067ffffffffffffffff8211171561075857610757610790565b5b80604052505050565b7f4e487b7100000000000000000000000000000000000000000000000000000000600052602260045260246000fd5b7f4e487b7100000000000000000000000000000000000000000000000000000000600052604160045260246000fd5b600080fd5b600080fd5b600080fd5b600080fd5b6000601f19601f8301169050919050565b6107ed8161067e565b81146107f857600080fd5b5056fea2646970667358221220311fee56401e7fb3e79d06b3fbea9edd5a89672f1c605d62f0a1e0516a24cff264736f6c63430008070033",
					"opcodes": "PUSH1 0x80 PUSH1 0x40 MSTORE CALLVALUE DUP1 ISZERO PUSH2 0x10 JUMPI PUSH1 0x0 DUP1 REVERT JUMPDEST POP CALLER PUSH1 0x2 PUSH1 0x0 PUSH2 0x100 EXP DUP2 SLOAD DUP2 PUSH20 0xFFFFFFFFFFFFFFFFFFFFFFFFFFFFFFFFFFFFFFFF MUL NOT AND SWAP1 DUP4 PUSH20 0xFFFFFFFFFFFFFFFFFFFFFFFFFFFFFFFFFFFFFFFF AND MUL OR SWAP1 SSTORE POP PUSH2 0x831 DUP1 PUSH2 0x61 PUSH1 0x0 CODECOPY PUSH1 0x0 RETURN INVALID PUSH1 0x80 PUSH1 0x40 MSTORE CALLVALUE DUP1 ISZERO PUSH2 0x10 JUMPI PUSH1 0x0 DUP1 REVERT JUMPDEST POP PUSH1 0x4 CALLDATASIZE LT PUSH2 0x41 JUMPI PUSH1 0x0 CALLDATALOAD PUSH1 0xE0 SHR DUP1 PUSH4 0x3158776F EQ PUSH2 0x46 JUMPI DUP1 PUSH4 0x73E69A18 EQ PUSH2 0x76 JUMPI DUP1 PUSH4 0xFC4433B1 EQ PUSH2 0x94 JUMPI JUMPDEST PUSH1 0x0 DUP1 REVERT JUMPDEST PUSH2 0x60 PUSH1 0x4 DUP1 CALLDATASIZE SUB DUP2 ADD SWAP1 PUSH2 0x5B SWAP2 SWAP1 PUSH2 0x53E JUMP JUMPDEST PUSH2 0xC4 JUMP JUMPDEST PUSH1 0x40 MLOAD PUSH2 0x6D SWAP2 SWAP1 PUSH2 0x5EA JUMP JUMPDEST PUSH1 0x40 MLOAD DUP1 SWAP2 SUB SWAP1 RETURN JUMPDEST PUSH2 0x7E PUSH2 0x308 JUMP JUMPDEST PUSH1 0x40 MLOAD PUSH2 0x8B SWAP2 SWAP1 PUSH2 0x5CF JUMP JUMPDEST PUSH1 0x40 MLOAD DUP1 SWAP2 SUB SWAP1 RETURN JUMPDEST PUSH2 0xAE PUSH1 0x4 DUP1 CALLDATASIZE SUB DUP2 ADD SWAP1 PUSH2 0xA9 SWAP2 SWAP1 PUSH2 0x511 JUMP JUMPDEST PUSH2 0x394 JUMP JUMPDEST PUSH1 0x40 MLOAD PUSH2 0xBB SWAP2 SWAP1 PUSH2 0x5CF JUMP JUMPDEST PUSH1 0x40 MLOAD DUP1 SWAP2 SUB SWAP1 RETURN JUMPDEST PUSH1 0x60 PUSH1 0x2 PUSH1 0x0 SWAP1 SLOAD SWAP1 PUSH2 0x100 EXP SWAP1 DIV PUSH20 0xFFFFFFFFFFFFFFFFFFFFFFFFFFFFFFFFFFFFFFFF AND PUSH20 0xFFFFFFFFFFFFFFFFFFFFFFFFFFFFFFFFFFFFFFFF AND CALLER PUSH20 0xFFFFFFFFFFFFFFFFFFFFFFFFFFFFFFFFFFFFFFFF AND EQ PUSH2 0x120 JUMPI PUSH1 0x0 DUP1 REVERT JUMPDEST PUSH2 0x14B PUSH1 0x2 PUSH1 0x0 SWAP1 SLOAD SWAP1 PUSH2 0x100 EXP SWAP1 DIV PUSH20 0xFFFFFFFFFFFFFFFFFFFFFFFFFFFFFFFFFFFFFFFF AND PUSH2 0x394 JUMP JUMPDEST PUSH2 0x18C JUMPI PUSH1 0x40 MLOAD DUP1 PUSH1 0x40 ADD PUSH1 0x40 MSTORE DUP1 PUSH1 0xB DUP2 MSTORE PUSH1 0x20 ADD PUSH32 0x5573657220657869737421000000000000000000000000000000000000000000 DUP2 MSTORE POP SWAP1 POP PUSH2 0x303 JUMP JUMPDEST PUSH1 0x40 MLOAD DUP1 PUSH1 0x60 ADD PUSH1 0x40 MSTORE DUP1 DUP4 DUP2 MSTORE PUSH1 0x20 ADD PUSH1 0x2 PUSH1 0x0 SWAP1 SLOAD SWAP1 PUSH2 0x100 EXP SWAP1 DIV PUSH20 0xFFFFFFFFFFFFFFFFFFFFFFFFFFFFFFFFFFFFFFFF AND PUSH20 0xFFFFFFFFFFFFFFFFFFFFFFFFFFFFFFFFFFFFFFFF AND DUP2 MSTORE PUSH1 0x20 ADD PUSH1 0x1 ISZERO ISZERO DUP2 MSTORE POP PUSH1 0x1 PUSH1 0x0 PUSH1 0x2 PUSH1 0x0 SWAP1 SLOAD SWAP1 PUSH2 0x100 EXP SWAP1 DIV PUSH20 0xFFFFFFFFFFFFFFFFFFFFFFFFFFFFFFFFFFFFFFFF AND PUSH20 0xFFFFFFFFFFFFFFFFFFFFFFFFFFFFFFFFFFFFFFFF AND PUSH20 0xFFFFFFFFFFFFFFFFFFFFFFFFFFFFFFFFFFFFFFFF AND DUP2 MSTORE PUSH1 0x20 ADD SWAP1 DUP2 MSTORE PUSH1 0x20 ADD PUSH1 0x0 KECCAK256 PUSH1 0x0 DUP3 ADD MLOAD DUP2 PUSH1 0x0 ADD SWAP1 DUP1 MLOAD SWAP1 PUSH1 0x20 ADD SWAP1 PUSH2 0x25F SWAP3 SWAP2 SWAP1 PUSH2 0x3E9 JUMP JUMPDEST POP PUSH1 0x20 DUP3 ADD MLOAD DUP2 PUSH1 0x1 ADD PUSH1 0x0 PUSH2 0x100 EXP DUP2 SLOAD DUP2 PUSH20 0xFFFFFFFFFFFFFFFFFFFFFFFFFFFFFFFFFFFFFFFF MUL NOT AND SWAP1 DUP4 PUSH20 0xFFFFFFFFFFFFFFFFFFFFFFFFFFFFFFFFFFFFFFFF AND MUL OR SWAP1 SSTORE POP PUSH1 0x40 DUP3 ADD MLOAD DUP2 PUSH1 0x1 ADD PUSH1 0x14 PUSH2 0x100 EXP DUP2 SLOAD DUP2 PUSH1 0xFF MUL NOT AND SWAP1 DUP4 ISZERO ISZERO MUL OR SWAP1 SSTORE POP SWAP1 POP POP PUSH1 0x40 MLOAD DUP1 PUSH1 0x40 ADD PUSH1 0x40 MSTORE DUP1 PUSH1 0xF DUP2 MSTORE PUSH1 0x20 ADD PUSH32 0x5573657220726567697374657265640000000000000000000000000000000000 DUP2 MSTORE POP SWAP1 POP JUMPDEST SWAP2 SWAP1 POP JUMP JUMPDEST PUSH1 0x0 PUSH1 0x2 PUSH1 0x0 SWAP1 SLOAD SWAP1 PUSH2 0x100 EXP SWAP1 DIV PUSH20 0xFFFFFFFFFFFFFFFFFFFFFFFFFFFFFFFFFFFFFFFF AND PUSH20 0xFFFFFFFFFFFFFFFFFFFFFFFFFFFFFFFFFFFFFFFF AND CALLER PUSH20 0xFFFFFFFFFFFFFFFFFFFFFFFFFFFFFFFFFFFFFFFF AND EQ PUSH2 0x364 JUMPI PUSH1 0x0 DUP1 REVERT JUMPDEST PUSH2 0x38F PUSH1 0x2 PUSH1 0x0 SWAP1 SLOAD SWAP1 PUSH2 0x100 EXP SWAP1 DIV PUSH20 0xFFFFFFFFFFFFFFFFFFFFFFFFFFFFFFFFFFFFFFFF AND PUSH2 0x394 JUMP JUMPDEST SWAP1 POP SWAP1 JUMP JUMPDEST PUSH1 0x0 PUSH1 0x1 PUSH1 0x0 DUP4 PUSH20 0xFFFFFFFFFFFFFFFFFFFFFFFFFFFFFFFFFFFFFFFF AND PUSH20 0xFFFFFFFFFFFFFFFFFFFFFFFFFFFFFFFFFFFFFFFF AND DUP2 MSTORE PUSH1 0x20 ADD SWAP1 DUP2 MSTORE PUSH1 0x20 ADD PUSH1 0x0 KECCAK256 PUSH1 0x1 ADD PUSH1 0x14 SWAP1 SLOAD SWAP1 PUSH2 0x100 EXP SWAP1 POP POP SWAP2 SWAP1 POP JUMP JUMPDEST DUP3 DUP1 SLOAD PUSH2 0x3F5 SWAP1 PUSH2 0x6FE JUMP JUMPDEST SWAP1 PUSH1 0x0 MSTORE PUSH1 0x20 PUSH1 0x0 KECCAK256 SWAP1 PUSH1 0x1F ADD PUSH1 0x20 SWAP1 DIV DUP2 ADD SWAP3 DUP3 PUSH2 0x417 JUMPI PUSH1 0x0 DUP6 SSTORE PUSH2 0x45E JUMP JUMPDEST DUP3 PUSH1 0x1F LT PUSH2 0x430 JUMPI DUP1 MLOAD PUSH1 0xFF NOT AND DUP4 DUP1 ADD OR DUP6 SSTORE PUSH2 0x45E JUMP JUMPDEST DUP3 DUP1 ADD PUSH1 0x1 ADD DUP6 SSTORE DUP3 ISZERO PUSH2 0x45E JUMPI SWAP2 DUP3 ADD JUMPDEST DUP3 DUP2 GT ISZERO PUSH2 0x45D JUMPI DUP3 MLOAD DUP3 SSTORE SWAP2 PUSH1 0x20 ADD SWAP2 SWAP1 PUSH1 0x1 ADD SWAP1 PUSH2 0x442 JUMP JUMPDEST JUMPDEST POP SWAP1 POP PUSH2 0x46B SWAP2 SWAP1 PUSH2 0x46F JUMP JUMPDEST POP SWAP1 JUMP JUMPDEST JUMPDEST DUP1 DUP3 GT ISZERO PUSH2 0x488 JUMPI PUSH1 0x0 DUP2 PUSH1 0x0 SWAP1 SSTORE POP PUSH1 0x1 ADD PUSH2 0x470 JUMP JUMPDEST POP SWAP1 JUMP JUMPDEST PUSH1 0x0 PUSH2 0x49F PUSH2 0x49A DUP5 PUSH2 0x631 JUMP JUMPDEST PUSH2 0x60C JUMP JUMPDEST SWAP1 POP DUP3 DUP2 MSTORE PUSH1 0x20 DUP2 ADD DUP5 DUP5 DUP5 ADD GT ISZERO PUSH2 0x4BB JUMPI PUSH2 0x4BA PUSH2 0x7C4 JUMP JUMPDEST JUMPDEST PUSH2 0x4C6 DUP5 DUP3 DUP6 PUSH2 0x6BC JUMP JUMPDEST POP SWAP4 SWAP3 POP POP POP JUMP JUMPDEST PUSH1 0x0 DUP2 CALLDATALOAD SWAP1 POP PUSH2 0x4DD DUP2 PUSH2 0x7E4 JUMP JUMPDEST SWAP3 SWAP2 POP POP JUMP JUMPDEST PUSH1 0x0 DUP3 PUSH1 0x1F DUP4 ADD SLT PUSH2 0x4F8 JUMPI PUSH2 0x4F7 PUSH2 0x7BF JUMP JUMPDEST JUMPDEST DUP2 CALLDATALOAD PUSH2 0x508 DUP5 DUP3 PUSH1 0x20 DUP7 ADD PUSH2 0x48C JUMP JUMPDEST SWAP2 POP POP SWAP3 SWAP2 POP POP JUMP JUMPDEST PUSH1 0x0 PUSH1 0x20 DUP3 DUP5 SUB SLT ISZERO PUSH2 0x527 JUMPI PUSH2 0x526 PUSH2 0x7CE JUMP JUMPDEST JUMPDEST PUSH1 0x0 PUSH2 0x535 DUP5 DUP3 DUP6 ADD PUSH2 0x4CE JUMP JUMPDEST SWAP2 POP POP SWAP3 SWAP2 POP POP JUMP JUMPDEST PUSH1 0x0 PUSH1 0x20 DUP3 DUP5 SUB SLT ISZERO PUSH2 0x554 JUMPI PUSH2 0x553 PUSH2 0x7CE JUMP JUMPDEST JUMPDEST PUSH1 0x0 DUP3 ADD CALLDATALOAD PUSH8 0xFFFFFFFFFFFFFFFF DUP2 GT ISZERO PUSH2 0x572 JUMPI PUSH2 0x571 PUSH2 0x7C9 JUMP JUMPDEST JUMPDEST PUSH2 0x57E DUP5 DUP3 DUP6 ADD PUSH2 0x4E3 JUMP JUMPDEST SWAP2 POP POP SWAP3 SWAP2 POP POP JUMP JUMPDEST PUSH2 0x590 DUP2 PUSH2 0x690 JUMP JUMPDEST DUP3 MSTORE POP POP JUMP JUMPDEST PUSH1 0x0 PUSH2 0x5A1 DUP3 PUSH2 0x662 JUMP JUMPDEST PUSH2 0x5AB DUP2 DUP6 PUSH2 0x66D JUMP JUMPDEST SWAP4 POP PUSH2 0x5BB DUP2 DUP6 PUSH1 0x20 DUP7 ADD PUSH2 0x6CB JUMP JUMPDEST PUSH2 0x5C4 DUP2 PUSH2 0x7D3 JUMP JUMPDEST DUP5 ADD SWAP2 POP POP SWAP3 SWAP2 POP POP JUMP JUMPDEST PUSH1 0x0 PUSH1 0x20 DUP3 ADD SWAP1 POP PUSH2 0x5E4 PUSH1 0x0 DUP4 ADD DUP5 PUSH2 0x587 JUMP JUMPDEST SWAP3 SWAP2 POP POP JUMP JUMPDEST PUSH1 0x0 PUSH1 0x20 DUP3 ADD SWAP1 POP DUP2 DUP2 SUB PUSH1 0x0 DUP4 ADD MSTORE PUSH2 0x604 DUP2 DUP5 PUSH2 0x596 JUMP JUMPDEST SWAP1 POP SWAP3 SWAP2 POP POP JUMP JUMPDEST PUSH1 0x0 PUSH2 0x616 PUSH2 0x627 JUMP JUMPDEST SWAP1 POP PUSH2 0x622 DUP3 DUP3 PUSH2 0x730 JUMP JUMPDEST SWAP2 SWAP1 POP JUMP JUMPDEST PUSH1 0x0 PUSH1 0x40 MLOAD SWAP1 POP SWAP1 JUMP JUMPDEST PUSH1 0x0 PUSH8 0xFFFFFFFFFFFFFFFF DUP3 GT ISZERO PUSH2 0x64C JUMPI PUSH2 0x64B PUSH2 0x790 JUMP JUMPDEST JUMPDEST PUSH2 0x655 DUP3 PUSH2 0x7D3 JUMP JUMPDEST SWAP1 POP PUSH1 0x20 DUP2 ADD SWAP1 POP SWAP2 SWAP1 POP JUMP JUMPDEST PUSH1 0x0 DUP2 MLOAD SWAP1 POP SWAP2 SWAP1 POP JUMP JUMPDEST PUSH1 0x0 DUP3 DUP3 MSTORE PUSH1 0x20 DUP3 ADD SWAP1 POP SWAP3 SWAP2 POP POP JUMP JUMPDEST PUSH1 0x0 PUSH2 0x689 DUP3 PUSH2 0x69C JUMP JUMPDEST SWAP1 POP SWAP2 SWAP1 POP JUMP JUMPDEST PUSH1 0x0 DUP2 ISZERO ISZERO SWAP1 POP SWAP2 SWAP1 POP JUMP JUMPDEST PUSH1 0x0 PUSH20 0xFFFFFFFFFFFFFFFFFFFFFFFFFFFFFFFFFFFFFFFF DUP3 AND SWAP1 POP SWAP2 SWAP1 POP JUMP JUMPDEST DUP3 DUP2 DUP4 CALLDATACOPY PUSH1 0x0 DUP4 DUP4 ADD MSTORE POP POP POP JUMP JUMPDEST PUSH1 0x0 JUMPDEST DUP4 DUP2 LT ISZERO PUSH2 0x6E9 JUMPI DUP1 DUP3 ADD MLOAD DUP2 DUP5 ADD MSTORE PUSH1 0x20 DUP2 ADD SWAP1 POP PUSH2 0x6CE JUMP JUMPDEST DUP4 DUP2 GT ISZERO PUSH2 0x6F8 JUMPI PUSH1 0x0 DUP5 DUP5 ADD MSTORE JUMPDEST POP POP POP POP JUMP JUMPDEST PUSH1 0x0 PUSH1 0x2 DUP3 DIV SWAP1 POP PUSH1 0x1 DUP3 AND DUP1 PUSH2 0x716 JUMPI PUSH1 0x7F DUP3 AND SWAP2 POP JUMPDEST PUSH1 0x20 DUP3 LT DUP2 EQ ISZERO PUSH2 0x72A JUMPI PUSH2 0x729 PUSH2 0x761 JUMP JUMPDEST JUMPDEST POP SWAP2 SWAP1 POP JUMP JUMPDEST PUSH2 0x739 DUP3 PUSH2 0x7D3 JUMP JUMPDEST DUP2 ADD DUP2 DUP2 LT PUSH8 0xFFFFFFFFFFFFFFFF DUP3 GT OR ISZERO PUSH2 0x758 JUMPI PUSH2 0x757 PUSH2 0x790 JUMP JUMPDEST JUMPDEST DUP1 PUSH1 0x40 MSTORE POP POP POP JUMP JUMPDEST PUSH32 0x4E487B7100000000000000000000000000000000000000000000000000000000 PUSH1 0x0 MSTORE PUSH1 0x22 PUSH1 0x4 MSTORE PUSH1 0x24 PUSH1 0x0 REVERT JUMPDEST PUSH32 0x4E487B7100000000000000000000000000000000000000000000000000000000 PUSH1 0x0 MSTORE PUSH1 0x41 PUSH1 0x4 MSTORE PUSH1 0x24 PUSH1 0x0 REVERT JUMPDEST PUSH1 0x0 DUP1 REVERT JUMPDEST PUSH1 0x0 DUP1 REVERT JUMPDEST PUSH1 0x0 DUP1 REVERT JUMPDEST PUSH1 0x0 DUP1 REVERT JUMPDEST PUSH1 0x0 PUSH1 0x1F NOT PUSH1 0x1F DUP4 ADD AND SWAP1 POP SWAP2 SWAP1 POP JUMP JUMPDEST PUSH2 0x7ED DUP2 PUSH2 0x67E JUMP JUMPDEST DUP2 EQ PUSH2 0x7F8 JUMPI PUSH1 0x0 DUP1 REVERT JUMPDEST POP JUMP INVALID LOG2 PUSH5 0x6970667358 0x22 SLT KECCAK256 BALANCE 0x1F 0xEE JUMP BLOCKHASH 0x1E PUSH32 0xB3E79D06B3FBEA9EDD5A89672F1C605D62F0A1E0516A24CFF264736F6C634300 ADDMOD SMOD STOP CALLER "
				},
				"gasEstimates": {
					"creation": {
						"codeDepositCost": "419400",
						"executionCost": "24721",
						"totalCost": "444121"
					},
					"external": {
						"check_address()": "6962",
						"check_user(address)": "2949",
						"user_register(string)": "infinite"
					}
				},
				"methodIdentifiers": {
					"check_address()": "73e69a18",
					"check_user(address)": "fc4433b1",
					"user_register(string)": "3158776f"
				}
			},
			"storageLayout": {
				"storage": [
					{
						"astId": 22,
						"contract": "project/marketplace.sol:marketplace",
						"label": "list_goods",
						"offset": 0,
						"slot": "0",
						"type": "t_mapping(t_string_memory_ptr,t_struct(goods)10_storage)"
					},
					{
						"astId": 27,
						"contract": "project/marketplace.sol:marketplace",
						"label": "list_users",
						"offset": 0,
						"slot": "1",
						"type": "t_mapping(t_address,t_struct(user)17_storage)"
					},
					{
						"astId": 29,
						"contract": "project/marketplace.sol:marketplace",
						"label": "currentUser",
						"offset": 0,
						"slot": "2",
						"type": "t_address_payable"
					}
				],
				"types": {
					"t_address": {
						"encoding": "inplace",
						"label": "address",
						"numberOfBytes": "20"
					},
					"t_address_payable": {
						"encoding": "inplace",
						"label": "address payable",
						"numberOfBytes": "20"
					},
					"t_bool": {
						"encoding": "inplace",
						"label": "bool",
						"numberOfBytes": "1"
					},
					"t_mapping(t_address,t_struct(user)17_storage)": {
						"encoding": "mapping",
						"key": "t_address",
						"label": "mapping(address => struct marketplace.user)",
						"numberOfBytes": "32",
						"value": "t_struct(user)17_storage"
					},
					"t_mapping(t_string_memory_ptr,t_struct(goods)10_storage)": {
						"encoding": "mapping",
						"key": "t_string_memory_ptr",
						"label": "mapping(string => struct marketplace.goods)",
						"numberOfBytes": "32",
						"value": "t_struct(goods)10_storage"
					},
					"t_string_memory_ptr": {
						"encoding": "bytes",
						"label": "string",
						"numberOfBytes": "32"
					},
					"t_string_storage": {
						"encoding": "bytes",
						"label": "string",
						"numberOfBytes": "32"
					},
					"t_struct(goods)10_storage": {
						"encoding": "inplace",
						"label": "struct marketplace.goods",
						"members": [
							{
								"astId": 3,
								"contract": "project/marketplace.sol:marketplace",
								"label": "title",
								"offset": 0,
								"slot": "0",
								"type": "t_string_storage"
							},
							{
								"astId": 5,
								"contract": "project/marketplace.sol:marketplace",
								"label": "description",
								"offset": 0,
								"slot": "1",
								"type": "t_string_storage"
							},
							{
								"astId": 7,
								"contract": "project/marketplace.sol:marketplace",
								"label": "price",
								"offset": 0,
								"slot": "2",
								"type": "t_uint256"
							},
							{
								"astId": 9,
								"contract": "project/marketplace.sol:marketplace",
								"label": "owner",
								"offset": 0,
								"slot": "3",
								"type": "t_address"
							}
						],
						"numberOfBytes": "128"
					},
					"t_struct(user)17_storage": {
						"encoding": "inplace",
						"label": "struct marketplace.user",
						"members": [
							{
								"astId": 12,
								"contract": "project/marketplace.sol:marketplace",
								"label": "name",
								"offset": 0,
								"slot": "0",
								"type": "t_string_storage"
							},
							{
								"astId": 14,
								"contract": "project/marketplace.sol:marketplace",
								"label": "user_address",
								"offset": 0,
								"slot": "1",
								"type": "t_address"
							},
							{
								"astId": 16,
								"contract": "project/marketplace.sol:marketplace",
								"label": "exist",
								"offset": 20,
								"slot": "1",
								"type": "t_bool"
							}
						],
						"numberOfBytes": "64"
					},
					"t_uint256": {
						"encoding": "inplace",
						"label": "uint256",
						"numberOfBytes": "32"
					}
				}
			},
			"userdoc": {
				"kind": "user",
				"methods": {},
				"version": 1
			}
		}
	}
}