{
	"project/marketplace.sol": {
		"marketplace": {
			"abi": [
				{
					"inputs": [],
					"stateMutability": "nonpayable",
					"type": "constructor"
				},
				{
					"inputs": [],
					"name": "check_address",
					"outputs": [
						{
							"internalType": "bool",
							"name": "",
							"type": "bool"
						}
					],
					"stateMutability": "nonpayable",
					"type": "function"
				},
				{
					"inputs": [
						{
							"internalType": "address payable",
							"name": "user_address",
							"type": "address"
						}
					],
					"name": "check_user",
					"outputs": [
						{
							"internalType": "bool",
							"name": "",
							"type": "bool"
						}
					],
					"stateMutability": "nonpayable",
					"type": "function"
				},
				{
					"inputs": [
						{
							"internalType": "string",
							"name": "name",
							"type": "string"
						}
					],
					"name": "user_register",
					"outputs": [],
					"stateMutability": "nonpayable",
					"type": "function"
				}
			],
			"devdoc": {
				"kind": "dev",
				"methods": {},
				"version": 1
			},
			"evm": {
				"assembly": "    /* \"project/marketplace.sol\":69:918  contract marketplace{... */\n  mstore(0x40, 0x80)\n    /* \"project/marketplace.sol\":511:574  constructor(){... */\n  callvalue\n  dup1\n  iszero\n  tag_1\n  jumpi\n  0x00\n  dup1\n  revert\ntag_1:\n  pop\n    /* \"project/marketplace.sol\":556:566  msg.sender */\n  caller\n    /* \"project/marketplace.sol\":534:545  currentUser */\n  0x02\n  0x00\n    /* \"project/marketplace.sol\":534:567  currentUser = payable(msg.sender) */\n  0x0100\n  exp\n  dup2\n  sload\n  dup2\n  0xffffffffffffffffffffffffffffffffffffffff\n  mul\n  not\n  and\n  swap1\n  dup4\n  0xffffffffffffffffffffffffffffffffffffffff\n  and\n  mul\n  or\n  swap1\n  sstore\n  pop\n    /* \"project/marketplace.sol\":69:918  contract marketplace{... */\n  dataSize(sub_0)\n  dup1\n  dataOffset(sub_0)\n  0x00\n  codecopy\n  0x00\n  return\nstop\n\nsub_0: assembly {\n        /* \"project/marketplace.sol\":69:918  contract marketplace{... */\n      mstore(0x40, 0x80)\n      callvalue\n      dup1\n      iszero\n      tag_1\n      jumpi\n      0x00\n      dup1\n      revert\n    tag_1:\n      pop\n      jumpi(tag_2, lt(calldatasize, 0x04))\n      shr(0xe0, calldataload(0x00))\n      dup1\n      0x3158776f\n      eq\n      tag_3\n      jumpi\n      dup1\n      0x73e69a18\n      eq\n      tag_4\n      jumpi\n      dup1\n      0xfc4433b1\n      eq\n      tag_5\n      jumpi\n    tag_2:\n      0x00\n      dup1\n      revert\n        /* \"project/marketplace.sol\":580:685  function user_register(string memory name) public{... */\n    tag_3:\n      tag_6\n      0x04\n      dup1\n      calldatasize\n      sub\n      dup2\n      add\n      swap1\n      tag_7\n      swap2\n      swap1\n      tag_8\n      jump\t// in\n    tag_7:\n      tag_9\n      jump\t// in\n    tag_6:\n      stop\n        /* \"project/marketplace.sol\":814:916  function check_address() public onlyOwner returns(bool){... */\n    tag_4:\n      tag_10\n      tag_11\n      jump\t// in\n    tag_10:\n      mload(0x40)\n      tag_12\n      swap2\n      swap1\n      tag_13\n      jump\t// in\n    tag_12:\n      mload(0x40)\n      dup1\n      swap2\n      sub\n      swap1\n      return\n        /* \"project/marketplace.sol\":691:808  function check_user(address payable user_address) public returns(bool){... */\n    tag_5:\n      tag_14\n      0x04\n      dup1\n      calldatasize\n      sub\n      dup2\n      add\n      swap1\n      tag_15\n      swap2\n      swap1\n      tag_16\n      jump\t// in\n    tag_15:\n      tag_17\n      jump\t// in\n    tag_14:\n      mload(0x40)\n      tag_18\n      swap2\n      swap1\n      tag_13\n      jump\t// in\n    tag_18:\n      mload(0x40)\n      dup1\n      swap2\n      sub\n      swap1\n      return\n        /* \"project/marketplace.sol\":580:685  function user_register(string memory name) public{... */\n    tag_9:\n        /* \"project/marketplace.sol\":643:666  check_user(currentUser) */\n      tag_20\n        /* \"project/marketplace.sol\":654:665  currentUser */\n      0x02\n      0x00\n      swap1\n      sload\n      swap1\n      0x0100\n      exp\n      swap1\n      div\n      0xffffffffffffffffffffffffffffffffffffffff\n      and\n        /* \"project/marketplace.sol\":643:653  check_user */\n      tag_17\n        /* \"project/marketplace.sol\":643:666  check_user(currentUser) */\n      jump\t// in\n    tag_20:\n        /* \"project/marketplace.sol\":639:679  if (check_user(currentUser)){... */\n      pop\n        /* \"project/marketplace.sol\":580:685  function user_register(string memory name) public{... */\n      pop\n      jump\t// out\n        /* \"project/marketplace.sol\":814:916  function check_address() public onlyOwner returns(bool){... */\n    tag_11:\n        /* \"project/marketplace.sol\":864:868  bool */\n      0x00\n        /* \"project/marketplace.sol\":475:486  currentUser */\n      0x02\n      0x00\n      swap1\n      sload\n      swap1\n      0x0100\n      exp\n      swap1\n      div\n      0xffffffffffffffffffffffffffffffffffffffff\n      and\n        /* \"project/marketplace.sol\":461:486  msg.sender == currentUser */\n      0xffffffffffffffffffffffffffffffffffffffff\n      and\n        /* \"project/marketplace.sol\":461:471  msg.sender */\n      caller\n        /* \"project/marketplace.sol\":461:486  msg.sender == currentUser */\n      0xffffffffffffffffffffffffffffffffffffffff\n      and\n      eq\n        /* \"project/marketplace.sol\":453:487  require(msg.sender == currentUser) */\n      tag_23\n      jumpi\n      0x00\n      dup1\n      revert\n    tag_23:\n        /* \"project/marketplace.sol\":886:909  check_user(currentUser) */\n      tag_25\n        /* \"project/marketplace.sol\":897:908  currentUser */\n      0x02\n      0x00\n      swap1\n      sload\n      swap1\n      0x0100\n      exp\n      swap1\n      div\n      0xffffffffffffffffffffffffffffffffffffffff\n      and\n        /* \"project/marketplace.sol\":886:896  check_user */\n      tag_17\n        /* \"project/marketplace.sol\":886:909  check_user(currentUser) */\n      jump\t// in\n    tag_25:\n        /* \"project/marketplace.sol\":879:909  return check_user(currentUser) */\n      swap1\n      pop\n        /* \"project/marketplace.sol\":814:916  function check_address() public onlyOwner returns(bool){... */\n      swap1\n      jump\t// out\n        /* \"project/marketplace.sol\":691:808  function check_user(address payable user_address) public returns(bool){... */\n    tag_17:\n        /* \"project/marketplace.sol\":756:760  bool */\n      0x00\n        /* \"project/marketplace.sol\":771:781  list_users */\n      0x01\n        /* \"project/marketplace.sol\":771:795  list_users[user_address] */\n      0x00\n        /* \"project/marketplace.sol\":782:794  user_address */\n      dup4\n        /* \"project/marketplace.sol\":771:795  list_users[user_address] */\n      0xffffffffffffffffffffffffffffffffffffffff\n      and\n      0xffffffffffffffffffffffffffffffffffffffff\n      and\n      dup2\n      mstore\n      0x20\n      add\n      swap1\n      dup2\n      mstore\n      0x20\n      add\n      0x00\n      keccak256\n        /* \"project/marketplace.sol\":771:801  list_users[user_address].exist */\n      0x01\n      add\n      0x14\n      swap1\n      sload\n      swap1\n      0x0100\n      exp\n      swap1\n      pop\n      pop\n        /* \"project/marketplace.sol\":691:808  function check_user(address payable user_address) public returns(bool){... */\n      swap2\n      swap1\n      pop\n      jump\t// out\n        /* \"#utility.yul\":7:419   */\n    tag_28:\n        /* \"#utility.yul\":85:90   */\n      0x00\n        /* \"#utility.yul\":110:176   */\n      tag_30\n        /* \"#utility.yul\":126:175   */\n      tag_31\n        /* \"#utility.yul\":168:174   */\n      dup5\n        /* \"#utility.yul\":126:175   */\n      tag_32\n      jump\t// in\n    tag_31:\n        /* \"#utility.yul\":110:176   */\n      tag_33\n      jump\t// in\n    tag_30:\n        /* \"#utility.yul\":101:176   */\n      swap1\n      pop\n        /* \"#utility.yul\":199:205   */\n      dup3\n        /* \"#utility.yul\":192:197   */\n      dup2\n        /* \"#utility.yul\":185:206   */\n      mstore\n        /* \"#utility.yul\":237:241   */\n      0x20\n        /* \"#utility.yul\":230:235   */\n      dup2\n        /* \"#utility.yul\":226:242   */\n      add\n        /* \"#utility.yul\":275:278   */\n      dup5\n        /* \"#utility.yul\":266:272   */\n      dup5\n        /* \"#utility.yul\":261:264   */\n      dup5\n        /* \"#utility.yul\":257:273   */\n      add\n        /* \"#utility.yul\":254:279   */\n      gt\n        /* \"#utility.yul\":251:363   */\n      iszero\n      tag_34\n      jumpi\n        /* \"#utility.yul\":282:361   */\n      tag_35\n      tag_36\n      jump\t// in\n    tag_35:\n        /* \"#utility.yul\":251:363   */\n    tag_34:\n        /* \"#utility.yul\":372:413   */\n      tag_37\n        /* \"#utility.yul\":406:412   */\n      dup5\n        /* \"#utility.yul\":401:404   */\n      dup3\n        /* \"#utility.yul\":396:399   */\n      dup6\n        /* \"#utility.yul\":372:413   */\n      tag_38\n      jump\t// in\n    tag_37:\n        /* \"#utility.yul\":91:419   */\n      pop\n        /* \"#utility.yul\":7:419   */\n      swap4\n      swap3\n      pop\n      pop\n      pop\n      jump\t// out\n        /* \"#utility.yul\":425:580   */\n    tag_39:\n        /* \"#utility.yul\":479:484   */\n      0x00\n        /* \"#utility.yul\":517:523   */\n      dup2\n        /* \"#utility.yul\":504:524   */\n      calldataload\n        /* \"#utility.yul\":495:524   */\n      swap1\n      pop\n        /* \"#utility.yul\":533:574   */\n      tag_41\n        /* \"#utility.yul\":568:573   */\n      dup2\n        /* \"#utility.yul\":533:574   */\n      tag_42\n      jump\t// in\n    tag_41:\n        /* \"#utility.yul\":425:580   */\n      swap3\n      swap2\n      pop\n      pop\n      jump\t// out\n        /* \"#utility.yul\":600:940   */\n    tag_43:\n        /* \"#utility.yul\":656:661   */\n      0x00\n        /* \"#utility.yul\":705:708   */\n      dup3\n        /* \"#utility.yul\":698:702   */\n      0x1f\n        /* \"#utility.yul\":690:696   */\n      dup4\n        /* \"#utility.yul\":686:703   */\n      add\n        /* \"#utility.yul\":682:709   */\n      slt\n        /* \"#utility.yul\":672:794   */\n      tag_45\n      jumpi\n        /* \"#utility.yul\":713:792   */\n      tag_46\n      tag_47\n      jump\t// in\n    tag_46:\n        /* \"#utility.yul\":672:794   */\n    tag_45:\n        /* \"#utility.yul\":830:836   */\n      dup2\n        /* \"#utility.yul\":817:837   */\n      calldataload\n        /* \"#utility.yul\":855:934   */\n      tag_48\n        /* \"#utility.yul\":930:933   */\n      dup5\n        /* \"#utility.yul\":922:928   */\n      dup3\n        /* \"#utility.yul\":915:919   */\n      0x20\n        /* \"#utility.yul\":907:913   */\n      dup7\n        /* \"#utility.yul\":903:920   */\n      add\n        /* \"#utility.yul\":855:934   */\n      tag_28\n      jump\t// in\n    tag_48:\n        /* \"#utility.yul\":846:934   */\n      swap2\n      pop\n        /* \"#utility.yul\":662:940   */\n      pop\n        /* \"#utility.yul\":600:940   */\n      swap3\n      swap2\n      pop\n      pop\n      jump\t// out\n        /* \"#utility.yul\":946:1291   */\n    tag_16:\n        /* \"#utility.yul\":1013:1019   */\n      0x00\n        /* \"#utility.yul\":1062:1064   */\n      0x20\n        /* \"#utility.yul\":1050:1059   */\n      dup3\n        /* \"#utility.yul\":1041:1048   */\n      dup5\n        /* \"#utility.yul\":1037:1060   */\n      sub\n        /* \"#utility.yul\":1033:1065   */\n      slt\n        /* \"#utility.yul\":1030:1149   */\n      iszero\n      tag_50\n      jumpi\n        /* \"#utility.yul\":1068:1147   */\n      tag_51\n      tag_52\n      jump\t// in\n    tag_51:\n        /* \"#utility.yul\":1030:1149   */\n    tag_50:\n        /* \"#utility.yul\":1188:1189   */\n      0x00\n        /* \"#utility.yul\":1213:1274   */\n      tag_53\n        /* \"#utility.yul\":1266:1273   */\n      dup5\n        /* \"#utility.yul\":1257:1263   */\n      dup3\n        /* \"#utility.yul\":1246:1255   */\n      dup6\n        /* \"#utility.yul\":1242:1264   */\n      add\n        /* \"#utility.yul\":1213:1274   */\n      tag_39\n      jump\t// in\n    tag_53:\n        /* \"#utility.yul\":1203:1274   */\n      swap2\n      pop\n        /* \"#utility.yul\":1159:1284   */\n      pop\n        /* \"#utility.yul\":946:1291   */\n      swap3\n      swap2\n      pop\n      pop\n      jump\t// out\n        /* \"#utility.yul\":1297:1806   */\n    tag_8:\n        /* \"#utility.yul\":1366:1372   */\n      0x00\n        /* \"#utility.yul\":1415:1417   */\n      0x20\n        /* \"#utility.yul\":1403:1412   */\n      dup3\n        /* \"#utility.yul\":1394:1401   */\n      dup5\n        /* \"#utility.yul\":1390:1413   */\n      sub\n        /* \"#utility.yul\":1386:1418   */\n      slt\n        /* \"#utility.yul\":1383:1502   */\n      iszero\n      tag_55\n      jumpi\n        /* \"#utility.yul\":1421:1500   */\n      tag_56\n      tag_52\n      jump\t// in\n    tag_56:\n        /* \"#utility.yul\":1383:1502   */\n    tag_55:\n        /* \"#utility.yul\":1569:1570   */\n      0x00\n        /* \"#utility.yul\":1558:1567   */\n      dup3\n        /* \"#utility.yul\":1554:1571   */\n      add\n        /* \"#utility.yul\":1541:1572   */\n      calldataload\n        /* \"#utility.yul\":1599:1617   */\n      0xffffffffffffffff\n        /* \"#utility.yul\":1591:1597   */\n      dup2\n        /* \"#utility.yul\":1588:1618   */\n      gt\n        /* \"#utility.yul\":1585:1702   */\n      iszero\n      tag_57\n      jumpi\n        /* \"#utility.yul\":1621:1700   */\n      tag_58\n      tag_59\n      jump\t// in\n    tag_58:\n        /* \"#utility.yul\":1585:1702   */\n    tag_57:\n        /* \"#utility.yul\":1726:1789   */\n      tag_60\n        /* \"#utility.yul\":1781:1788   */\n      dup5\n        /* \"#utility.yul\":1772:1778   */\n      dup3\n        /* \"#utility.yul\":1761:1770   */\n      dup6\n        /* \"#utility.yul\":1757:1779   */\n      add\n        /* \"#utility.yul\":1726:1789   */\n      tag_43\n      jump\t// in\n    tag_60:\n        /* \"#utility.yul\":1716:1789   */\n      swap2\n      pop\n        /* \"#utility.yul\":1512:1799   */\n      pop\n        /* \"#utility.yul\":1297:1806   */\n      swap3\n      swap2\n      pop\n      pop\n      jump\t// out\n        /* \"#utility.yul\":1812:1921   */\n    tag_61:\n        /* \"#utility.yul\":1893:1914   */\n      tag_63\n        /* \"#utility.yul\":1908:1913   */\n      dup2\n        /* \"#utility.yul\":1893:1914   */\n      tag_64\n      jump\t// in\n    tag_63:\n        /* \"#utility.yul\":1888:1891   */\n      dup3\n        /* \"#utility.yul\":1881:1915   */\n      mstore\n        /* \"#utility.yul\":1812:1921   */\n      pop\n      pop\n      jump\t// out\n        /* \"#utility.yul\":1927:2137   */\n    tag_13:\n        /* \"#utility.yul\":2014:2018   */\n      0x00\n        /* \"#utility.yul\":2052:2054   */\n      0x20\n        /* \"#utility.yul\":2041:2050   */\n      dup3\n        /* \"#utility.yul\":2037:2055   */\n      add\n        /* \"#utility.yul\":2029:2055   */\n      swap1\n      pop\n        /* \"#utility.yul\":2065:2130   */\n      tag_66\n        /* \"#utility.yul\":2127:2128   */\n      0x00\n        /* \"#utility.yul\":2116:2125   */\n      dup4\n        /* \"#utility.yul\":2112:2129   */\n      add\n        /* \"#utility.yul\":2103:2109   */\n      dup5\n        /* \"#utility.yul\":2065:2130   */\n      tag_61\n      jump\t// in\n    tag_66:\n        /* \"#utility.yul\":1927:2137   */\n      swap3\n      swap2\n      pop\n      pop\n      jump\t// out\n        /* \"#utility.yul\":2143:2272   */\n    tag_33:\n        /* \"#utility.yul\":2177:2183   */\n      0x00\n        /* \"#utility.yul\":2204:2224   */\n      tag_68\n      tag_69\n      jump\t// in\n    tag_68:\n        /* \"#utility.yul\":2194:2224   */\n      swap1\n      pop\n        /* \"#utility.yul\":2233:2266   */\n      tag_70\n        /* \"#utility.yul\":2261:2265   */\n      dup3\n        /* \"#utility.yul\":2253:2259   */\n      dup3\n        /* \"#utility.yul\":2233:2266   */\n      tag_71\n      jump\t// in\n    tag_70:\n        /* \"#utility.yul\":2143:2272   */\n      swap2\n      swap1\n      pop\n      jump\t// out\n        /* \"#utility.yul\":2278:2353   */\n    tag_69:\n        /* \"#utility.yul\":2311:2317   */\n      0x00\n        /* \"#utility.yul\":2344:2346   */\n      0x40\n        /* \"#utility.yul\":2338:2347   */\n      mload\n        /* \"#utility.yul\":2328:2347   */\n      swap1\n      pop\n        /* \"#utility.yul\":2278:2353   */\n      swap1\n      jump\t// out\n        /* \"#utility.yul\":2359:2667   */\n    tag_32:\n        /* \"#utility.yul\":2421:2425   */\n      0x00\n        /* \"#utility.yul\":2511:2529   */\n      0xffffffffffffffff\n        /* \"#utility.yul\":2503:2509   */\n      dup3\n        /* \"#utility.yul\":2500:2530   */\n      gt\n        /* \"#utility.yul\":2497:2553   */\n      iszero\n      tag_74\n      jumpi\n        /* \"#utility.yul\":2533:2551   */\n      tag_75\n      tag_76\n      jump\t// in\n    tag_75:\n        /* \"#utility.yul\":2497:2553   */\n    tag_74:\n        /* \"#utility.yul\":2571:2600   */\n      tag_77\n        /* \"#utility.yul\":2593:2599   */\n      dup3\n        /* \"#utility.yul\":2571:2600   */\n      tag_78\n      jump\t// in\n    tag_77:\n        /* \"#utility.yul\":2563:2600   */\n      swap1\n      pop\n        /* \"#utility.yul\":2655:2659   */\n      0x20\n        /* \"#utility.yul\":2649:2653   */\n      dup2\n        /* \"#utility.yul\":2645:2660   */\n      add\n        /* \"#utility.yul\":2637:2660   */\n      swap1\n      pop\n        /* \"#utility.yul\":2359:2667   */\n      swap2\n      swap1\n      pop\n      jump\t// out\n        /* \"#utility.yul\":2673:2777   */\n    tag_79:\n        /* \"#utility.yul\":2718:2725   */\n      0x00\n        /* \"#utility.yul\":2747:2771   */\n      tag_81\n        /* \"#utility.yul\":2765:2770   */\n      dup3\n        /* \"#utility.yul\":2747:2771   */\n      tag_82\n      jump\t// in\n    tag_81:\n        /* \"#utility.yul\":2736:2771   */\n      swap1\n      pop\n        /* \"#utility.yul\":2673:2777   */\n      swap2\n      swap1\n      pop\n      jump\t// out\n        /* \"#utility.yul\":2783:2873   */\n    tag_64:\n        /* \"#utility.yul\":2817:2824   */\n      0x00\n        /* \"#utility.yul\":2860:2865   */\n      dup2\n        /* \"#utility.yul\":2853:2866   */\n      iszero\n        /* \"#utility.yul\":2846:2867   */\n      iszero\n        /* \"#utility.yul\":2835:2867   */\n      swap1\n      pop\n        /* \"#utility.yul\":2783:2873   */\n      swap2\n      swap1\n      pop\n      jump\t// out\n        /* \"#utility.yul\":2879:3005   */\n    tag_82:\n        /* \"#utility.yul\":2916:2923   */\n      0x00\n        /* \"#utility.yul\":2956:2998   */\n      0xffffffffffffffffffffffffffffffffffffffff\n        /* \"#utility.yul\":2949:2954   */\n      dup3\n        /* \"#utility.yul\":2945:2999   */\n      and\n        /* \"#utility.yul\":2934:2999   */\n      swap1\n      pop\n        /* \"#utility.yul\":2879:3005   */\n      swap2\n      swap1\n      pop\n      jump\t// out\n        /* \"#utility.yul\":3011:3165   */\n    tag_38:\n        /* \"#utility.yul\":3095:3101   */\n      dup3\n        /* \"#utility.yul\":3090:3093   */\n      dup2\n        /* \"#utility.yul\":3085:3088   */\n      dup4\n        /* \"#utility.yul\":3072:3102   */\n      calldatacopy\n        /* \"#utility.yul\":3157:3158   */\n      0x00\n        /* \"#utility.yul\":3148:3154   */\n      dup4\n        /* \"#utility.yul\":3143:3146   */\n      dup4\n        /* \"#utility.yul\":3139:3155   */\n      add\n        /* \"#utility.yul\":3132:3159   */\n      mstore\n        /* \"#utility.yul\":3011:3165   */\n      pop\n      pop\n      pop\n      jump\t// out\n        /* \"#utility.yul\":3171:3452   */\n    tag_71:\n        /* \"#utility.yul\":3254:3281   */\n      tag_87\n        /* \"#utility.yul\":3276:3280   */\n      dup3\n        /* \"#utility.yul\":3254:3281   */\n      tag_78\n      jump\t// in\n    tag_87:\n        /* \"#utility.yul\":3246:3252   */\n      dup2\n        /* \"#utility.yul\":3242:3282   */\n      add\n        /* \"#utility.yul\":3384:3390   */\n      dup2\n        /* \"#utility.yul\":3372:3382   */\n      dup2\n        /* \"#utility.yul\":3369:3391   */\n      lt\n        /* \"#utility.yul\":3348:3366   */\n      0xffffffffffffffff\n        /* \"#utility.yul\":3336:3346   */\n      dup3\n        /* \"#utility.yul\":3333:3367   */\n      gt\n        /* \"#utility.yul\":3330:3392   */\n      or\n        /* \"#utility.yul\":3327:3415   */\n      iszero\n      tag_88\n      jumpi\n        /* \"#utility.yul\":3395:3413   */\n      tag_89\n      tag_76\n      jump\t// in\n    tag_89:\n        /* \"#utility.yul\":3327:3415   */\n    tag_88:\n        /* \"#utility.yul\":3435:3445   */\n      dup1\n        /* \"#utility.yul\":3431:3433   */\n      0x40\n        /* \"#utility.yul\":3424:3446   */\n      mstore\n        /* \"#utility.yul\":3214:3452   */\n      pop\n        /* \"#utility.yul\":3171:3452   */\n      pop\n      pop\n      jump\t// out\n        /* \"#utility.yul\":3458:3638   */\n    tag_76:\n        /* \"#utility.yul\":3506:3583   */\n      0x4e487b7100000000000000000000000000000000000000000000000000000000\n        /* \"#utility.yul\":3503:3504   */\n      0x00\n        /* \"#utility.yul\":3496:3584   */\n      mstore\n        /* \"#utility.yul\":3603:3607   */\n      0x41\n        /* \"#utility.yul\":3600:3601   */\n      0x04\n        /* \"#utility.yul\":3593:3608   */\n      mstore\n        /* \"#utility.yul\":3627:3631   */\n      0x24\n        /* \"#utility.yul\":3624:3625   */\n      0x00\n        /* \"#utility.yul\":3617:3632   */\n      revert\n        /* \"#utility.yul\":3644:3761   */\n    tag_47:\n        /* \"#utility.yul\":3753:3754   */\n      0x00\n        /* \"#utility.yul\":3750:3751   */\n      dup1\n        /* \"#utility.yul\":3743:3755   */\n      revert\n        /* \"#utility.yul\":3767:3884   */\n    tag_36:\n        /* \"#utility.yul\":3876:3877   */\n      0x00\n        /* \"#utility.yul\":3873:3874   */\n      dup1\n        /* \"#utility.yul\":3866:3878   */\n      revert\n        /* \"#utility.yul\":3890:4007   */\n    tag_59:\n        /* \"#utility.yul\":3999:4000   */\n      0x00\n        /* \"#utility.yul\":3996:3997   */\n      dup1\n        /* \"#utility.yul\":3989:4001   */\n      revert\n        /* \"#utility.yul\":4013:4130   */\n    tag_52:\n        /* \"#utility.yul\":4122:4123   */\n      0x00\n        /* \"#utility.yul\":4119:4120   */\n      dup1\n        /* \"#utility.yul\":4112:4124   */\n      revert\n        /* \"#utility.yul\":4136:4238   */\n    tag_78:\n        /* \"#utility.yul\":4177:4183   */\n      0x00\n        /* \"#utility.yul\":4228:4230   */\n      0x1f\n        /* \"#utility.yul\":4224:4231   */\n      not\n        /* \"#utility.yul\":4219:4221   */\n      0x1f\n        /* \"#utility.yul\":4212:4217   */\n      dup4\n        /* \"#utility.yul\":4208:4222   */\n      add\n        /* \"#utility.yul\":4204:4232   */\n      and\n        /* \"#utility.yul\":4194:4232   */\n      swap1\n      pop\n        /* \"#utility.yul\":4136:4238   */\n      swap2\n      swap1\n      pop\n      jump\t// out\n        /* \"#utility.yul\":4244:4382   */\n    tag_42:\n        /* \"#utility.yul\":4325:4357   */\n      tag_97\n        /* \"#utility.yul\":4351:4356   */\n      dup2\n        /* \"#utility.yul\":4325:4357   */\n      tag_79\n      jump\t// in\n    tag_97:\n        /* \"#utility.yul\":4318:4323   */\n      dup2\n        /* \"#utility.yul\":4315:4358   */\n      eq\n        /* \"#utility.yul\":4305:4376   */\n      tag_98\n      jumpi\n        /* \"#utility.yul\":4372:4373   */\n      0x00\n        /* \"#utility.yul\":4369:4370   */\n      dup1\n        /* \"#utility.yul\":4362:4374   */\n      revert\n        /* \"#utility.yul\":4305:4376   */\n    tag_98:\n        /* \"#utility.yul\":4244:4382   */\n      pop\n      jump\t// out\n\n    auxdata: 0xa2646970667358221220649c5f8944641204b5e8fbe61b5d7081f69c2c8b43d8c033c26d42ab8f77281f64736f6c63430008070033\n}\n",
				"bytecode": {
					"linkReferences": {},
					"object": "608060405234801561001057600080fd5b5033600260006101000a81548173ffffffffffffffffffffffffffffffffffffffff021916908373ffffffffffffffffffffffffffffffffffffffff16021790555061045a806100616000396000f3fe608060405234801561001057600080fd5b50600436106100415760003560e01c80633158776f1461004657806373e69a1814610062578063fc4433b114610080575b600080fd5b610060600480360381019061005b9190610272565b6100b0565b005b61006a6100df565b60405161007791906102ca565b60405180910390f35b61009a60048036038101906100959190610245565b61016b565b6040516100a791906102ca565b60405180910390f35b6100db600260009054906101000a900473ffffffffffffffffffffffffffffffffffffffff1661016b565b5050565b6000600260009054906101000a900473ffffffffffffffffffffffffffffffffffffffff1673ffffffffffffffffffffffffffffffffffffffff163373ffffffffffffffffffffffffffffffffffffffff161461013b57600080fd5b610166600260009054906101000a900473ffffffffffffffffffffffffffffffffffffffff1661016b565b905090565b6000600160008373ffffffffffffffffffffffffffffffffffffffff1673ffffffffffffffffffffffffffffffffffffffff16815260200190815260200160002060010160149054906101000a905050919050565b60006101d36101ce8461030a565b6102e5565b9050828152602081018484840111156101ef576101ee6103ed565b5b6101fa848285610379565b509392505050565b6000813590506102118161040d565b92915050565b600082601f83011261022c5761022b6103e8565b5b813561023c8482602086016101c0565b91505092915050565b60006020828403121561025b5761025a6103f7565b5b600061026984828501610202565b91505092915050565b600060208284031215610288576102876103f7565b5b600082013567ffffffffffffffff8111156102a6576102a56103f2565b5b6102b284828501610217565b91505092915050565b6102c48161034d565b82525050565b60006020820190506102df60008301846102bb565b92915050565b60006102ef610300565b90506102fb8282610388565b919050565b6000604051905090565b600067ffffffffffffffff821115610325576103246103b9565b5b61032e826103fc565b9050602081019050919050565b600061034682610359565b9050919050565b60008115159050919050565b600073ffffffffffffffffffffffffffffffffffffffff82169050919050565b82818337600083830152505050565b610391826103fc565b810181811067ffffffffffffffff821117156103b0576103af6103b9565b5b80604052505050565b7f4e487b7100000000000000000000000000000000000000000000000000000000600052604160045260246000fd5b600080fd5b600080fd5b600080fd5b600080fd5b6000601f19601f8301169050919050565b6104168161033b565b811461042157600080fd5b5056fea2646970667358221220649c5f8944641204b5e8fbe61b5d7081f69c2c8b43d8c033c26d42ab8f77281f64736f6c63430008070033",
					"opcodes": "PUSH1 0x80 PUSH1 0x40 MSTORE CALLVALUE DUP1 ISZERO PUSH2 0x10 JUMPI PUSH1 0x0 DUP1 REVERT JUMPDEST POP CALLER PUSH1 0x2 PUSH1 0x0 PUSH2 0x100 EXP DUP2 SLOAD DUP2 PUSH20 0xFFFFFFFFFFFFFFFFFFFFFFFFFFFFFFFFFFFFFFFF MUL NOT AND SWAP1 DUP4 PUSH20 0xFFFFFFFFFFFFFFFFFFFFFFFFFFFFFFFFFFFFFFFF AND MUL OR SWAP1 SSTORE POP PUSH2 0x45A DUP1 PUSH2 0x61 PUSH1 0x0 CODECOPY PUSH1 0x0 RETURN INVALID PUSH1 0x80 PUSH1 0x40 MSTORE CALLVALUE DUP1 ISZERO PUSH2 0x10 JUMPI PUSH1 0x0 DUP1 REVERT JUMPDEST POP PUSH1 0x4 CALLDATASIZE LT PUSH2 0x41 JUMPI PUSH1 0x0 CALLDATALOAD PUSH1 0xE0 SHR DUP1 PUSH4 0x3158776F EQ PUSH2 0x46 JUMPI DUP1 PUSH4 0x73E69A18 EQ PUSH2 0x62 JUMPI DUP1 PUSH4 0xFC4433B1 EQ PUSH2 0x80 JUMPI JUMPDEST PUSH1 0x0 DUP1 REVERT JUMPDEST PUSH2 0x60 PUSH1 0x4 DUP1 CALLDATASIZE SUB DUP2 ADD SWAP1 PUSH2 0x5B SWAP2 SWAP1 PUSH2 0x272 JUMP JUMPDEST PUSH2 0xB0 JUMP JUMPDEST STOP JUMPDEST PUSH2 0x6A PUSH2 0xDF JUMP JUMPDEST PUSH1 0x40 MLOAD PUSH2 0x77 SWAP2 SWAP1 PUSH2 0x2CA JUMP JUMPDEST PUSH1 0x40 MLOAD DUP1 SWAP2 SUB SWAP1 RETURN JUMPDEST PUSH2 0x9A PUSH1 0x4 DUP1 CALLDATASIZE SUB DUP2 ADD SWAP1 PUSH2 0x95 SWAP2 SWAP1 PUSH2 0x245 JUMP JUMPDEST PUSH2 0x16B JUMP JUMPDEST PUSH1 0x40 MLOAD PUSH2 0xA7 SWAP2 SWAP1 PUSH2 0x2CA JUMP JUMPDEST PUSH1 0x40 MLOAD DUP1 SWAP2 SUB SWAP1 RETURN JUMPDEST PUSH2 0xDB PUSH1 0x2 PUSH1 0x0 SWAP1 SLOAD SWAP1 PUSH2 0x100 EXP SWAP1 DIV PUSH20 0xFFFFFFFFFFFFFFFFFFFFFFFFFFFFFFFFFFFFFFFF AND PUSH2 0x16B JUMP JUMPDEST POP POP JUMP JUMPDEST PUSH1 0x0 PUSH1 0x2 PUSH1 0x0 SWAP1 SLOAD SWAP1 PUSH2 0x100 EXP SWAP1 DIV PUSH20 0xFFFFFFFFFFFFFFFFFFFFFFFFFFFFFFFFFFFFFFFF AND PUSH20 0xFFFFFFFFFFFFFFFFFFFFFFFFFFFFFFFFFFFFFFFF AND CALLER PUSH20 0xFFFFFFFFFFFFFFFFFFFFFFFFFFFFFFFFFFFFFFFF AND EQ PUSH2 0x13B JUMPI PUSH1 0x0 DUP1 REVERT JUMPDEST PUSH2 0x166 PUSH1 0x2 PUSH1 0x0 SWAP1 SLOAD SWAP1 PUSH2 0x100 EXP SWAP1 DIV PUSH20 0xFFFFFFFFFFFFFFFFFFFFFFFFFFFFFFFFFFFFFFFF AND PUSH2 0x16B JUMP JUMPDEST SWAP1 POP SWAP1 JUMP JUMPDEST PUSH1 0x0 PUSH1 0x1 PUSH1 0x0 DUP4 PUSH20 0xFFFFFFFFFFFFFFFFFFFFFFFFFFFFFFFFFFFFFFFF AND PUSH20 0xFFFFFFFFFFFFFFFFFFFFFFFFFFFFFFFFFFFFFFFF AND DUP2 MSTORE PUSH1 0x20 ADD SWAP1 DUP2 MSTORE PUSH1 0x20 ADD PUSH1 0x0 KECCAK256 PUSH1 0x1 ADD PUSH1 0x14 SWAP1 SLOAD SWAP1 PUSH2 0x100 EXP SWAP1 POP POP SWAP2 SWAP1 POP JUMP JUMPDEST PUSH1 0x0 PUSH2 0x1D3 PUSH2 0x1CE DUP5 PUSH2 0x30A JUMP JUMPDEST PUSH2 0x2E5 JUMP JUMPDEST SWAP1 POP DUP3 DUP2 MSTORE PUSH1 0x20 DUP2 ADD DUP5 DUP5 DUP5 ADD GT ISZERO PUSH2 0x1EF JUMPI PUSH2 0x1EE PUSH2 0x3ED JUMP JUMPDEST JUMPDEST PUSH2 0x1FA DUP5 DUP3 DUP6 PUSH2 0x379 JUMP JUMPDEST POP SWAP4 SWAP3 POP POP POP JUMP JUMPDEST PUSH1 0x0 DUP2 CALLDATALOAD SWAP1 POP PUSH2 0x211 DUP2 PUSH2 0x40D JUMP JUMPDEST SWAP3 SWAP2 POP POP JUMP JUMPDEST PUSH1 0x0 DUP3 PUSH1 0x1F DUP4 ADD SLT PUSH2 0x22C JUMPI PUSH2 0x22B PUSH2 0x3E8 JUMP JUMPDEST JUMPDEST DUP2 CALLDATALOAD PUSH2 0x23C DUP5 DUP3 PUSH1 0x20 DUP7 ADD PUSH2 0x1C0 JUMP JUMPDEST SWAP2 POP POP SWAP3 SWAP2 POP POP JUMP JUMPDEST PUSH1 0x0 PUSH1 0x20 DUP3 DUP5 SUB SLT ISZERO PUSH2 0x25B JUMPI PUSH2 0x25A PUSH2 0x3F7 JUMP JUMPDEST JUMPDEST PUSH1 0x0 PUSH2 0x269 DUP5 DUP3 DUP6 ADD PUSH2 0x202 JUMP JUMPDEST SWAP2 POP POP SWAP3 SWAP2 POP POP JUMP JUMPDEST PUSH1 0x0 PUSH1 0x20 DUP3 DUP5 SUB SLT ISZERO PUSH2 0x288 JUMPI PUSH2 0x287 PUSH2 0x3F7 JUMP JUMPDEST JUMPDEST PUSH1 0x0 DUP3 ADD CALLDATALOAD PUSH8 0xFFFFFFFFFFFFFFFF DUP2 GT ISZERO PUSH2 0x2A6 JUMPI PUSH2 0x2A5 PUSH2 0x3F2 JUMP JUMPDEST JUMPDEST PUSH2 0x2B2 DUP5 DUP3 DUP6 ADD PUSH2 0x217 JUMP JUMPDEST SWAP2 POP POP SWAP3 SWAP2 POP POP JUMP JUMPDEST PUSH2 0x2C4 DUP2 PUSH2 0x34D JUMP JUMPDEST DUP3 MSTORE POP POP JUMP JUMPDEST PUSH1 0x0 PUSH1 0x20 DUP3 ADD SWAP1 POP PUSH2 0x2DF PUSH1 0x0 DUP4 ADD DUP5 PUSH2 0x2BB JUMP JUMPDEST SWAP3 SWAP2 POP POP JUMP JUMPDEST PUSH1 0x0 PUSH2 0x2EF PUSH2 0x300 JUMP JUMPDEST SWAP1 POP PUSH2 0x2FB DUP3 DUP3 PUSH2 0x388 JUMP JUMPDEST SWAP2 SWAP1 POP JUMP JUMPDEST PUSH1 0x0 PUSH1 0x40 MLOAD SWAP1 POP SWAP1 JUMP JUMPDEST PUSH1 0x0 PUSH8 0xFFFFFFFFFFFFFFFF DUP3 GT ISZERO PUSH2 0x325 JUMPI PUSH2 0x324 PUSH2 0x3B9 JUMP JUMPDEST JUMPDEST PUSH2 0x32E DUP3 PUSH2 0x3FC JUMP JUMPDEST SWAP1 POP PUSH1 0x20 DUP2 ADD SWAP1 POP SWAP2 SWAP1 POP JUMP JUMPDEST PUSH1 0x0 PUSH2 0x346 DUP3 PUSH2 0x359 JUMP JUMPDEST SWAP1 POP SWAP2 SWAP1 POP JUMP JUMPDEST PUSH1 0x0 DUP2 ISZERO ISZERO SWAP1 POP SWAP2 SWAP1 POP JUMP JUMPDEST PUSH1 0x0 PUSH20 0xFFFFFFFFFFFFFFFFFFFFFFFFFFFFFFFFFFFFFFFF DUP3 AND SWAP1 POP SWAP2 SWAP1 POP JUMP JUMPDEST DUP3 DUP2 DUP4 CALLDATACOPY PUSH1 0x0 DUP4 DUP4 ADD MSTORE POP POP POP JUMP JUMPDEST PUSH2 0x391 DUP3 PUSH2 0x3FC JUMP JUMPDEST DUP2 ADD DUP2 DUP2 LT PUSH8 0xFFFFFFFFFFFFFFFF DUP3 GT OR ISZERO PUSH2 0x3B0 JUMPI PUSH2 0x3AF PUSH2 0x3B9 JUMP JUMPDEST JUMPDEST DUP1 PUSH1 0x40 MSTORE POP POP POP JUMP JUMPDEST PUSH32 0x4E487B7100000000000000000000000000000000000000000000000000000000 PUSH1 0x0 MSTORE PUSH1 0x41 PUSH1 0x4 MSTORE PUSH1 0x24 PUSH1 0x0 REVERT JUMPDEST PUSH1 0x0 DUP1 REVERT JUMPDEST PUSH1 0x0 DUP1 REVERT JUMPDEST PUSH1 0x0 DUP1 REVERT JUMPDEST PUSH1 0x0 DUP1 REVERT JUMPDEST PUSH1 0x0 PUSH1 0x1F NOT PUSH1 0x1F DUP4 ADD AND SWAP1 POP SWAP2 SWAP1 POP JUMP JUMPDEST PUSH2 0x416 DUP2 PUSH2 0x33B JUMP JUMPDEST DUP2 EQ PUSH2 0x421 JUMPI PUSH1 0x0 DUP1 REVERT JUMPDEST POP JUMP INVALID LOG2 PUSH5 0x6970667358 0x22 SLT KECCAK256 PUSH5 0x9C5F894464 SLT DIV 0xB5 0xE8 0xFB 0xE6 SHL 0x5D PUSH17 0x81F69C2C8B43D8C033C26D42AB8F77281F PUSH5 0x736F6C6343 STOP ADDMOD SMOD STOP CALLER "
				},
				"gasEstimates": {
					"creation": {
						"codeDepositCost": "222800",
						"executionCost": "24529",
						"totalCost": "247329"
					},
					"external": {
						"check_address()": "6962",
						"check_user(address)": "2949",
						"user_register(string)": "infinite"
					}
				},
				"methodIdentifiers": {
					"check_address()": "73e69a18",
					"check_user(address)": "fc4433b1",
					"user_register(string)": "3158776f"
				}
			},
			"storageLayout": {
				"storage": [
					{
						"astId": 22,
						"contract": "project/marketplace.sol:marketplace",
						"label": "list_goods",
						"offset": 0,
						"slot": "0",
						"type": "t_mapping(t_string_memory_ptr,t_struct(goods)10_storage)"
					},
					{
						"astId": 27,
						"contract": "project/marketplace.sol:marketplace",
						"label": "list_users",
						"offset": 0,
						"slot": "1",
						"type": "t_mapping(t_address,t_struct(user)17_storage)"
					},
					{
						"astId": 29,
						"contract": "project/marketplace.sol:marketplace",
						"label": "currentUser",
						"offset": 0,
						"slot": "2",
						"type": "t_address_payable"
					}
				],
				"types": {
					"t_address": {
						"encoding": "inplace",
						"label": "address",
						"numberOfBytes": "20"
					},
					"t_address_payable": {
						"encoding": "inplace",
						"label": "address payable",
						"numberOfBytes": "20"
					},
					"t_bool": {
						"encoding": "inplace",
						"label": "bool",
						"numberOfBytes": "1"
					},
					"t_mapping(t_address,t_struct(user)17_storage)": {
						"encoding": "mapping",
						"key": "t_address",
						"label": "mapping(address => struct marketplace.user)",
						"numberOfBytes": "32",
						"value": "t_struct(user)17_storage"
					},
					"t_mapping(t_string_memory_ptr,t_struct(goods)10_storage)": {
						"encoding": "mapping",
						"key": "t_string_memory_ptr",
						"label": "mapping(string => struct marketplace.goods)",
						"numberOfBytes": "32",
						"value": "t_struct(goods)10_storage"
					},
					"t_string_memory_ptr": {
						"encoding": "bytes",
						"label": "string",
						"numberOfBytes": "32"
					},
					"t_string_storage": {
						"encoding": "bytes",
						"label": "string",
						"numberOfBytes": "32"
					},
					"t_struct(goods)10_storage": {
						"encoding": "inplace",
						"label": "struct marketplace.goods",
						"members": [
							{
								"astId": 3,
								"contract": "project/marketplace.sol:marketplace",
								"label": "title",
								"offset": 0,
								"slot": "0",
								"type": "t_string_storage"
							},
							{
								"astId": 5,
								"contract": "project/marketplace.sol:marketplace",
								"label": "description",
								"offset": 0,
								"slot": "1",
								"type": "t_string_storage"
							},
							{
								"astId": 7,
								"contract": "project/marketplace.sol:marketplace",
								"label": "price",
								"offset": 0,
								"slot": "2",
								"type": "t_uint256"
							},
							{
								"astId": 9,
								"contract": "project/marketplace.sol:marketplace",
								"label": "owner",
								"offset": 0,
								"slot": "3",
								"type": "t_address"
							}
						],
						"numberOfBytes": "128"
					},
					"t_struct(user)17_storage": {
						"encoding": "inplace",
						"label": "struct marketplace.user",
						"members": [
							{
								"astId": 12,
								"contract": "project/marketplace.sol:marketplace",
								"label": "name",
								"offset": 0,
								"slot": "0",
								"type": "t_string_storage"
							},
							{
								"astId": 14,
								"contract": "project/marketplace.sol:marketplace",
								"label": "user_address",
								"offset": 0,
								"slot": "1",
								"type": "t_address"
							},
							{
								"astId": 16,
								"contract": "project/marketplace.sol:marketplace",
								"label": "exist",
								"offset": 20,
								"slot": "1",
								"type": "t_bool"
							}
						],
						"numberOfBytes": "64"
					},
					"t_uint256": {
						"encoding": "inplace",
						"label": "uint256",
						"numberOfBytes": "32"
					}
				}
			},
			"userdoc": {
				"kind": "user",
				"methods": {},
				"version": 1
			}
		}
	}
}