{
	"learning/firstContract.sol": {
		"firstContract": {
			"abi": [
				{
					"inputs": [
						{
							"internalType": "string",
							"name": "_firstname",
							"type": "string"
						},
						{
							"internalType": "string",
							"name": "_lastname",
							"type": "string"
						}
					],
					"name": "addPerson",
					"outputs": [],
					"stateMutability": "nonpayable",
					"type": "function"
				},
				{
					"inputs": [
						{
							"internalType": "uint256",
							"name": "",
							"type": "uint256"
						}
					],
					"name": "people",
					"outputs": [
						{
							"internalType": "string",
							"name": "_firstname",
							"type": "string"
						},
						{
							"internalType": "string",
							"name": "_lastname",
							"type": "string"
						}
					],
					"stateMutability": "view",
					"type": "function"
				}
			],
			"devdoc": {
				"kind": "dev",
				"methods": {},
				"version": 1
			},
			"evm": {
				"assembly": "    /* \"learning/firstContract.sol\":69:346  contract firstContract{... */\n  mstore(0x40, 0x80)\n  callvalue\n  dup1\n  iszero\n  tag_1\n  jumpi\n  0x00\n  dup1\n  revert\ntag_1:\n  pop\n  dataSize(sub_0)\n  dup1\n  dataOffset(sub_0)\n  0x00\n  codecopy\n  0x00\n  return\nstop\n\nsub_0: assembly {\n        /* \"learning/firstContract.sol\":69:346  contract firstContract{... */\n      mstore(0x40, 0x80)\n      callvalue\n      dup1\n      iszero\n      tag_1\n      jumpi\n      0x00\n      dup1\n      revert\n    tag_1:\n      pop\n      jumpi(tag_2, lt(calldatasize, 0x04))\n      shr(0xe0, calldataload(0x00))\n      dup1\n      0x22f5b58d\n      eq\n      tag_3\n      jumpi\n      dup1\n      0x9e7a13ad\n      eq\n      tag_4\n      jumpi\n    tag_2:\n      0x00\n      dup1\n      revert\n        /* \"learning/firstContract.sol\":209:344  function addPerson(string memory _firstname, string memory _lastname) public{... */\n    tag_3:\n      tag_5\n      0x04\n      dup1\n      calldatasize\n      sub\n      dup2\n      add\n      swap1\n      tag_6\n      swap2\n      swap1\n      tag_7\n      jump\t// in\n    tag_6:\n      tag_8\n      jump\t// in\n    tag_5:\n      stop\n        /* \"learning/firstContract.sol\":97:119  Person[] public people */\n    tag_4:\n      tag_9\n      0x04\n      dup1\n      calldatasize\n      sub\n      dup2\n      add\n      swap1\n      tag_10\n      swap2\n      swap1\n      tag_11\n      jump\t// in\n    tag_10:\n      tag_12\n      jump\t// in\n    tag_9:\n      mload(0x40)\n      tag_13\n      swap3\n      swap2\n      swap1\n      tag_14\n      jump\t// in\n    tag_13:\n      mload(0x40)\n      dup1\n      swap2\n      sub\n      swap1\n      return\n        /* \"learning/firstContract.sol\":209:344  function addPerson(string memory _firstname, string memory _lastname) public{... */\n    tag_8:\n        /* \"learning/firstContract.sol\":295:301  people */\n      0x00\n        /* \"learning/firstContract.sol\":307:336  Person(_firstname, _lastname) */\n      mload(0x40)\n      dup1\n      0x40\n      add\n      0x40\n      mstore\n      dup1\n        /* \"learning/firstContract.sol\":314:324  _firstname */\n      dup5\n        /* \"learning/firstContract.sol\":307:336  Person(_firstname, _lastname) */\n      dup2\n      mstore\n      0x20\n      add\n        /* \"learning/firstContract.sol\":326:335  _lastname */\n      dup4\n        /* \"learning/firstContract.sol\":307:336  Person(_firstname, _lastname) */\n      dup2\n      mstore\n      pop\n        /* \"learning/firstContract.sol\":295:337  people.push(Person(_firstname, _lastname)) */\n      swap1\n      dup1\n      0x01\n      dup2\n      sload\n      add\n      dup1\n      dup3\n      sstore\n      dup1\n      swap2\n      pop\n      pop\n      0x01\n      swap1\n      sub\n      swap1\n      0x00\n      mstore\n      keccak256(0x00, 0x20)\n      swap1\n      0x02\n      mul\n      add\n      0x00\n      swap1\n      swap2\n      swap1\n      swap2\n      swap1\n      swap2\n      pop\n      0x00\n      dup3\n      add\n      mload\n      dup2\n      0x00\n      add\n      swap1\n      dup1\n      mload\n      swap1\n      0x20\n      add\n      swap1\n      tag_17\n      swap3\n      swap2\n      swap1\n      tag_18\n      jump\t// in\n    tag_17:\n      pop\n      0x20\n      dup3\n      add\n      mload\n      dup2\n      0x01\n      add\n      swap1\n      dup1\n      mload\n      swap1\n      0x20\n      add\n      swap1\n      tag_19\n      swap3\n      swap2\n      swap1\n      tag_18\n      jump\t// in\n    tag_19:\n      pop\n      pop\n      pop\n        /* \"learning/firstContract.sol\":209:344  function addPerson(string memory _firstname, string memory _lastname) public{... */\n      pop\n      pop\n      jump\t// out\n        /* \"learning/firstContract.sol\":97:119  Person[] public people */\n    tag_12:\n      0x00\n      dup2\n      dup2\n      sload\n      dup2\n      lt\n      tag_20\n      jumpi\n      0x00\n      dup1\n      revert\n    tag_20:\n      swap1\n      0x00\n      mstore\n      keccak256(0x00, 0x20)\n      swap1\n      0x02\n      mul\n      add\n      0x00\n      swap2\n      pop\n      swap1\n      pop\n      dup1\n      0x00\n      add\n      dup1\n      sload\n      tag_22\n      swap1\n      tag_23\n      jump\t// in\n    tag_22:\n      dup1\n      0x1f\n      add\n      0x20\n      dup1\n      swap2\n      div\n      mul\n      0x20\n      add\n      mload(0x40)\n      swap1\n      dup2\n      add\n      0x40\n      mstore\n      dup1\n      swap3\n      swap2\n      swap1\n      dup2\n      dup2\n      mstore\n      0x20\n      add\n      dup3\n      dup1\n      sload\n      tag_24\n      swap1\n      tag_23\n      jump\t// in\n    tag_24:\n      dup1\n      iszero\n      tag_25\n      jumpi\n      dup1\n      0x1f\n      lt\n      tag_26\n      jumpi\n      0x0100\n      dup1\n      dup4\n      sload\n      div\n      mul\n      dup4\n      mstore\n      swap2\n      0x20\n      add\n      swap2\n      jump(tag_25)\n    tag_26:\n      dup3\n      add\n      swap2\n      swap1\n      0x00\n      mstore\n      keccak256(0x00, 0x20)\n      swap1\n    tag_27:\n      dup2\n      sload\n      dup2\n      mstore\n      swap1\n      0x01\n      add\n      swap1\n      0x20\n      add\n      dup1\n      dup4\n      gt\n      tag_27\n      jumpi\n      dup3\n      swap1\n      sub\n      0x1f\n      and\n      dup3\n      add\n      swap2\n    tag_25:\n      pop\n      pop\n      pop\n      pop\n      pop\n      swap1\n      dup1\n      0x01\n      add\n      dup1\n      sload\n      tag_28\n      swap1\n      tag_23\n      jump\t// in\n    tag_28:\n      dup1\n      0x1f\n      add\n      0x20\n      dup1\n      swap2\n      div\n      mul\n      0x20\n      add\n      mload(0x40)\n      swap1\n      dup2\n      add\n      0x40\n      mstore\n      dup1\n      swap3\n      swap2\n      swap1\n      dup2\n      dup2\n      mstore\n      0x20\n      add\n      dup3\n      dup1\n      sload\n      tag_29\n      swap1\n      tag_23\n      jump\t// in\n    tag_29:\n      dup1\n      iszero\n      tag_30\n      jumpi\n      dup1\n      0x1f\n      lt\n      tag_31\n      jumpi\n      0x0100\n      dup1\n      dup4\n      sload\n      div\n      mul\n      dup4\n      mstore\n      swap2\n      0x20\n      add\n      swap2\n      jump(tag_30)\n    tag_31:\n      dup3\n      add\n      swap2\n      swap1\n      0x00\n      mstore\n      keccak256(0x00, 0x20)\n      swap1\n    tag_32:\n      dup2\n      sload\n      dup2\n      mstore\n      swap1\n      0x01\n      add\n      swap1\n      0x20\n      add\n      dup1\n      dup4\n      gt\n      tag_32\n      jumpi\n      dup3\n      swap1\n      sub\n      0x1f\n      and\n      dup3\n      add\n      swap2\n    tag_30:\n      pop\n      pop\n      pop\n      pop\n      pop\n      swap1\n      pop\n      dup3\n      jump\t// out\n    tag_18:\n      dup3\n      dup1\n      sload\n      tag_33\n      swap1\n      tag_23\n      jump\t// in\n    tag_33:\n      swap1\n      0x00\n      mstore\n      keccak256(0x00, 0x20)\n      swap1\n      0x1f\n      add\n      0x20\n      swap1\n      div\n      dup2\n      add\n      swap3\n      dup3\n      tag_35\n      jumpi\n      0x00\n      dup6\n      sstore\n      jump(tag_34)\n    tag_35:\n      dup3\n      0x1f\n      lt\n      tag_36\n      jumpi\n      dup1\n      mload\n      not(0xff)\n      and\n      dup4\n      dup1\n      add\n      or\n      dup6\n      sstore\n      jump(tag_34)\n    tag_36:\n      dup3\n      dup1\n      add\n      0x01\n      add\n      dup6\n      sstore\n      dup3\n      iszero\n      tag_34\n      jumpi\n      swap2\n      dup3\n      add\n    tag_37:\n      dup3\n      dup2\n      gt\n      iszero\n      tag_38\n      jumpi\n      dup3\n      mload\n      dup3\n      sstore\n      swap2\n      0x20\n      add\n      swap2\n      swap1\n      0x01\n      add\n      swap1\n      jump(tag_37)\n    tag_38:\n    tag_34:\n      pop\n      swap1\n      pop\n      tag_39\n      swap2\n      swap1\n      tag_40\n      jump\t// in\n    tag_39:\n      pop\n      swap1\n      jump\t// out\n    tag_40:\n    tag_41:\n      dup1\n      dup3\n      gt\n      iszero\n      tag_42\n      jumpi\n      0x00\n      dup2\n      0x00\n      swap1\n      sstore\n      pop\n      0x01\n      add\n      jump(tag_41)\n    tag_42:\n      pop\n      swap1\n      jump\t// out\n        /* \"#utility.yul\":7:82   */\n    tag_43:\n        /* \"#utility.yul\":40:46   */\n      0x00\n        /* \"#utility.yul\":73:75   */\n      0x40\n        /* \"#utility.yul\":67:76   */\n      mload\n        /* \"#utility.yul\":57:76   */\n      swap1\n      pop\n        /* \"#utility.yul\":7:82   */\n      swap1\n      jump\t// out\n        /* \"#utility.yul\":88:205   */\n    tag_44:\n        /* \"#utility.yul\":197:198   */\n      0x00\n        /* \"#utility.yul\":194:195   */\n      dup1\n        /* \"#utility.yul\":187:199   */\n      revert\n        /* \"#utility.yul\":211:328   */\n    tag_45:\n        /* \"#utility.yul\":320:321   */\n      0x00\n        /* \"#utility.yul\":317:318   */\n      dup1\n        /* \"#utility.yul\":310:322   */\n      revert\n        /* \"#utility.yul\":334:451   */\n    tag_46:\n        /* \"#utility.yul\":443:444   */\n      0x00\n        /* \"#utility.yul\":440:441   */\n      dup1\n        /* \"#utility.yul\":433:445   */\n      revert\n        /* \"#utility.yul\":457:574   */\n    tag_47:\n        /* \"#utility.yul\":566:567   */\n      0x00\n        /* \"#utility.yul\":563:564   */\n      dup1\n        /* \"#utility.yul\":556:568   */\n      revert\n        /* \"#utility.yul\":580:682   */\n    tag_48:\n        /* \"#utility.yul\":621:627   */\n      0x00\n        /* \"#utility.yul\":672:674   */\n      0x1f\n        /* \"#utility.yul\":668:675   */\n      not\n        /* \"#utility.yul\":663:665   */\n      0x1f\n        /* \"#utility.yul\":656:661   */\n      dup4\n        /* \"#utility.yul\":652:666   */\n      add\n        /* \"#utility.yul\":648:676   */\n      and\n        /* \"#utility.yul\":638:676   */\n      swap1\n      pop\n        /* \"#utility.yul\":580:682   */\n      swap2\n      swap1\n      pop\n      jump\t// out\n        /* \"#utility.yul\":688:868   */\n    tag_49:\n        /* \"#utility.yul\":736:813   */\n      0x4e487b7100000000000000000000000000000000000000000000000000000000\n        /* \"#utility.yul\":733:734   */\n      0x00\n        /* \"#utility.yul\":726:814   */\n      mstore\n        /* \"#utility.yul\":833:837   */\n      0x41\n        /* \"#utility.yul\":830:831   */\n      0x04\n        /* \"#utility.yul\":823:838   */\n      mstore\n        /* \"#utility.yul\":857:861   */\n      0x24\n        /* \"#utility.yul\":854:855   */\n      0x00\n        /* \"#utility.yul\":847:862   */\n      revert\n        /* \"#utility.yul\":874:1155   */\n    tag_50:\n        /* \"#utility.yul\":957:984   */\n      tag_73\n        /* \"#utility.yul\":979:983   */\n      dup3\n        /* \"#utility.yul\":957:984   */\n      tag_48\n      jump\t// in\n    tag_73:\n        /* \"#utility.yul\":949:955   */\n      dup2\n        /* \"#utility.yul\":945:985   */\n      add\n        /* \"#utility.yul\":1087:1093   */\n      dup2\n        /* \"#utility.yul\":1075:1085   */\n      dup2\n        /* \"#utility.yul\":1072:1094   */\n      lt\n        /* \"#utility.yul\":1051:1069   */\n      0xffffffffffffffff\n        /* \"#utility.yul\":1039:1049   */\n      dup3\n        /* \"#utility.yul\":1036:1070   */\n      gt\n        /* \"#utility.yul\":1033:1095   */\n      or\n        /* \"#utility.yul\":1030:1118   */\n      iszero\n      tag_74\n      jumpi\n        /* \"#utility.yul\":1098:1116   */\n      tag_75\n      tag_49\n      jump\t// in\n    tag_75:\n        /* \"#utility.yul\":1030:1118   */\n    tag_74:\n        /* \"#utility.yul\":1138:1148   */\n      dup1\n        /* \"#utility.yul\":1134:1136   */\n      0x40\n        /* \"#utility.yul\":1127:1149   */\n      mstore\n        /* \"#utility.yul\":917:1155   */\n      pop\n        /* \"#utility.yul\":874:1155   */\n      pop\n      pop\n      jump\t// out\n        /* \"#utility.yul\":1161:1290   */\n    tag_51:\n        /* \"#utility.yul\":1195:1201   */\n      0x00\n        /* \"#utility.yul\":1222:1242   */\n      tag_77\n      tag_43\n      jump\t// in\n    tag_77:\n        /* \"#utility.yul\":1212:1242   */\n      swap1\n      pop\n        /* \"#utility.yul\":1251:1284   */\n      tag_78\n        /* \"#utility.yul\":1279:1283   */\n      dup3\n        /* \"#utility.yul\":1271:1277   */\n      dup3\n        /* \"#utility.yul\":1251:1284   */\n      tag_50\n      jump\t// in\n    tag_78:\n        /* \"#utility.yul\":1161:1290   */\n      swap2\n      swap1\n      pop\n      jump\t// out\n        /* \"#utility.yul\":1296:1604   */\n    tag_52:\n        /* \"#utility.yul\":1358:1362   */\n      0x00\n        /* \"#utility.yul\":1448:1466   */\n      0xffffffffffffffff\n        /* \"#utility.yul\":1440:1446   */\n      dup3\n        /* \"#utility.yul\":1437:1467   */\n      gt\n        /* \"#utility.yul\":1434:1490   */\n      iszero\n      tag_80\n      jumpi\n        /* \"#utility.yul\":1470:1488   */\n      tag_81\n      tag_49\n      jump\t// in\n    tag_81:\n        /* \"#utility.yul\":1434:1490   */\n    tag_80:\n        /* \"#utility.yul\":1508:1537   */\n      tag_82\n        /* \"#utility.yul\":1530:1536   */\n      dup3\n        /* \"#utility.yul\":1508:1537   */\n      tag_48\n      jump\t// in\n    tag_82:\n        /* \"#utility.yul\":1500:1537   */\n      swap1\n      pop\n        /* \"#utility.yul\":1592:1596   */\n      0x20\n        /* \"#utility.yul\":1586:1590   */\n      dup2\n        /* \"#utility.yul\":1582:1597   */\n      add\n        /* \"#utility.yul\":1574:1597   */\n      swap1\n      pop\n        /* \"#utility.yul\":1296:1604   */\n      swap2\n      swap1\n      pop\n      jump\t// out\n        /* \"#utility.yul\":1610:1764   */\n    tag_53:\n        /* \"#utility.yul\":1694:1700   */\n      dup3\n        /* \"#utility.yul\":1689:1692   */\n      dup2\n        /* \"#utility.yul\":1684:1687   */\n      dup4\n        /* \"#utility.yul\":1671:1701   */\n      calldatacopy\n        /* \"#utility.yul\":1756:1757   */\n      0x00\n        /* \"#utility.yul\":1747:1753   */\n      dup4\n        /* \"#utility.yul\":1742:1745   */\n      dup4\n        /* \"#utility.yul\":1738:1754   */\n      add\n        /* \"#utility.yul\":1731:1758   */\n      mstore\n        /* \"#utility.yul\":1610:1764   */\n      pop\n      pop\n      pop\n      jump\t// out\n        /* \"#utility.yul\":1770:2182   */\n    tag_54:\n        /* \"#utility.yul\":1848:1853   */\n      0x00\n        /* \"#utility.yul\":1873:1939   */\n      tag_85\n        /* \"#utility.yul\":1889:1938   */\n      tag_86\n        /* \"#utility.yul\":1931:1937   */\n      dup5\n        /* \"#utility.yul\":1889:1938   */\n      tag_52\n      jump\t// in\n    tag_86:\n        /* \"#utility.yul\":1873:1939   */\n      tag_51\n      jump\t// in\n    tag_85:\n        /* \"#utility.yul\":1864:1939   */\n      swap1\n      pop\n        /* \"#utility.yul\":1962:1968   */\n      dup3\n        /* \"#utility.yul\":1955:1960   */\n      dup2\n        /* \"#utility.yul\":1948:1969   */\n      mstore\n        /* \"#utility.yul\":2000:2004   */\n      0x20\n        /* \"#utility.yul\":1993:1998   */\n      dup2\n        /* \"#utility.yul\":1989:2005   */\n      add\n        /* \"#utility.yul\":2038:2041   */\n      dup5\n        /* \"#utility.yul\":2029:2035   */\n      dup5\n        /* \"#utility.yul\":2024:2027   */\n      dup5\n        /* \"#utility.yul\":2020:2036   */\n      add\n        /* \"#utility.yul\":2017:2042   */\n      gt\n        /* \"#utility.yul\":2014:2126   */\n      iszero\n      tag_87\n      jumpi\n        /* \"#utility.yul\":2045:2124   */\n      tag_88\n      tag_47\n      jump\t// in\n    tag_88:\n        /* \"#utility.yul\":2014:2126   */\n    tag_87:\n        /* \"#utility.yul\":2135:2176   */\n      tag_89\n        /* \"#utility.yul\":2169:2175   */\n      dup5\n        /* \"#utility.yul\":2164:2167   */\n      dup3\n        /* \"#utility.yul\":2159:2162   */\n      dup6\n        /* \"#utility.yul\":2135:2176   */\n      tag_53\n      jump\t// in\n    tag_89:\n        /* \"#utility.yul\":1854:2182   */\n      pop\n        /* \"#utility.yul\":1770:2182   */\n      swap4\n      swap3\n      pop\n      pop\n      pop\n      jump\t// out\n        /* \"#utility.yul\":2202:2542   */\n    tag_55:\n        /* \"#utility.yul\":2258:2263   */\n      0x00\n        /* \"#utility.yul\":2307:2310   */\n      dup3\n        /* \"#utility.yul\":2300:2304   */\n      0x1f\n        /* \"#utility.yul\":2292:2298   */\n      dup4\n        /* \"#utility.yul\":2288:2305   */\n      add\n        /* \"#utility.yul\":2284:2311   */\n      slt\n        /* \"#utility.yul\":2274:2396   */\n      tag_91\n      jumpi\n        /* \"#utility.yul\":2315:2394   */\n      tag_92\n      tag_46\n      jump\t// in\n    tag_92:\n        /* \"#utility.yul\":2274:2396   */\n    tag_91:\n        /* \"#utility.yul\":2432:2438   */\n      dup2\n        /* \"#utility.yul\":2419:2439   */\n      calldataload\n        /* \"#utility.yul\":2457:2536   */\n      tag_93\n        /* \"#utility.yul\":2532:2535   */\n      dup5\n        /* \"#utility.yul\":2524:2530   */\n      dup3\n        /* \"#utility.yul\":2517:2521   */\n      0x20\n        /* \"#utility.yul\":2509:2515   */\n      dup7\n        /* \"#utility.yul\":2505:2522   */\n      add\n        /* \"#utility.yul\":2457:2536   */\n      tag_54\n      jump\t// in\n    tag_93:\n        /* \"#utility.yul\":2448:2536   */\n      swap2\n      pop\n        /* \"#utility.yul\":2264:2542   */\n      pop\n        /* \"#utility.yul\":2202:2542   */\n      swap3\n      swap2\n      pop\n      pop\n      jump\t// out\n        /* \"#utility.yul\":2548:3382   */\n    tag_7:\n        /* \"#utility.yul\":2636:2642   */\n      0x00\n        /* \"#utility.yul\":2644:2650   */\n      dup1\n        /* \"#utility.yul\":2693:2695   */\n      0x40\n        /* \"#utility.yul\":2681:2690   */\n      dup4\n        /* \"#utility.yul\":2672:2679   */\n      dup6\n        /* \"#utility.yul\":2668:2691   */\n      sub\n        /* \"#utility.yul\":2664:2696   */\n      slt\n        /* \"#utility.yul\":2661:2780   */\n      iszero\n      tag_95\n      jumpi\n        /* \"#utility.yul\":2699:2778   */\n      tag_96\n      tag_44\n      jump\t// in\n    tag_96:\n        /* \"#utility.yul\":2661:2780   */\n    tag_95:\n        /* \"#utility.yul\":2847:2848   */\n      0x00\n        /* \"#utility.yul\":2836:2845   */\n      dup4\n        /* \"#utility.yul\":2832:2849   */\n      add\n        /* \"#utility.yul\":2819:2850   */\n      calldataload\n        /* \"#utility.yul\":2877:2895   */\n      0xffffffffffffffff\n        /* \"#utility.yul\":2869:2875   */\n      dup2\n        /* \"#utility.yul\":2866:2896   */\n      gt\n        /* \"#utility.yul\":2863:2980   */\n      iszero\n      tag_97\n      jumpi\n        /* \"#utility.yul\":2899:2978   */\n      tag_98\n      tag_45\n      jump\t// in\n    tag_98:\n        /* \"#utility.yul\":2863:2980   */\n    tag_97:\n        /* \"#utility.yul\":3004:3067   */\n      tag_99\n        /* \"#utility.yul\":3059:3066   */\n      dup6\n        /* \"#utility.yul\":3050:3056   */\n      dup3\n        /* \"#utility.yul\":3039:3048   */\n      dup7\n        /* \"#utility.yul\":3035:3057   */\n      add\n        /* \"#utility.yul\":3004:3067   */\n      tag_55\n      jump\t// in\n    tag_99:\n        /* \"#utility.yul\":2994:3067   */\n      swap3\n      pop\n        /* \"#utility.yul\":2790:3077   */\n      pop\n        /* \"#utility.yul\":3144:3146   */\n      0x20\n        /* \"#utility.yul\":3133:3142   */\n      dup4\n        /* \"#utility.yul\":3129:3147   */\n      add\n        /* \"#utility.yul\":3116:3148   */\n      calldataload\n        /* \"#utility.yul\":3175:3193   */\n      0xffffffffffffffff\n        /* \"#utility.yul\":3167:3173   */\n      dup2\n        /* \"#utility.yul\":3164:3194   */\n      gt\n        /* \"#utility.yul\":3161:3278   */\n      iszero\n      tag_100\n      jumpi\n        /* \"#utility.yul\":3197:3276   */\n      tag_101\n      tag_45\n      jump\t// in\n    tag_101:\n        /* \"#utility.yul\":3161:3278   */\n    tag_100:\n        /* \"#utility.yul\":3302:3365   */\n      tag_102\n        /* \"#utility.yul\":3357:3364   */\n      dup6\n        /* \"#utility.yul\":3348:3354   */\n      dup3\n        /* \"#utility.yul\":3337:3346   */\n      dup7\n        /* \"#utility.yul\":3333:3355   */\n      add\n        /* \"#utility.yul\":3302:3365   */\n      tag_55\n      jump\t// in\n    tag_102:\n        /* \"#utility.yul\":3292:3365   */\n      swap2\n      pop\n        /* \"#utility.yul\":3087:3375   */\n      pop\n        /* \"#utility.yul\":2548:3382   */\n      swap3\n      pop\n      swap3\n      swap1\n      pop\n      jump\t// out\n        /* \"#utility.yul\":3388:3465   */\n    tag_56:\n        /* \"#utility.yul\":3425:3432   */\n      0x00\n        /* \"#utility.yul\":3454:3459   */\n      dup2\n        /* \"#utility.yul\":3443:3459   */\n      swap1\n      pop\n        /* \"#utility.yul\":3388:3465   */\n      swap2\n      swap1\n      pop\n      jump\t// out\n        /* \"#utility.yul\":3471:3593   */\n    tag_57:\n        /* \"#utility.yul\":3544:3568   */\n      tag_105\n        /* \"#utility.yul\":3562:3567   */\n      dup2\n        /* \"#utility.yul\":3544:3568   */\n      tag_56\n      jump\t// in\n    tag_105:\n        /* \"#utility.yul\":3537:3542   */\n      dup2\n        /* \"#utility.yul\":3534:3569   */\n      eq\n        /* \"#utility.yul\":3524:3587   */\n      tag_106\n      jumpi\n        /* \"#utility.yul\":3583:3584   */\n      0x00\n        /* \"#utility.yul\":3580:3581   */\n      dup1\n        /* \"#utility.yul\":3573:3585   */\n      revert\n        /* \"#utility.yul\":3524:3587   */\n    tag_106:\n        /* \"#utility.yul\":3471:3593   */\n      pop\n      jump\t// out\n        /* \"#utility.yul\":3599:3738   */\n    tag_58:\n        /* \"#utility.yul\":3645:3650   */\n      0x00\n        /* \"#utility.yul\":3683:3689   */\n      dup2\n        /* \"#utility.yul\":3670:3690   */\n      calldataload\n        /* \"#utility.yul\":3661:3690   */\n      swap1\n      pop\n        /* \"#utility.yul\":3699:3732   */\n      tag_108\n        /* \"#utility.yul\":3726:3731   */\n      dup2\n        /* \"#utility.yul\":3699:3732   */\n      tag_57\n      jump\t// in\n    tag_108:\n        /* \"#utility.yul\":3599:3738   */\n      swap3\n      swap2\n      pop\n      pop\n      jump\t// out\n        /* \"#utility.yul\":3744:4073   */\n    tag_11:\n        /* \"#utility.yul\":3803:3809   */\n      0x00\n        /* \"#utility.yul\":3852:3854   */\n      0x20\n        /* \"#utility.yul\":3840:3849   */\n      dup3\n        /* \"#utility.yul\":3831:3838   */\n      dup5\n        /* \"#utility.yul\":3827:3850   */\n      sub\n        /* \"#utility.yul\":3823:3855   */\n      slt\n        /* \"#utility.yul\":3820:3939   */\n      iszero\n      tag_110\n      jumpi\n        /* \"#utility.yul\":3858:3937   */\n      tag_111\n      tag_44\n      jump\t// in\n    tag_111:\n        /* \"#utility.yul\":3820:3939   */\n    tag_110:\n        /* \"#utility.yul\":3978:3979   */\n      0x00\n        /* \"#utility.yul\":4003:4056   */\n      tag_112\n        /* \"#utility.yul\":4048:4055   */\n      dup5\n        /* \"#utility.yul\":4039:4045   */\n      dup3\n        /* \"#utility.yul\":4028:4037   */\n      dup6\n        /* \"#utility.yul\":4024:4046   */\n      add\n        /* \"#utility.yul\":4003:4056   */\n      tag_58\n      jump\t// in\n    tag_112:\n        /* \"#utility.yul\":3993:4056   */\n      swap2\n      pop\n        /* \"#utility.yul\":3949:4066   */\n      pop\n        /* \"#utility.yul\":3744:4073   */\n      swap3\n      swap2\n      pop\n      pop\n      jump\t// out\n        /* \"#utility.yul\":4079:4178   */\n    tag_59:\n        /* \"#utility.yul\":4131:4137   */\n      0x00\n        /* \"#utility.yul\":4165:4170   */\n      dup2\n        /* \"#utility.yul\":4159:4171   */\n      mload\n        /* \"#utility.yul\":4149:4171   */\n      swap1\n      pop\n        /* \"#utility.yul\":4079:4178   */\n      swap2\n      swap1\n      pop\n      jump\t// out\n        /* \"#utility.yul\":4184:4353   */\n    tag_60:\n        /* \"#utility.yul\":4268:4279   */\n      0x00\n        /* \"#utility.yul\":4302:4308   */\n      dup3\n        /* \"#utility.yul\":4297:4300   */\n      dup3\n        /* \"#utility.yul\":4290:4309   */\n      mstore\n        /* \"#utility.yul\":4342:4346   */\n      0x20\n        /* \"#utility.yul\":4337:4340   */\n      dup3\n        /* \"#utility.yul\":4333:4347   */\n      add\n        /* \"#utility.yul\":4318:4347   */\n      swap1\n      pop\n        /* \"#utility.yul\":4184:4353   */\n      swap3\n      swap2\n      pop\n      pop\n      jump\t// out\n        /* \"#utility.yul\":4359:4666   */\n    tag_61:\n        /* \"#utility.yul\":4427:4428   */\n      0x00\n        /* \"#utility.yul\":4437:4550   */\n    tag_116:\n        /* \"#utility.yul\":4451:4457   */\n      dup4\n        /* \"#utility.yul\":4448:4449   */\n      dup2\n        /* \"#utility.yul\":4445:4458   */\n      lt\n        /* \"#utility.yul\":4437:4550   */\n      iszero\n      tag_118\n      jumpi\n        /* \"#utility.yul\":4536:4537   */\n      dup1\n        /* \"#utility.yul\":4531:4534   */\n      dup3\n        /* \"#utility.yul\":4527:4538   */\n      add\n        /* \"#utility.yul\":4521:4539   */\n      mload\n        /* \"#utility.yul\":4517:4518   */\n      dup2\n        /* \"#utility.yul\":4512:4515   */\n      dup5\n        /* \"#utility.yul\":4508:4519   */\n      add\n        /* \"#utility.yul\":4501:4540   */\n      mstore\n        /* \"#utility.yul\":4473:4475   */\n      0x20\n        /* \"#utility.yul\":4470:4471   */\n      dup2\n        /* \"#utility.yul\":4466:4476   */\n      add\n        /* \"#utility.yul\":4461:4476   */\n      swap1\n      pop\n        /* \"#utility.yul\":4437:4550   */\n      jump(tag_116)\n    tag_118:\n        /* \"#utility.yul\":4568:4574   */\n      dup4\n        /* \"#utility.yul\":4565:4566   */\n      dup2\n        /* \"#utility.yul\":4562:4575   */\n      gt\n        /* \"#utility.yul\":4559:4660   */\n      iszero\n      tag_119\n      jumpi\n        /* \"#utility.yul\":4648:4649   */\n      0x00\n        /* \"#utility.yul\":4639:4645   */\n      dup5\n        /* \"#utility.yul\":4634:4637   */\n      dup5\n        /* \"#utility.yul\":4630:4646   */\n      add\n        /* \"#utility.yul\":4623:4650   */\n      mstore\n        /* \"#utility.yul\":4559:4660   */\n    tag_119:\n        /* \"#utility.yul\":4408:4666   */\n      pop\n        /* \"#utility.yul\":4359:4666   */\n      pop\n      pop\n      pop\n      jump\t// out\n        /* \"#utility.yul\":4672:5036   */\n    tag_62:\n        /* \"#utility.yul\":4760:4763   */\n      0x00\n        /* \"#utility.yul\":4788:4827   */\n      tag_121\n        /* \"#utility.yul\":4821:4826   */\n      dup3\n        /* \"#utility.yul\":4788:4827   */\n      tag_59\n      jump\t// in\n    tag_121:\n        /* \"#utility.yul\":4843:4914   */\n      tag_122\n        /* \"#utility.yul\":4907:4913   */\n      dup2\n        /* \"#utility.yul\":4902:4905   */\n      dup6\n        /* \"#utility.yul\":4843:4914   */\n      tag_60\n      jump\t// in\n    tag_122:\n        /* \"#utility.yul\":4836:4914   */\n      swap4\n      pop\n        /* \"#utility.yul\":4923:4975   */\n      tag_123\n        /* \"#utility.yul\":4968:4974   */\n      dup2\n        /* \"#utility.yul\":4963:4966   */\n      dup6\n        /* \"#utility.yul\":4956:4960   */\n      0x20\n        /* \"#utility.yul\":4949:4954   */\n      dup7\n        /* \"#utility.yul\":4945:4961   */\n      add\n        /* \"#utility.yul\":4923:4975   */\n      tag_61\n      jump\t// in\n    tag_123:\n        /* \"#utility.yul\":5000:5029   */\n      tag_124\n        /* \"#utility.yul\":5022:5028   */\n      dup2\n        /* \"#utility.yul\":5000:5029   */\n      tag_48\n      jump\t// in\n    tag_124:\n        /* \"#utility.yul\":4995:4998   */\n      dup5\n        /* \"#utility.yul\":4991:5030   */\n      add\n        /* \"#utility.yul\":4984:5030   */\n      swap2\n      pop\n        /* \"#utility.yul\":4764:5036   */\n      pop\n        /* \"#utility.yul\":4672:5036   */\n      swap3\n      swap2\n      pop\n      pop\n      jump\t// out\n        /* \"#utility.yul\":5042:5556   */\n    tag_14:\n        /* \"#utility.yul\":5203:5207   */\n      0x00\n        /* \"#utility.yul\":5241:5243   */\n      0x40\n        /* \"#utility.yul\":5230:5239   */\n      dup3\n        /* \"#utility.yul\":5226:5244   */\n      add\n        /* \"#utility.yul\":5218:5244   */\n      swap1\n      pop\n        /* \"#utility.yul\":5290:5299   */\n      dup2\n        /* \"#utility.yul\":5284:5288   */\n      dup2\n        /* \"#utility.yul\":5280:5300   */\n      sub\n        /* \"#utility.yul\":5276:5277   */\n      0x00\n        /* \"#utility.yul\":5265:5274   */\n      dup4\n        /* \"#utility.yul\":5261:5278   */\n      add\n        /* \"#utility.yul\":5254:5301   */\n      mstore\n        /* \"#utility.yul\":5318:5396   */\n      tag_126\n        /* \"#utility.yul\":5391:5395   */\n      dup2\n        /* \"#utility.yul\":5382:5388   */\n      dup6\n        /* \"#utility.yul\":5318:5396   */\n      tag_62\n      jump\t// in\n    tag_126:\n        /* \"#utility.yul\":5310:5396   */\n      swap1\n      pop\n        /* \"#utility.yul\":5443:5452   */\n      dup2\n        /* \"#utility.yul\":5437:5441   */\n      dup2\n        /* \"#utility.yul\":5433:5453   */\n      sub\n        /* \"#utility.yul\":5428:5430   */\n      0x20\n        /* \"#utility.yul\":5417:5426   */\n      dup4\n        /* \"#utility.yul\":5413:5431   */\n      add\n        /* \"#utility.yul\":5406:5454   */\n      mstore\n        /* \"#utility.yul\":5471:5549   */\n      tag_127\n        /* \"#utility.yul\":5544:5548   */\n      dup2\n        /* \"#utility.yul\":5535:5541   */\n      dup5\n        /* \"#utility.yul\":5471:5549   */\n      tag_62\n      jump\t// in\n    tag_127:\n        /* \"#utility.yul\":5463:5549   */\n      swap1\n      pop\n        /* \"#utility.yul\":5042:5556   */\n      swap4\n      swap3\n      pop\n      pop\n      pop\n      jump\t// out\n        /* \"#utility.yul\":5562:5742   */\n    tag_63:\n        /* \"#utility.yul\":5610:5687   */\n      0x4e487b7100000000000000000000000000000000000000000000000000000000\n        /* \"#utility.yul\":5607:5608   */\n      0x00\n        /* \"#utility.yul\":5600:5688   */\n      mstore\n        /* \"#utility.yul\":5707:5711   */\n      0x22\n        /* \"#utility.yul\":5704:5705   */\n      0x04\n        /* \"#utility.yul\":5697:5712   */\n      mstore\n        /* \"#utility.yul\":5731:5735   */\n      0x24\n        /* \"#utility.yul\":5728:5729   */\n      0x00\n        /* \"#utility.yul\":5721:5736   */\n      revert\n        /* \"#utility.yul\":5748:6068   */\n    tag_23:\n        /* \"#utility.yul\":5792:5798   */\n      0x00\n        /* \"#utility.yul\":5829:5830   */\n      0x02\n        /* \"#utility.yul\":5823:5827   */\n      dup3\n        /* \"#utility.yul\":5819:5831   */\n      div\n        /* \"#utility.yul\":5809:5831   */\n      swap1\n      pop\n        /* \"#utility.yul\":5876:5877   */\n      0x01\n        /* \"#utility.yul\":5870:5874   */\n      dup3\n        /* \"#utility.yul\":5866:5878   */\n      and\n        /* \"#utility.yul\":5897:5915   */\n      dup1\n        /* \"#utility.yul\":5887:5968   */\n      tag_130\n      jumpi\n        /* \"#utility.yul\":5953:5957   */\n      0x7f\n        /* \"#utility.yul\":5945:5951   */\n      dup3\n        /* \"#utility.yul\":5941:5958   */\n      and\n        /* \"#utility.yul\":5931:5958   */\n      swap2\n      pop\n        /* \"#utility.yul\":5887:5968   */\n    tag_130:\n        /* \"#utility.yul\":6015:6017   */\n      0x20\n        /* \"#utility.yul\":6007:6013   */\n      dup3\n        /* \"#utility.yul\":6004:6018   */\n      lt\n        /* \"#utility.yul\":5984:6002   */\n      dup2\n        /* \"#utility.yul\":5981:6019   */\n      sub\n        /* \"#utility.yul\":5978:6062   */\n      tag_131\n      jumpi\n        /* \"#utility.yul\":6034:6052   */\n      tag_132\n      tag_63\n      jump\t// in\n    tag_132:\n        /* \"#utility.yul\":5978:6062   */\n    tag_131:\n        /* \"#utility.yul\":5799:6068   */\n      pop\n        /* \"#utility.yul\":5748:6068   */\n      swap2\n      swap1\n      pop\n      jump\t// out\n\n    auxdata: 0xa2646970667358221220be6e739e23963833e31f9b93fa46bfad5bd20e5a4977f2b62e6fb13475b4ca0564736f6c634300080e0033\n}\n",
				"bytecode": {
					"linkReferences": {},
					"object": "608060405234801561001057600080fd5b50610679806100206000396000f3fe608060405234801561001057600080fd5b50600436106100365760003560e01c806322f5b58d1461003b5780639e7a13ad14610057575b600080fd5b61005560048036038101906100509190610449565b610088565b005b610071600480360381019061006c91906104f7565b610108565b60405161007f9291906105ac565b60405180910390f35b6000604051806040016040528084815260200183815250908060018154018082558091505060019003906000526020600020906002020160009091909190915060008201518160000190805190602001906100e492919061024c565b50602082015181600101908051906020019061010192919061024c565b5050505050565b6000818154811061011857600080fd5b906000526020600020906002020160009150905080600001805461013b90610612565b80601f016020809104026020016040519081016040528092919081815260200182805461016790610612565b80156101b45780601f10610189576101008083540402835291602001916101b4565b820191906000526020600020905b81548152906001019060200180831161019757829003601f168201915b5050505050908060010180546101c990610612565b80601f01602080910402602001604051908101604052809291908181526020018280546101f590610612565b80156102425780601f1061021757610100808354040283529160200191610242565b820191906000526020600020905b81548152906001019060200180831161022557829003601f168201915b5050505050905082565b82805461025890610612565b90600052602060002090601f01602090048101928261027a57600085556102c1565b82601f1061029357805160ff19168380011785556102c1565b828001600101855582156102c1579182015b828111156102c05782518255916020019190600101906102a5565b5b5090506102ce91906102d2565b5090565b5b808211156102eb5760008160009055506001016102d3565b5090565b6000604051905090565b600080fd5b600080fd5b600080fd5b600080fd5b6000601f19601f8301169050919050565b7f4e487b7100000000000000000000000000000000000000000000000000000000600052604160045260246000fd5b6103568261030d565b810181811067ffffffffffffffff821117156103755761037461031e565b5b80604052505050565b60006103886102ef565b9050610394828261034d565b919050565b600067ffffffffffffffff8211156103b4576103b361031e565b5b6103bd8261030d565b9050602081019050919050565b82818337600083830152505050565b60006103ec6103e784610399565b61037e565b90508281526020810184848401111561040857610407610308565b5b6104138482856103ca565b509392505050565b600082601f8301126104305761042f610303565b5b81356104408482602086016103d9565b91505092915050565b600080604083850312156104605761045f6102f9565b5b600083013567ffffffffffffffff81111561047e5761047d6102fe565b5b61048a8582860161041b565b925050602083013567ffffffffffffffff8111156104ab576104aa6102fe565b5b6104b78582860161041b565b9150509250929050565b6000819050919050565b6104d4816104c1565b81146104df57600080fd5b50565b6000813590506104f1816104cb565b92915050565b60006020828403121561050d5761050c6102f9565b5b600061051b848285016104e2565b91505092915050565b600081519050919050565b600082825260208201905092915050565b60005b8381101561055e578082015181840152602081019050610543565b8381111561056d576000848401525b50505050565b600061057e82610524565b610588818561052f565b9350610598818560208601610540565b6105a18161030d565b840191505092915050565b600060408201905081810360008301526105c68185610573565b905081810360208301526105da8184610573565b90509392505050565b7f4e487b7100000000000000000000000000000000000000000000000000000000600052602260045260246000fd5b6000600282049050600182168061062a57607f821691505b60208210810361063d5761063c6105e3565b5b5091905056fea2646970667358221220be6e739e23963833e31f9b93fa46bfad5bd20e5a4977f2b62e6fb13475b4ca0564736f6c634300080e0033",
					"opcodes": "PUSH1 0x80 PUSH1 0x40 MSTORE CALLVALUE DUP1 ISZERO PUSH2 0x10 JUMPI PUSH1 0x0 DUP1 REVERT JUMPDEST POP PUSH2 0x679 DUP1 PUSH2 0x20 PUSH1 0x0 CODECOPY PUSH1 0x0 RETURN INVALID PUSH1 0x80 PUSH1 0x40 MSTORE CALLVALUE DUP1 ISZERO PUSH2 0x10 JUMPI PUSH1 0x0 DUP1 REVERT JUMPDEST POP PUSH1 0x4 CALLDATASIZE LT PUSH2 0x36 JUMPI PUSH1 0x0 CALLDATALOAD PUSH1 0xE0 SHR DUP1 PUSH4 0x22F5B58D EQ PUSH2 0x3B JUMPI DUP1 PUSH4 0x9E7A13AD EQ PUSH2 0x57 JUMPI JUMPDEST PUSH1 0x0 DUP1 REVERT JUMPDEST PUSH2 0x55 PUSH1 0x4 DUP1 CALLDATASIZE SUB DUP2 ADD SWAP1 PUSH2 0x50 SWAP2 SWAP1 PUSH2 0x449 JUMP JUMPDEST PUSH2 0x88 JUMP JUMPDEST STOP JUMPDEST PUSH2 0x71 PUSH1 0x4 DUP1 CALLDATASIZE SUB DUP2 ADD SWAP1 PUSH2 0x6C SWAP2 SWAP1 PUSH2 0x4F7 JUMP JUMPDEST PUSH2 0x108 JUMP JUMPDEST PUSH1 0x40 MLOAD PUSH2 0x7F SWAP3 SWAP2 SWAP1 PUSH2 0x5AC JUMP JUMPDEST PUSH1 0x40 MLOAD DUP1 SWAP2 SUB SWAP1 RETURN JUMPDEST PUSH1 0x0 PUSH1 0x40 MLOAD DUP1 PUSH1 0x40 ADD PUSH1 0x40 MSTORE DUP1 DUP5 DUP2 MSTORE PUSH1 0x20 ADD DUP4 DUP2 MSTORE POP SWAP1 DUP1 PUSH1 0x1 DUP2 SLOAD ADD DUP1 DUP3 SSTORE DUP1 SWAP2 POP POP PUSH1 0x1 SWAP1 SUB SWAP1 PUSH1 0x0 MSTORE PUSH1 0x20 PUSH1 0x0 KECCAK256 SWAP1 PUSH1 0x2 MUL ADD PUSH1 0x0 SWAP1 SWAP2 SWAP1 SWAP2 SWAP1 SWAP2 POP PUSH1 0x0 DUP3 ADD MLOAD DUP2 PUSH1 0x0 ADD SWAP1 DUP1 MLOAD SWAP1 PUSH1 0x20 ADD SWAP1 PUSH2 0xE4 SWAP3 SWAP2 SWAP1 PUSH2 0x24C JUMP JUMPDEST POP PUSH1 0x20 DUP3 ADD MLOAD DUP2 PUSH1 0x1 ADD SWAP1 DUP1 MLOAD SWAP1 PUSH1 0x20 ADD SWAP1 PUSH2 0x101 SWAP3 SWAP2 SWAP1 PUSH2 0x24C JUMP JUMPDEST POP POP POP POP POP JUMP JUMPDEST PUSH1 0x0 DUP2 DUP2 SLOAD DUP2 LT PUSH2 0x118 JUMPI PUSH1 0x0 DUP1 REVERT JUMPDEST SWAP1 PUSH1 0x0 MSTORE PUSH1 0x20 PUSH1 0x0 KECCAK256 SWAP1 PUSH1 0x2 MUL ADD PUSH1 0x0 SWAP2 POP SWAP1 POP DUP1 PUSH1 0x0 ADD DUP1 SLOAD PUSH2 0x13B SWAP1 PUSH2 0x612 JUMP JUMPDEST DUP1 PUSH1 0x1F ADD PUSH1 0x20 DUP1 SWAP2 DIV MUL PUSH1 0x20 ADD PUSH1 0x40 MLOAD SWAP1 DUP2 ADD PUSH1 0x40 MSTORE DUP1 SWAP3 SWAP2 SWAP1 DUP2 DUP2 MSTORE PUSH1 0x20 ADD DUP3 DUP1 SLOAD PUSH2 0x167 SWAP1 PUSH2 0x612 JUMP JUMPDEST DUP1 ISZERO PUSH2 0x1B4 JUMPI DUP1 PUSH1 0x1F LT PUSH2 0x189 JUMPI PUSH2 0x100 DUP1 DUP4 SLOAD DIV MUL DUP4 MSTORE SWAP2 PUSH1 0x20 ADD SWAP2 PUSH2 0x1B4 JUMP JUMPDEST DUP3 ADD SWAP2 SWAP1 PUSH1 0x0 MSTORE PUSH1 0x20 PUSH1 0x0 KECCAK256 SWAP1 JUMPDEST DUP2 SLOAD DUP2 MSTORE SWAP1 PUSH1 0x1 ADD SWAP1 PUSH1 0x20 ADD DUP1 DUP4 GT PUSH2 0x197 JUMPI DUP3 SWAP1 SUB PUSH1 0x1F AND DUP3 ADD SWAP2 JUMPDEST POP POP POP POP POP SWAP1 DUP1 PUSH1 0x1 ADD DUP1 SLOAD PUSH2 0x1C9 SWAP1 PUSH2 0x612 JUMP JUMPDEST DUP1 PUSH1 0x1F ADD PUSH1 0x20 DUP1 SWAP2 DIV MUL PUSH1 0x20 ADD PUSH1 0x40 MLOAD SWAP1 DUP2 ADD PUSH1 0x40 MSTORE DUP1 SWAP3 SWAP2 SWAP1 DUP2 DUP2 MSTORE PUSH1 0x20 ADD DUP3 DUP1 SLOAD PUSH2 0x1F5 SWAP1 PUSH2 0x612 JUMP JUMPDEST DUP1 ISZERO PUSH2 0x242 JUMPI DUP1 PUSH1 0x1F LT PUSH2 0x217 JUMPI PUSH2 0x100 DUP1 DUP4 SLOAD DIV MUL DUP4 MSTORE SWAP2 PUSH1 0x20 ADD SWAP2 PUSH2 0x242 JUMP JUMPDEST DUP3 ADD SWAP2 SWAP1 PUSH1 0x0 MSTORE PUSH1 0x20 PUSH1 0x0 KECCAK256 SWAP1 JUMPDEST DUP2 SLOAD DUP2 MSTORE SWAP1 PUSH1 0x1 ADD SWAP1 PUSH1 0x20 ADD DUP1 DUP4 GT PUSH2 0x225 JUMPI DUP3 SWAP1 SUB PUSH1 0x1F AND DUP3 ADD SWAP2 JUMPDEST POP POP POP POP POP SWAP1 POP DUP3 JUMP JUMPDEST DUP3 DUP1 SLOAD PUSH2 0x258 SWAP1 PUSH2 0x612 JUMP JUMPDEST SWAP1 PUSH1 0x0 MSTORE PUSH1 0x20 PUSH1 0x0 KECCAK256 SWAP1 PUSH1 0x1F ADD PUSH1 0x20 SWAP1 DIV DUP2 ADD SWAP3 DUP3 PUSH2 0x27A JUMPI PUSH1 0x0 DUP6 SSTORE PUSH2 0x2C1 JUMP JUMPDEST DUP3 PUSH1 0x1F LT PUSH2 0x293 JUMPI DUP1 MLOAD PUSH1 0xFF NOT AND DUP4 DUP1 ADD OR DUP6 SSTORE PUSH2 0x2C1 JUMP JUMPDEST DUP3 DUP1 ADD PUSH1 0x1 ADD DUP6 SSTORE DUP3 ISZERO PUSH2 0x2C1 JUMPI SWAP2 DUP3 ADD JUMPDEST DUP3 DUP2 GT ISZERO PUSH2 0x2C0 JUMPI DUP3 MLOAD DUP3 SSTORE SWAP2 PUSH1 0x20 ADD SWAP2 SWAP1 PUSH1 0x1 ADD SWAP1 PUSH2 0x2A5 JUMP JUMPDEST JUMPDEST POP SWAP1 POP PUSH2 0x2CE SWAP2 SWAP1 PUSH2 0x2D2 JUMP JUMPDEST POP SWAP1 JUMP JUMPDEST JUMPDEST DUP1 DUP3 GT ISZERO PUSH2 0x2EB JUMPI PUSH1 0x0 DUP2 PUSH1 0x0 SWAP1 SSTORE POP PUSH1 0x1 ADD PUSH2 0x2D3 JUMP JUMPDEST POP SWAP1 JUMP JUMPDEST PUSH1 0x0 PUSH1 0x40 MLOAD SWAP1 POP SWAP1 JUMP JUMPDEST PUSH1 0x0 DUP1 REVERT JUMPDEST PUSH1 0x0 DUP1 REVERT JUMPDEST PUSH1 0x0 DUP1 REVERT JUMPDEST PUSH1 0x0 DUP1 REVERT JUMPDEST PUSH1 0x0 PUSH1 0x1F NOT PUSH1 0x1F DUP4 ADD AND SWAP1 POP SWAP2 SWAP1 POP JUMP JUMPDEST PUSH32 0x4E487B7100000000000000000000000000000000000000000000000000000000 PUSH1 0x0 MSTORE PUSH1 0x41 PUSH1 0x4 MSTORE PUSH1 0x24 PUSH1 0x0 REVERT JUMPDEST PUSH2 0x356 DUP3 PUSH2 0x30D JUMP JUMPDEST DUP2 ADD DUP2 DUP2 LT PUSH8 0xFFFFFFFFFFFFFFFF DUP3 GT OR ISZERO PUSH2 0x375 JUMPI PUSH2 0x374 PUSH2 0x31E JUMP JUMPDEST JUMPDEST DUP1 PUSH1 0x40 MSTORE POP POP POP JUMP JUMPDEST PUSH1 0x0 PUSH2 0x388 PUSH2 0x2EF JUMP JUMPDEST SWAP1 POP PUSH2 0x394 DUP3 DUP3 PUSH2 0x34D JUMP JUMPDEST SWAP2 SWAP1 POP JUMP JUMPDEST PUSH1 0x0 PUSH8 0xFFFFFFFFFFFFFFFF DUP3 GT ISZERO PUSH2 0x3B4 JUMPI PUSH2 0x3B3 PUSH2 0x31E JUMP JUMPDEST JUMPDEST PUSH2 0x3BD DUP3 PUSH2 0x30D JUMP JUMPDEST SWAP1 POP PUSH1 0x20 DUP2 ADD SWAP1 POP SWAP2 SWAP1 POP JUMP JUMPDEST DUP3 DUP2 DUP4 CALLDATACOPY PUSH1 0x0 DUP4 DUP4 ADD MSTORE POP POP POP JUMP JUMPDEST PUSH1 0x0 PUSH2 0x3EC PUSH2 0x3E7 DUP5 PUSH2 0x399 JUMP JUMPDEST PUSH2 0x37E JUMP JUMPDEST SWAP1 POP DUP3 DUP2 MSTORE PUSH1 0x20 DUP2 ADD DUP5 DUP5 DUP5 ADD GT ISZERO PUSH2 0x408 JUMPI PUSH2 0x407 PUSH2 0x308 JUMP JUMPDEST JUMPDEST PUSH2 0x413 DUP5 DUP3 DUP6 PUSH2 0x3CA JUMP JUMPDEST POP SWAP4 SWAP3 POP POP POP JUMP JUMPDEST PUSH1 0x0 DUP3 PUSH1 0x1F DUP4 ADD SLT PUSH2 0x430 JUMPI PUSH2 0x42F PUSH2 0x303 JUMP JUMPDEST JUMPDEST DUP2 CALLDATALOAD PUSH2 0x440 DUP5 DUP3 PUSH1 0x20 DUP7 ADD PUSH2 0x3D9 JUMP JUMPDEST SWAP2 POP POP SWAP3 SWAP2 POP POP JUMP JUMPDEST PUSH1 0x0 DUP1 PUSH1 0x40 DUP4 DUP6 SUB SLT ISZERO PUSH2 0x460 JUMPI PUSH2 0x45F PUSH2 0x2F9 JUMP JUMPDEST JUMPDEST PUSH1 0x0 DUP4 ADD CALLDATALOAD PUSH8 0xFFFFFFFFFFFFFFFF DUP2 GT ISZERO PUSH2 0x47E JUMPI PUSH2 0x47D PUSH2 0x2FE JUMP JUMPDEST JUMPDEST PUSH2 0x48A DUP6 DUP3 DUP7 ADD PUSH2 0x41B JUMP JUMPDEST SWAP3 POP POP PUSH1 0x20 DUP4 ADD CALLDATALOAD PUSH8 0xFFFFFFFFFFFFFFFF DUP2 GT ISZERO PUSH2 0x4AB JUMPI PUSH2 0x4AA PUSH2 0x2FE JUMP JUMPDEST JUMPDEST PUSH2 0x4B7 DUP6 DUP3 DUP7 ADD PUSH2 0x41B JUMP JUMPDEST SWAP2 POP POP SWAP3 POP SWAP3 SWAP1 POP JUMP JUMPDEST PUSH1 0x0 DUP2 SWAP1 POP SWAP2 SWAP1 POP JUMP JUMPDEST PUSH2 0x4D4 DUP2 PUSH2 0x4C1 JUMP JUMPDEST DUP2 EQ PUSH2 0x4DF JUMPI PUSH1 0x0 DUP1 REVERT JUMPDEST POP JUMP JUMPDEST PUSH1 0x0 DUP2 CALLDATALOAD SWAP1 POP PUSH2 0x4F1 DUP2 PUSH2 0x4CB JUMP JUMPDEST SWAP3 SWAP2 POP POP JUMP JUMPDEST PUSH1 0x0 PUSH1 0x20 DUP3 DUP5 SUB SLT ISZERO PUSH2 0x50D JUMPI PUSH2 0x50C PUSH2 0x2F9 JUMP JUMPDEST JUMPDEST PUSH1 0x0 PUSH2 0x51B DUP5 DUP3 DUP6 ADD PUSH2 0x4E2 JUMP JUMPDEST SWAP2 POP POP SWAP3 SWAP2 POP POP JUMP JUMPDEST PUSH1 0x0 DUP2 MLOAD SWAP1 POP SWAP2 SWAP1 POP JUMP JUMPDEST PUSH1 0x0 DUP3 DUP3 MSTORE PUSH1 0x20 DUP3 ADD SWAP1 POP SWAP3 SWAP2 POP POP JUMP JUMPDEST PUSH1 0x0 JUMPDEST DUP4 DUP2 LT ISZERO PUSH2 0x55E JUMPI DUP1 DUP3 ADD MLOAD DUP2 DUP5 ADD MSTORE PUSH1 0x20 DUP2 ADD SWAP1 POP PUSH2 0x543 JUMP JUMPDEST DUP4 DUP2 GT ISZERO PUSH2 0x56D JUMPI PUSH1 0x0 DUP5 DUP5 ADD MSTORE JUMPDEST POP POP POP POP JUMP JUMPDEST PUSH1 0x0 PUSH2 0x57E DUP3 PUSH2 0x524 JUMP JUMPDEST PUSH2 0x588 DUP2 DUP6 PUSH2 0x52F JUMP JUMPDEST SWAP4 POP PUSH2 0x598 DUP2 DUP6 PUSH1 0x20 DUP7 ADD PUSH2 0x540 JUMP JUMPDEST PUSH2 0x5A1 DUP2 PUSH2 0x30D JUMP JUMPDEST DUP5 ADD SWAP2 POP POP SWAP3 SWAP2 POP POP JUMP JUMPDEST PUSH1 0x0 PUSH1 0x40 DUP3 ADD SWAP1 POP DUP2 DUP2 SUB PUSH1 0x0 DUP4 ADD MSTORE PUSH2 0x5C6 DUP2 DUP6 PUSH2 0x573 JUMP JUMPDEST SWAP1 POP DUP2 DUP2 SUB PUSH1 0x20 DUP4 ADD MSTORE PUSH2 0x5DA DUP2 DUP5 PUSH2 0x573 JUMP JUMPDEST SWAP1 POP SWAP4 SWAP3 POP POP POP JUMP JUMPDEST PUSH32 0x4E487B7100000000000000000000000000000000000000000000000000000000 PUSH1 0x0 MSTORE PUSH1 0x22 PUSH1 0x4 MSTORE PUSH1 0x24 PUSH1 0x0 REVERT JUMPDEST PUSH1 0x0 PUSH1 0x2 DUP3 DIV SWAP1 POP PUSH1 0x1 DUP3 AND DUP1 PUSH2 0x62A JUMPI PUSH1 0x7F DUP3 AND SWAP2 POP JUMPDEST PUSH1 0x20 DUP3 LT DUP2 SUB PUSH2 0x63D JUMPI PUSH2 0x63C PUSH2 0x5E3 JUMP JUMPDEST JUMPDEST POP SWAP2 SWAP1 POP JUMP INVALID LOG2 PUSH5 0x6970667358 0x22 SLT KECCAK256 0xBE PUSH15 0x739E23963833E31F9B93FA46BFAD5B 0xD2 0xE GAS 0x49 PUSH24 0xF2B62E6FB13475B4CA0564736F6C634300080E0033000000 "
				},
				"gasEstimates": {
					"creation": {
						"codeDepositCost": "331400",
						"executionCost": "368",
						"totalCost": "331768"
					},
					"external": {
						"addPerson(string,string)": "infinite",
						"people(uint256)": "infinite"
					}
				},
				"methodIdentifiers": {
					"addPerson(string,string)": "22f5b58d",
					"people(uint256)": "9e7a13ad"
				}
			},
			"storageLayout": {
				"storage": [
					{
						"astId": 5,
						"contract": "learning/firstContract.sol:firstContract",
						"label": "people",
						"offset": 0,
						"slot": "0",
						"type": "t_array(t_struct(Person)10_storage)dyn_storage"
					}
				],
				"types": {
					"t_array(t_struct(Person)10_storage)dyn_storage": {
						"base": "t_struct(Person)10_storage",
						"encoding": "dynamic_array",
						"label": "struct firstContract.Person[]",
						"numberOfBytes": "32"
					},
					"t_string_storage": {
						"encoding": "bytes",
						"label": "string",
						"numberOfBytes": "32"
					},
					"t_struct(Person)10_storage": {
						"encoding": "inplace",
						"label": "struct firstContract.Person",
						"members": [
							{
								"astId": 7,
								"contract": "learning/firstContract.sol:firstContract",
								"label": "_firstname",
								"offset": 0,
								"slot": "0",
								"type": "t_string_storage"
							},
							{
								"astId": 9,
								"contract": "learning/firstContract.sol:firstContract",
								"label": "_lastname",
								"offset": 0,
								"slot": "1",
								"type": "t_string_storage"
							}
						],
						"numberOfBytes": "64"
					}
				}
			},
			"userdoc": {
				"kind": "user",
				"methods": {},
				"version": 1
			}
		}
	}
}